{
	"NOTES/notes.sol": {
		"notas": {
			"abi": [
				{
					"inputs": [],
					"stateMutability": "nonpayable",
					"type": "constructor"
				},
				{
					"anonymous": false,
					"inputs": [
						{
							"indexed": false,
							"internalType": "bytes32",
							"name": "",
							"type": "bytes32"
						},
						{
							"indexed": false,
							"internalType": "uint256",
							"name": "",
							"type": "uint256"
						}
					],
					"name": "evaluated_student",
					"type": "event"
				},
				{
					"anonymous": false,
					"inputs": [
						{
							"indexed": false,
							"internalType": "string",
							"name": "",
							"type": "string"
						}
					],
					"name": "revision",
					"type": "event"
				},
				{
					"inputs": [
						{
							"internalType": "string",
							"name": "_studentId",
							"type": "string"
						},
						{
							"internalType": "uint256",
							"name": "_note",
							"type": "uint256"
						}
					],
					"name": "evaluate",
					"outputs": [],
					"stateMutability": "nonpayable",
					"type": "function"
				},
				{
					"inputs": [],
					"name": "professor",
					"outputs": [
						{
							"internalType": "address",
							"name": "",
							"type": "address"
						}
					],
					"stateMutability": "view",
					"type": "function"
				}
			],
			"devdoc": {
				"kind": "dev",
				"methods": {},
				"version": 1
			},
			"evm": {
				"assembly": "    /* \"NOTES/notes.sol\":104:2359  contract notas {\r... */\n  mstore(0x40, 0x80)\n    /* \"NOTES/notes.sol\":221:284  constructor () public {\r... */\n  callvalue\n  dup1\n  iszero\n  tag_1\n  jumpi\n  0x00\n  dup1\n  revert\ntag_1:\n  pop\n    /* \"NOTES/notes.sol\":266:276  msg.sender */\n  caller\n    /* \"NOTES/notes.sol\":254:263  professor */\n  0x00\n  dup1\n    /* \"NOTES/notes.sol\":254:276  professor = msg.sender */\n  0x0100\n  exp\n  dup2\n  sload\n  dup2\n  0xffffffffffffffffffffffffffffffffffffffff\n  mul\n  not\n  and\n  swap1\n  dup4\n  0xffffffffffffffffffffffffffffffffffffffff\n  and\n  mul\n  or\n  swap1\n  sstore\n  pop\n    /* \"NOTES/notes.sol\":104:2359  contract notas {\r... */\n  dataSize(sub_0)\n  dup1\n  dataOffset(sub_0)\n  0x00\n  codecopy\n  0x00\n  return\nstop\n\nsub_0: assembly {\n        /* \"NOTES/notes.sol\":104:2359  contract notas {\r... */\n      mstore(0x40, 0x80)\n      callvalue\n      dup1\n      iszero\n      tag_1\n      jumpi\n      0x00\n      dup1\n      revert\n    tag_1:\n      pop\n      jumpi(tag_2, lt(calldatasize, 0x04))\n      shr(0xe0, calldataload(0x00))\n      dup1\n      0x5113940d\n      eq\n      tag_3\n      jumpi\n      dup1\n      0x7b81880c\n      eq\n      tag_4\n      jumpi\n    tag_2:\n      0x00\n      dup1\n      revert\n        /* \"NOTES/notes.sol\":163:187  address public professor */\n    tag_3:\n      tag_5\n      tag_6\n      jump\t// in\n    tag_5:\n      mload(0x40)\n      tag_7\n      swap2\n      swap1\n      tag_8\n      jump\t// in\n    tag_7:\n      mload(0x40)\n      dup1\n      swap2\n      sub\n      swap1\n      return\n        /* \"NOTES/notes.sol\":647:1074  function evaluate(string memory _studentId, uint _note) public professorUnique(msg.sender){\r... */\n    tag_4:\n      tag_9\n      0x04\n      dup1\n      calldatasize\n      sub\n      dup2\n      add\n      swap1\n      tag_10\n      swap2\n      swap1\n      tag_11\n      jump\t// in\n    tag_10:\n      tag_12\n      jump\t// in\n    tag_9:\n      stop\n        /* \"NOTES/notes.sol\":163:187  address public professor */\n    tag_6:\n      0x00\n      dup1\n      sload\n      swap1\n      0x0100\n      exp\n      swap1\n      div\n      0xffffffffffffffffffffffffffffffffffffffff\n      and\n      dup2\n      jump\t// out\n        /* \"NOTES/notes.sol\":647:1074  function evaluate(string memory _studentId, uint _note) public professorUnique(msg.sender){\r... */\n    tag_12:\n        /* \"NOTES/notes.sol\":726:736  msg.sender */\n      caller\n        /* \"NOTES/notes.sol\":1281:1290  professor */\n      0x00\n      dup1\n      sload\n      swap1\n      0x0100\n      exp\n      swap1\n      div\n      0xffffffffffffffffffffffffffffffffffffffff\n      and\n        /* \"NOTES/notes.sol\":1260:1290  _professorAddress == professor */\n      0xffffffffffffffffffffffffffffffffffffffff\n      and\n        /* \"NOTES/notes.sol\":1260:1277  _professorAddress */\n      dup2\n        /* \"NOTES/notes.sol\":1260:1290  _professorAddress == professor */\n      0xffffffffffffffffffffffffffffffffffffffff\n      and\n      eq\n        /* \"NOTES/notes.sol\":1252:1341  require(_professorAddress == professor, \"No tienes permisos para ejecutar esta funcion.\") */\n      tag_14\n      jumpi\n      mload(0x40)\n      0x08c379a000000000000000000000000000000000000000000000000000000000\n      dup2\n      mstore\n      0x04\n      add\n      tag_15\n      swap1\n      tag_16\n      jump\t// in\n    tag_15:\n      mload(0x40)\n      dup1\n      swap2\n      sub\n      swap1\n      revert\n    tag_14:\n        /* \"NOTES/notes.sol\":798:820  bytes32 hash_studentId */\n      0x00\n        /* \"NOTES/notes.sol\":850:860  _studentId */\n      dup4\n        /* \"NOTES/notes.sol\":833:861  abi.encodePacked(_studentId) */\n      add(0x20, mload(0x40))\n      tag_18\n      swap2\n      swap1\n      tag_19\n      jump\t// in\n    tag_18:\n      mload(0x40)\n      0x20\n      dup2\n      dup4\n      sub\n      sub\n      dup2\n      mstore\n      swap1\n      0x40\n      mstore\n        /* \"NOTES/notes.sol\":823:862  keccak256(abi.encodePacked(_studentId)) */\n      dup1\n      mload\n      swap1\n      0x20\n      add\n      keccak256\n        /* \"NOTES/notes.sol\":798:862  bytes32 hash_studentId = keccak256(abi.encodePacked(_studentId)) */\n      swap1\n      pop\n        /* \"NOTES/notes.sol\":974:979  _note */\n      dup3\n        /* \"NOTES/notes.sol\":950:955  Notes */\n      0x01\n        /* \"NOTES/notes.sol\":950:971  Notes[hash_studentId] */\n      0x00\n        /* \"NOTES/notes.sol\":956:970  hash_studentId */\n      dup4\n        /* \"NOTES/notes.sol\":950:971  Notes[hash_studentId] */\n      dup2\n      mstore\n      0x20\n      add\n      swap1\n      dup2\n      mstore\n      0x20\n      add\n      0x00\n      keccak256\n        /* \"NOTES/notes.sol\":950:979  Notes[hash_studentId] = _note */\n      dup2\n      swap1\n      sstore\n      pop\n        /* \"NOTES/notes.sol\":1026:1066  evaluated_student(hash_studentId, _note) */\n      0xfd83de6de76bf6a6a9c1b8980aad7370b0d3759b63fc0d30ddb7f30839ce82b5\n        /* \"NOTES/notes.sol\":1044:1058  hash_studentId */\n      dup2\n        /* \"NOTES/notes.sol\":1060:1065  _note */\n      dup5\n        /* \"NOTES/notes.sol\":1026:1066  evaluated_student(hash_studentId, _note) */\n      mload(0x40)\n      tag_20\n      swap3\n      swap2\n      swap1\n      tag_21\n      jump\t// in\n    tag_20:\n      mload(0x40)\n      dup1\n      swap2\n      sub\n      swap1\n      log1\n        /* \"NOTES/notes.sol\":1352:1353  _ */\n      pop\n        /* \"NOTES/notes.sol\":647:1074  function evaluate(string memory _studentId, uint _note) public professorUnique(msg.sender){\r... */\n      pop\n      pop\n      pop\n      jump\t// out\n        /* \"--CODEGEN--\":6:448   */\n    tag_23:\n      0x00\n        /* \"--CODEGEN--\":108:111   */\n      dup3\n        /* \"--CODEGEN--\":101:105   */\n      0x1f\n        /* \"--CODEGEN--\":93:99   */\n      dup4\n        /* \"--CODEGEN--\":89:106   */\n      add\n        /* \"--CODEGEN--\":85:112   */\n      slt\n        /* \"--CODEGEN--\":75:77   */\n      tag_25\n      jumpi\n        /* \"--CODEGEN--\":126:127   */\n      0x00\n        /* \"--CODEGEN--\":123:124   */\n      dup1\n        /* \"--CODEGEN--\":116:128   */\n      revert\n        /* \"--CODEGEN--\":75:77   */\n    tag_25:\n        /* \"--CODEGEN--\":163:169   */\n      dup2\n        /* \"--CODEGEN--\":150:170   */\n      calldataload\n        /* \"--CODEGEN--\":185:250   */\n      tag_26\n        /* \"--CODEGEN--\":200:249   */\n      tag_27\n        /* \"--CODEGEN--\":242:248   */\n      dup3\n        /* \"--CODEGEN--\":200:249   */\n      tag_28\n      jump\t// in\n    tag_27:\n        /* \"--CODEGEN--\":185:250   */\n      tag_29\n      jump\t// in\n    tag_26:\n        /* \"--CODEGEN--\":176:250   */\n      swap2\n      pop\n        /* \"--CODEGEN--\":270:276   */\n      dup1\n        /* \"--CODEGEN--\":263:268   */\n      dup3\n        /* \"--CODEGEN--\":256:277   */\n      mstore\n        /* \"--CODEGEN--\":306:310   */\n      0x20\n        /* \"--CODEGEN--\":298:304   */\n      dup4\n        /* \"--CODEGEN--\":294:311   */\n      add\n        /* \"--CODEGEN--\":339:343   */\n      0x20\n        /* \"--CODEGEN--\":332:337   */\n      dup4\n        /* \"--CODEGEN--\":328:344   */\n      add\n        /* \"--CODEGEN--\":374:377   */\n      dup6\n        /* \"--CODEGEN--\":365:371   */\n      dup4\n        /* \"--CODEGEN--\":360:363   */\n      dup4\n        /* \"--CODEGEN--\":356:372   */\n      add\n        /* \"--CODEGEN--\":353:378   */\n      gt\n        /* \"--CODEGEN--\":350:352   */\n      iszero\n      tag_30\n      jumpi\n        /* \"--CODEGEN--\":391:392   */\n      0x00\n        /* \"--CODEGEN--\":388:389   */\n      dup1\n        /* \"--CODEGEN--\":381:393   */\n      revert\n        /* \"--CODEGEN--\":350:352   */\n    tag_30:\n        /* \"--CODEGEN--\":401:442   */\n      tag_31\n        /* \"--CODEGEN--\":435:441   */\n      dup4\n        /* \"--CODEGEN--\":430:433   */\n      dup3\n        /* \"--CODEGEN--\":425:428   */\n      dup5\n        /* \"--CODEGEN--\":401:442   */\n      tag_32\n      jump\t// in\n    tag_31:\n        /* \"--CODEGEN--\":68:448   */\n      pop\n      pop\n      pop\n      swap3\n      swap2\n      pop\n      pop\n      jump\t// out\n        /* \"--CODEGEN--\":456:586   */\n    tag_33:\n      0x00\n        /* \"--CODEGEN--\":536:542   */\n      dup2\n        /* \"--CODEGEN--\":523:543   */\n      calldataload\n        /* \"--CODEGEN--\":514:543   */\n      swap1\n      pop\n        /* \"--CODEGEN--\":548:581   */\n      tag_35\n        /* \"--CODEGEN--\":575:580   */\n      dup2\n        /* \"--CODEGEN--\":548:581   */\n      tag_36\n      jump\t// in\n    tag_35:\n        /* \"--CODEGEN--\":508:586   */\n      swap3\n      swap2\n      pop\n      pop\n      jump\t// out\n        /* \"--CODEGEN--\":593:1065   */\n    tag_11:\n      0x00\n      dup1\n        /* \"--CODEGEN--\":724:726   */\n      0x40\n        /* \"--CODEGEN--\":712:721   */\n      dup4\n        /* \"--CODEGEN--\":703:710   */\n      dup6\n        /* \"--CODEGEN--\":699:722   */\n      sub\n        /* \"--CODEGEN--\":695:727   */\n      slt\n        /* \"--CODEGEN--\":692:694   */\n      iszero\n      tag_38\n      jumpi\n        /* \"--CODEGEN--\":740:741   */\n      0x00\n        /* \"--CODEGEN--\":737:738   */\n      dup1\n        /* \"--CODEGEN--\":730:742   */\n      revert\n        /* \"--CODEGEN--\":692:694   */\n    tag_38:\n        /* \"--CODEGEN--\":803:804   */\n      0x00\n        /* \"--CODEGEN--\":792:801   */\n      dup4\n        /* \"--CODEGEN--\":788:805   */\n      add\n        /* \"--CODEGEN--\":775:806   */\n      calldataload\n        /* \"--CODEGEN--\":826:844   */\n      0xffffffffffffffff\n        /* \"--CODEGEN--\":818:824   */\n      dup2\n        /* \"--CODEGEN--\":815:845   */\n      gt\n        /* \"--CODEGEN--\":812:814   */\n      iszero\n      tag_39\n      jumpi\n        /* \"--CODEGEN--\":858:859   */\n      0x00\n        /* \"--CODEGEN--\":855:856   */\n      dup1\n        /* \"--CODEGEN--\":848:860   */\n      revert\n        /* \"--CODEGEN--\":812:814   */\n    tag_39:\n        /* \"--CODEGEN--\":878:941   */\n      tag_40\n        /* \"--CODEGEN--\":933:940   */\n      dup6\n        /* \"--CODEGEN--\":924:930   */\n      dup3\n        /* \"--CODEGEN--\":913:922   */\n      dup7\n        /* \"--CODEGEN--\":909:931   */\n      add\n        /* \"--CODEGEN--\":878:941   */\n      tag_23\n      jump\t// in\n    tag_40:\n        /* \"--CODEGEN--\":868:941   */\n      swap3\n      pop\n        /* \"--CODEGEN--\":754:947   */\n      pop\n        /* \"--CODEGEN--\":978:980   */\n      0x20\n        /* \"--CODEGEN--\":996:1049   */\n      tag_41\n        /* \"--CODEGEN--\":1041:1048   */\n      dup6\n        /* \"--CODEGEN--\":1032:1038   */\n      dup3\n        /* \"--CODEGEN--\":1021:1030   */\n      dup7\n        /* \"--CODEGEN--\":1017:1039   */\n      add\n        /* \"--CODEGEN--\":996:1049   */\n      tag_33\n      jump\t// in\n    tag_41:\n        /* \"--CODEGEN--\":986:1049   */\n      swap2\n      pop\n        /* \"--CODEGEN--\":957:1055   */\n      pop\n        /* \"--CODEGEN--\":686:1065   */\n      swap3\n      pop\n      swap3\n      swap1\n      pop\n      jump\t// out\n        /* \"--CODEGEN--\":1072:1185   */\n    tag_42:\n        /* \"--CODEGEN--\":1155:1179   */\n      tag_44\n        /* \"--CODEGEN--\":1173:1178   */\n      dup2\n        /* \"--CODEGEN--\":1155:1179   */\n      tag_45\n      jump\t// in\n    tag_44:\n        /* \"--CODEGEN--\":1150:1153   */\n      dup3\n        /* \"--CODEGEN--\":1143:1180   */\n      mstore\n        /* \"--CODEGEN--\":1137:1185   */\n      pop\n      pop\n      jump\t// out\n        /* \"--CODEGEN--\":1192:1305   */\n    tag_46:\n        /* \"--CODEGEN--\":1275:1299   */\n      tag_48\n        /* \"--CODEGEN--\":1293:1298   */\n      dup2\n        /* \"--CODEGEN--\":1275:1299   */\n      tag_49\n      jump\t// in\n    tag_48:\n        /* \"--CODEGEN--\":1270:1273   */\n      dup3\n        /* \"--CODEGEN--\":1263:1300   */\n      mstore\n        /* \"--CODEGEN--\":1257:1305   */\n      pop\n      pop\n      jump\t// out\n        /* \"--CODEGEN--\":1312:1672   */\n    tag_50:\n      0x00\n        /* \"--CODEGEN--\":1442:1481   */\n      tag_52\n        /* \"--CODEGEN--\":1475:1480   */\n      dup3\n        /* \"--CODEGEN--\":1442:1481   */\n      tag_53\n      jump\t// in\n    tag_52:\n        /* \"--CODEGEN--\":1493:1582   */\n      tag_54\n        /* \"--CODEGEN--\":1575:1581   */\n      dup2\n        /* \"--CODEGEN--\":1570:1573   */\n      dup6\n        /* \"--CODEGEN--\":1493:1582   */\n      tag_55\n      jump\t// in\n    tag_54:\n        /* \"--CODEGEN--\":1486:1582   */\n      swap4\n      pop\n        /* \"--CODEGEN--\":1587:1639   */\n      tag_56\n        /* \"--CODEGEN--\":1632:1638   */\n      dup2\n        /* \"--CODEGEN--\":1627:1630   */\n      dup6\n        /* \"--CODEGEN--\":1620:1624   */\n      0x20\n        /* \"--CODEGEN--\":1613:1618   */\n      dup7\n        /* \"--CODEGEN--\":1609:1625   */\n      add\n        /* \"--CODEGEN--\":1587:1639   */\n      tag_57\n      jump\t// in\n    tag_56:\n        /* \"--CODEGEN--\":1660:1666   */\n      dup1\n        /* \"--CODEGEN--\":1655:1658   */\n      dup5\n        /* \"--CODEGEN--\":1651:1667   */\n      add\n        /* \"--CODEGEN--\":1644:1667   */\n      swap2\n      pop\n        /* \"--CODEGEN--\":1422:1672   */\n      pop\n      swap3\n      swap2\n      pop\n      pop\n      jump\t// out\n        /* \"--CODEGEN--\":1680:2063   */\n    tag_58:\n      0x00\n        /* \"--CODEGEN--\":1840:1907   */\n      tag_60\n        /* \"--CODEGEN--\":1904:1906   */\n      0x2e\n        /* \"--CODEGEN--\":1899:1902   */\n      dup4\n        /* \"--CODEGEN--\":1840:1907   */\n      tag_61\n      jump\t// in\n    tag_60:\n        /* \"--CODEGEN--\":1833:1907   */\n      swap2\n      pop\n        /* \"--CODEGEN--\":1940:1974   */\n      0x4e6f207469656e6573207065726d69736f73207061726120656a656375746172\n        /* \"--CODEGEN--\":1936:1937   */\n      0x00\n        /* \"--CODEGEN--\":1931:1934   */\n      dup4\n        /* \"--CODEGEN--\":1927:1938   */\n      add\n        /* \"--CODEGEN--\":1920:1975   */\n      mstore\n        /* \"--CODEGEN--\":2009:2025   */\n      0x20657374612066756e63696f6e2e000000000000000000000000000000000000\n        /* \"--CODEGEN--\":2004:2006   */\n      0x20\n        /* \"--CODEGEN--\":1999:2002   */\n      dup4\n        /* \"--CODEGEN--\":1995:2007   */\n      add\n        /* \"--CODEGEN--\":1988:2026   */\n      mstore\n        /* \"--CODEGEN--\":2054:2056   */\n      0x40\n        /* \"--CODEGEN--\":2049:2052   */\n      dup3\n        /* \"--CODEGEN--\":2045:2057   */\n      add\n        /* \"--CODEGEN--\":2038:2057   */\n      swap1\n      pop\n        /* \"--CODEGEN--\":1826:2063   */\n      swap2\n      swap1\n      pop\n      jump\t// out\n        /* \"--CODEGEN--\":2071:2184   */\n    tag_62:\n        /* \"--CODEGEN--\":2154:2178   */\n      tag_64\n        /* \"--CODEGEN--\":2172:2177   */\n      dup2\n        /* \"--CODEGEN--\":2154:2178   */\n      tag_65\n      jump\t// in\n    tag_64:\n        /* \"--CODEGEN--\":2149:2152   */\n      dup3\n        /* \"--CODEGEN--\":2142:2179   */\n      mstore\n        /* \"--CODEGEN--\":2136:2184   */\n      pop\n      pop\n      jump\t// out\n        /* \"--CODEGEN--\":2191:2466   */\n    tag_19:\n      0x00\n        /* \"--CODEGEN--\":2346:2441   */\n      tag_67\n        /* \"--CODEGEN--\":2437:2440   */\n      dup3\n        /* \"--CODEGEN--\":2428:2434   */\n      dup5\n        /* \"--CODEGEN--\":2346:2441   */\n      tag_50\n      jump\t// in\n    tag_67:\n        /* \"--CODEGEN--\":2339:2441   */\n      swap2\n      pop\n        /* \"--CODEGEN--\":2458:2461   */\n      dup2\n        /* \"--CODEGEN--\":2451:2461   */\n      swap1\n      pop\n        /* \"--CODEGEN--\":2327:2466   */\n      swap3\n      swap2\n      pop\n      pop\n      jump\t// out\n        /* \"--CODEGEN--\":2473:2695   */\n    tag_8:\n      0x00\n        /* \"--CODEGEN--\":2600:2602   */\n      0x20\n        /* \"--CODEGEN--\":2589:2598   */\n      dup3\n        /* \"--CODEGEN--\":2585:2603   */\n      add\n        /* \"--CODEGEN--\":2577:2603   */\n      swap1\n      pop\n        /* \"--CODEGEN--\":2614:2685   */\n      tag_69\n        /* \"--CODEGEN--\":2682:2683   */\n      0x00\n        /* \"--CODEGEN--\":2671:2680   */\n      dup4\n        /* \"--CODEGEN--\":2667:2684   */\n      add\n        /* \"--CODEGEN--\":2658:2664   */\n      dup5\n        /* \"--CODEGEN--\":2614:2685   */\n      tag_42\n      jump\t// in\n    tag_69:\n        /* \"--CODEGEN--\":2571:2695   */\n      swap3\n      swap2\n      pop\n      pop\n      jump\t// out\n        /* \"--CODEGEN--\":2702:3035   */\n    tag_21:\n      0x00\n        /* \"--CODEGEN--\":2857:2859   */\n      0x40\n        /* \"--CODEGEN--\":2846:2855   */\n      dup3\n        /* \"--CODEGEN--\":2842:2860   */\n      add\n        /* \"--CODEGEN--\":2834:2860   */\n      swap1\n      pop\n        /* \"--CODEGEN--\":2871:2942   */\n      tag_71\n        /* \"--CODEGEN--\":2939:2940   */\n      0x00\n        /* \"--CODEGEN--\":2928:2937   */\n      dup4\n        /* \"--CODEGEN--\":2924:2941   */\n      add\n        /* \"--CODEGEN--\":2915:2921   */\n      dup6\n        /* \"--CODEGEN--\":2871:2942   */\n      tag_46\n      jump\t// in\n    tag_71:\n        /* \"--CODEGEN--\":2953:3025   */\n      tag_72\n        /* \"--CODEGEN--\":3021:3023   */\n      0x20\n        /* \"--CODEGEN--\":3010:3019   */\n      dup4\n        /* \"--CODEGEN--\":3006:3024   */\n      add\n        /* \"--CODEGEN--\":2997:3003   */\n      dup5\n        /* \"--CODEGEN--\":2953:3025   */\n      tag_62\n      jump\t// in\n    tag_72:\n        /* \"--CODEGEN--\":2828:3035   */\n      swap4\n      swap3\n      pop\n      pop\n      pop\n      jump\t// out\n        /* \"--CODEGEN--\":3042:3458   */\n    tag_16:\n      0x00\n        /* \"--CODEGEN--\":3242:3244   */\n      0x20\n        /* \"--CODEGEN--\":3231:3240   */\n      dup3\n        /* \"--CODEGEN--\":3227:3245   */\n      add\n        /* \"--CODEGEN--\":3219:3245   */\n      swap1\n      pop\n        /* \"--CODEGEN--\":3292:3301   */\n      dup2\n        /* \"--CODEGEN--\":3286:3290   */\n      dup2\n        /* \"--CODEGEN--\":3282:3302   */\n      sub\n        /* \"--CODEGEN--\":3278:3279   */\n      0x00\n        /* \"--CODEGEN--\":3267:3276   */\n      dup4\n        /* \"--CODEGEN--\":3263:3280   */\n      add\n        /* \"--CODEGEN--\":3256:3303   */\n      mstore\n        /* \"--CODEGEN--\":3317:3448   */\n      tag_74\n        /* \"--CODEGEN--\":3443:3447   */\n      dup2\n        /* \"--CODEGEN--\":3317:3448   */\n      tag_58\n      jump\t// in\n    tag_74:\n        /* \"--CODEGEN--\":3309:3448   */\n      swap1\n      pop\n        /* \"--CODEGEN--\":3213:3458   */\n      swap2\n      swap1\n      pop\n      jump\t// out\n        /* \"--CODEGEN--\":3465:3721   */\n    tag_29:\n      0x00\n        /* \"--CODEGEN--\":3527:3529   */\n      0x40\n        /* \"--CODEGEN--\":3521:3530   */\n      mload\n        /* \"--CODEGEN--\":3511:3530   */\n      swap1\n      pop\n        /* \"--CODEGEN--\":3565:3569   */\n      dup2\n        /* \"--CODEGEN--\":3557:3563   */\n      dup2\n        /* \"--CODEGEN--\":3553:3570   */\n      add\n        /* \"--CODEGEN--\":3664:3670   */\n      dup2\n        /* \"--CODEGEN--\":3652:3662   */\n      dup2\n        /* \"--CODEGEN--\":3649:3671   */\n      lt\n        /* \"--CODEGEN--\":3628:3646   */\n      0xffffffffffffffff\n        /* \"--CODEGEN--\":3616:3626   */\n      dup3\n        /* \"--CODEGEN--\":3613:3647   */\n      gt\n        /* \"--CODEGEN--\":3610:3672   */\n      or\n        /* \"--CODEGEN--\":3607:3609   */\n      iszero\n      tag_76\n      jumpi\n        /* \"--CODEGEN--\":3685:3686   */\n      0x00\n        /* \"--CODEGEN--\":3682:3683   */\n      dup1\n        /* \"--CODEGEN--\":3675:3687   */\n      revert\n        /* \"--CODEGEN--\":3607:3609   */\n    tag_76:\n        /* \"--CODEGEN--\":3705:3715   */\n      dup1\n        /* \"--CODEGEN--\":3701:3703   */\n      0x40\n        /* \"--CODEGEN--\":3694:3716   */\n      mstore\n        /* \"--CODEGEN--\":3505:3721   */\n      pop\n      swap2\n      swap1\n      pop\n      jump\t// out\n        /* \"--CODEGEN--\":3728:4050   */\n    tag_28:\n      0x00\n        /* \"--CODEGEN--\":3872:3890   */\n      0xffffffffffffffff\n        /* \"--CODEGEN--\":3864:3870   */\n      dup3\n        /* \"--CODEGEN--\":3861:3891   */\n      gt\n        /* \"--CODEGEN--\":3858:3860   */\n      iszero\n      tag_78\n      jumpi\n        /* \"--CODEGEN--\":3904:3905   */\n      0x00\n        /* \"--CODEGEN--\":3901:3902   */\n      dup1\n        /* \"--CODEGEN--\":3894:3906   */\n      revert\n        /* \"--CODEGEN--\":3858:3860   */\n    tag_78:\n        /* \"--CODEGEN--\":3971:3975   */\n      0x1f\n        /* \"--CODEGEN--\":3967:3976   */\n      not\n        /* \"--CODEGEN--\":3960:3964   */\n      0x1f\n        /* \"--CODEGEN--\":3952:3958   */\n      dup4\n        /* \"--CODEGEN--\":3948:3965   */\n      add\n        /* \"--CODEGEN--\":3944:3977   */\n      and\n        /* \"--CODEGEN--\":3936:3977   */\n      swap1\n      pop\n        /* \"--CODEGEN--\":4035:4039   */\n      0x20\n        /* \"--CODEGEN--\":4029:4033   */\n      dup2\n        /* \"--CODEGEN--\":4025:4040   */\n      add\n        /* \"--CODEGEN--\":4017:4040   */\n      swap1\n      pop\n        /* \"--CODEGEN--\":3795:4050   */\n      swap2\n      swap1\n      pop\n      jump\t// out\n        /* \"--CODEGEN--\":4057:4179   */\n    tag_53:\n      0x00\n        /* \"--CODEGEN--\":4151:4156   */\n      dup2\n        /* \"--CODEGEN--\":4145:4157   */\n      mload\n        /* \"--CODEGEN--\":4135:4157   */\n      swap1\n      pop\n        /* \"--CODEGEN--\":4116:4179   */\n      swap2\n      swap1\n      pop\n      jump\t// out\n        /* \"--CODEGEN--\":4187:4350   */\n    tag_61:\n      0x00\n        /* \"--CODEGEN--\":4302:4308   */\n      dup3\n        /* \"--CODEGEN--\":4297:4300   */\n      dup3\n        /* \"--CODEGEN--\":4290:4309   */\n      mstore\n        /* \"--CODEGEN--\":4339:4343   */\n      0x20\n        /* \"--CODEGEN--\":4334:4337   */\n      dup3\n        /* \"--CODEGEN--\":4330:4344   */\n      add\n        /* \"--CODEGEN--\":4315:4344   */\n      swap1\n      pop\n        /* \"--CODEGEN--\":4283:4350   */\n      swap3\n      swap2\n      pop\n      pop\n      jump\t// out\n        /* \"--CODEGEN--\":4359:4504   */\n    tag_55:\n      0x00\n        /* \"--CODEGEN--\":4495:4498   */\n      dup2\n        /* \"--CODEGEN--\":4480:4498   */\n      swap1\n      pop\n        /* \"--CODEGEN--\":4473:4504   */\n      swap3\n      swap2\n      pop\n      pop\n      jump\t// out\n        /* \"--CODEGEN--\":4512:4603   */\n    tag_45:\n      0x00\n        /* \"--CODEGEN--\":4574:4598   */\n      tag_83\n        /* \"--CODEGEN--\":4592:4597   */\n      dup3\n        /* \"--CODEGEN--\":4574:4598   */\n      tag_84\n      jump\t// in\n    tag_83:\n        /* \"--CODEGEN--\":4563:4598   */\n      swap1\n      pop\n        /* \"--CODEGEN--\":4557:4603   */\n      swap2\n      swap1\n      pop\n      jump\t// out\n        /* \"--CODEGEN--\":4610:4682   */\n    tag_49:\n      0x00\n        /* \"--CODEGEN--\":4672:4677   */\n      dup2\n        /* \"--CODEGEN--\":4661:4677   */\n      swap1\n      pop\n        /* \"--CODEGEN--\":4655:4682   */\n      swap2\n      swap1\n      pop\n      jump\t// out\n        /* \"--CODEGEN--\":4689:4810   */\n    tag_84:\n      0x00\n        /* \"--CODEGEN--\":4762:4804   */\n      0xffffffffffffffffffffffffffffffffffffffff\n        /* \"--CODEGEN--\":4755:4760   */\n      dup3\n        /* \"--CODEGEN--\":4751:4805   */\n      and\n        /* \"--CODEGEN--\":4740:4805   */\n      swap1\n      pop\n        /* \"--CODEGEN--\":4734:4810   */\n      swap2\n      swap1\n      pop\n      jump\t// out\n        /* \"--CODEGEN--\":4817:4889   */\n    tag_65:\n      0x00\n        /* \"--CODEGEN--\":4879:4884   */\n      dup2\n        /* \"--CODEGEN--\":4868:4884   */\n      swap1\n      pop\n        /* \"--CODEGEN--\":4862:4889   */\n      swap2\n      swap1\n      pop\n      jump\t// out\n        /* \"--CODEGEN--\":4897:5042   */\n    tag_32:\n        /* \"--CODEGEN--\":4978:4984   */\n      dup3\n        /* \"--CODEGEN--\":4973:4976   */\n      dup2\n        /* \"--CODEGEN--\":4968:4971   */\n      dup4\n        /* \"--CODEGEN--\":4955:4985   */\n      calldatacopy\n        /* \"--CODEGEN--\":5034:5035   */\n      0x00\n        /* \"--CODEGEN--\":5025:5031   */\n      dup4\n        /* \"--CODEGEN--\":5020:5023   */\n      dup4\n        /* \"--CODEGEN--\":5016:5032   */\n      add\n        /* \"--CODEGEN--\":5009:5036   */\n      mstore\n        /* \"--CODEGEN--\":4948:5042   */\n      pop\n      pop\n      pop\n      jump\t// out\n        /* \"--CODEGEN--\":5051:5319   */\n    tag_57:\n        /* \"--CODEGEN--\":5116:5117   */\n      0x00\n        /* \"--CODEGEN--\":5123:5224   */\n    tag_90:\n        /* \"--CODEGEN--\":5137:5143   */\n      dup4\n        /* \"--CODEGEN--\":5134:5135   */\n      dup2\n        /* \"--CODEGEN--\":5131:5144   */\n      lt\n        /* \"--CODEGEN--\":5123:5224   */\n      iszero\n      tag_92\n      jumpi\n        /* \"--CODEGEN--\":5213:5214   */\n      dup1\n        /* \"--CODEGEN--\":5208:5211   */\n      dup3\n        /* \"--CODEGEN--\":5204:5215   */\n      add\n        /* \"--CODEGEN--\":5198:5216   */\n      mload\n        /* \"--CODEGEN--\":5194:5195   */\n      dup2\n        /* \"--CODEGEN--\":5189:5192   */\n      dup5\n        /* \"--CODEGEN--\":5185:5196   */\n      add\n        /* \"--CODEGEN--\":5178:5217   */\n      mstore\n        /* \"--CODEGEN--\":5159:5161   */\n      0x20\n        /* \"--CODEGEN--\":5156:5157   */\n      dup2\n        /* \"--CODEGEN--\":5152:5162   */\n      add\n        /* \"--CODEGEN--\":5147:5162   */\n      swap1\n      pop\n        /* \"--CODEGEN--\":5123:5224   */\n      jump(tag_90)\n    tag_92:\n        /* \"--CODEGEN--\":5239:5245   */\n      dup4\n        /* \"--CODEGEN--\":5236:5237   */\n      dup2\n        /* \"--CODEGEN--\":5233:5246   */\n      gt\n        /* \"--CODEGEN--\":5230:5232   */\n      iszero\n      tag_93\n      jumpi\n        /* \"--CODEGEN--\":5304:5305   */\n      0x00\n        /* \"--CODEGEN--\":5295:5301   */\n      dup5\n        /* \"--CODEGEN--\":5290:5293   */\n      dup5\n        /* \"--CODEGEN--\":5286:5302   */\n      add\n        /* \"--CODEGEN--\":5279:5306   */\n      mstore\n        /* \"--CODEGEN--\":5230:5232   */\n    tag_93:\n        /* \"--CODEGEN--\":5100:5319   */\n      pop\n      pop\n      pop\n      pop\n      jump\t// out\n        /* \"--CODEGEN--\":5327:5444   */\n    tag_36:\n        /* \"--CODEGEN--\":5396:5420   */\n      tag_95\n        /* \"--CODEGEN--\":5414:5419   */\n      dup2\n        /* \"--CODEGEN--\":5396:5420   */\n      tag_65\n      jump\t// in\n    tag_95:\n        /* \"--CODEGEN--\":5389:5394   */\n      dup2\n        /* \"--CODEGEN--\":5386:5421   */\n      eq\n        /* \"--CODEGEN--\":5376:5378   */\n      tag_96\n      jumpi\n        /* \"--CODEGEN--\":5435:5436   */\n      0x00\n        /* \"--CODEGEN--\":5432:5433   */\n      dup1\n        /* \"--CODEGEN--\":5425:5437   */\n      revert\n        /* \"--CODEGEN--\":5376:5378   */\n    tag_96:\n        /* \"--CODEGEN--\":5370:5444   */\n      pop\n      jump\t// out\n\n    auxdata: 0xa2646970667358221220217b14c063179992aa329ea402dc6fad18df46528f9bc7b8131e181bbf852f3664736f6c634300060c0033\n}\n",
				"bytecode": {
					"linkReferences": {},
					"object": "608060405234801561001057600080fd5b50336000806101000a81548173ffffffffffffffffffffffffffffffffffffffff021916908373ffffffffffffffffffffffffffffffffffffffff1602179055506104fb806100606000396000f3fe608060405234801561001057600080fd5b50600436106100365760003560e01c80635113940d1461003b5780637b81880c14610059575b600080fd5b610043610075565b6040516100509190610342565b60405180910390f35b610073600480360381019061006e9190610213565b610099565b005b60008054906101000a900473ffffffffffffffffffffffffffffffffffffffff1681565b3360008054906101000a900473ffffffffffffffffffffffffffffffffffffffff1673ffffffffffffffffffffffffffffffffffffffff168173ffffffffffffffffffffffffffffffffffffffff1614610128576040517f08c379a000000000000000000000000000000000000000000000000000000000815260040161011f90610386565b60405180910390fd5b60008360405160200161013b919061032b565b6040516020818303038152906040528051906020012090508260016000838152602001908152602001600020819055507ffd83de6de76bf6a6a9c1b8980aad7370b0d3759b63fc0d30ddb7f30839ce82b5818460405161019c92919061035d565b60405180910390a150505050565b600082601f8301126101bb57600080fd5b81356101ce6101c9826103d3565b6103a6565b915080825260208301602083018583830111156101ea57600080fd5b6101f583828461046c565b50505092915050565b60008135905061020d816104ae565b92915050565b6000806040838503121561022657600080fd5b600083013567ffffffffffffffff81111561024057600080fd5b61024c858286016101aa565b925050602061025d858286016101fe565b9150509250929050565b61027081610426565b82525050565b61027f81610438565b82525050565b6000610290826103ff565b61029a818561041b565b93506102aa81856020860161047b565b80840191505092915050565b60006102c3602e8361040a565b91507f4e6f207469656e6573207065726d69736f73207061726120656a65637574617260008301527f20657374612066756e63696f6e2e0000000000000000000000000000000000006020830152604082019050919050565b61032581610462565b82525050565b60006103378284610285565b915081905092915050565b60006020820190506103576000830184610267565b92915050565b60006040820190506103726000830185610276565b61037f602083018461031c565b9392505050565b6000602082019050818103600083015261039f816102b6565b9050919050565b6000604051905081810181811067ffffffffffffffff821117156103c957600080fd5b8060405250919050565b600067ffffffffffffffff8211156103ea57600080fd5b601f19601f8301169050602081019050919050565b600081519050919050565b600082825260208201905092915050565b600081905092915050565b600061043182610442565b9050919050565b6000819050919050565b600073ffffffffffffffffffffffffffffffffffffffff82169050919050565b6000819050919050565b82818337600083830152505050565b60005b8381101561049957808201518184015260208101905061047e565b838111156104a8576000848401525b50505050565b6104b781610462565b81146104c257600080fd5b5056fea2646970667358221220217b14c063179992aa329ea402dc6fad18df46528f9bc7b8131e181bbf852f3664736f6c634300060c0033",
					"opcodes": "PUSH1 0x80 PUSH1 0x40 MSTORE CALLVALUE DUP1 ISZERO PUSH2 0x10 JUMPI PUSH1 0x0 DUP1 REVERT JUMPDEST POP CALLER PUSH1 0x0 DUP1 PUSH2 0x100 EXP DUP2 SLOAD DUP2 PUSH20 0xFFFFFFFFFFFFFFFFFFFFFFFFFFFFFFFFFFFFFFFF MUL NOT AND SWAP1 DUP4 PUSH20 0xFFFFFFFFFFFFFFFFFFFFFFFFFFFFFFFFFFFFFFFF AND MUL OR SWAP1 SSTORE POP PUSH2 0x4FB DUP1 PUSH2 0x60 PUSH1 0x0 CODECOPY PUSH1 0x0 RETURN INVALID PUSH1 0x80 PUSH1 0x40 MSTORE CALLVALUE DUP1 ISZERO PUSH2 0x10 JUMPI PUSH1 0x0 DUP1 REVERT JUMPDEST POP PUSH1 0x4 CALLDATASIZE LT PUSH2 0x36 JUMPI PUSH1 0x0 CALLDATALOAD PUSH1 0xE0 SHR DUP1 PUSH4 0x5113940D EQ PUSH2 0x3B JUMPI DUP1 PUSH4 0x7B81880C EQ PUSH2 0x59 JUMPI JUMPDEST PUSH1 0x0 DUP1 REVERT JUMPDEST PUSH2 0x43 PUSH2 0x75 JUMP JUMPDEST PUSH1 0x40 MLOAD PUSH2 0x50 SWAP2 SWAP1 PUSH2 0x342 JUMP JUMPDEST PUSH1 0x40 MLOAD DUP1 SWAP2 SUB SWAP1 RETURN JUMPDEST PUSH2 0x73 PUSH1 0x4 DUP1 CALLDATASIZE SUB DUP2 ADD SWAP1 PUSH2 0x6E SWAP2 SWAP1 PUSH2 0x213 JUMP JUMPDEST PUSH2 0x99 JUMP JUMPDEST STOP JUMPDEST PUSH1 0x0 DUP1 SLOAD SWAP1 PUSH2 0x100 EXP SWAP1 DIV PUSH20 0xFFFFFFFFFFFFFFFFFFFFFFFFFFFFFFFFFFFFFFFF AND DUP2 JUMP JUMPDEST CALLER PUSH1 0x0 DUP1 SLOAD SWAP1 PUSH2 0x100 EXP SWAP1 DIV PUSH20 0xFFFFFFFFFFFFFFFFFFFFFFFFFFFFFFFFFFFFFFFF AND PUSH20 0xFFFFFFFFFFFFFFFFFFFFFFFFFFFFFFFFFFFFFFFF AND DUP2 PUSH20 0xFFFFFFFFFFFFFFFFFFFFFFFFFFFFFFFFFFFFFFFF AND EQ PUSH2 0x128 JUMPI PUSH1 0x40 MLOAD PUSH32 0x8C379A000000000000000000000000000000000000000000000000000000000 DUP2 MSTORE PUSH1 0x4 ADD PUSH2 0x11F SWAP1 PUSH2 0x386 JUMP JUMPDEST PUSH1 0x40 MLOAD DUP1 SWAP2 SUB SWAP1 REVERT JUMPDEST PUSH1 0x0 DUP4 PUSH1 0x40 MLOAD PUSH1 0x20 ADD PUSH2 0x13B SWAP2 SWAP1 PUSH2 0x32B JUMP JUMPDEST PUSH1 0x40 MLOAD PUSH1 0x20 DUP2 DUP4 SUB SUB DUP2 MSTORE SWAP1 PUSH1 0x40 MSTORE DUP1 MLOAD SWAP1 PUSH1 0x20 ADD KECCAK256 SWAP1 POP DUP3 PUSH1 0x1 PUSH1 0x0 DUP4 DUP2 MSTORE PUSH1 0x20 ADD SWAP1 DUP2 MSTORE PUSH1 0x20 ADD PUSH1 0x0 KECCAK256 DUP2 SWAP1 SSTORE POP PUSH32 0xFD83DE6DE76BF6A6A9C1B8980AAD7370B0D3759B63FC0D30DDB7F30839CE82B5 DUP2 DUP5 PUSH1 0x40 MLOAD PUSH2 0x19C SWAP3 SWAP2 SWAP1 PUSH2 0x35D JUMP JUMPDEST PUSH1 0x40 MLOAD DUP1 SWAP2 SUB SWAP1 LOG1 POP POP POP POP JUMP JUMPDEST PUSH1 0x0 DUP3 PUSH1 0x1F DUP4 ADD SLT PUSH2 0x1BB JUMPI PUSH1 0x0 DUP1 REVERT JUMPDEST DUP2 CALLDATALOAD PUSH2 0x1CE PUSH2 0x1C9 DUP3 PUSH2 0x3D3 JUMP JUMPDEST PUSH2 0x3A6 JUMP JUMPDEST SWAP2 POP DUP1 DUP3 MSTORE PUSH1 0x20 DUP4 ADD PUSH1 0x20 DUP4 ADD DUP6 DUP4 DUP4 ADD GT ISZERO PUSH2 0x1EA JUMPI PUSH1 0x0 DUP1 REVERT JUMPDEST PUSH2 0x1F5 DUP4 DUP3 DUP5 PUSH2 0x46C JUMP JUMPDEST POP POP POP SWAP3 SWAP2 POP POP JUMP JUMPDEST PUSH1 0x0 DUP2 CALLDATALOAD SWAP1 POP PUSH2 0x20D DUP2 PUSH2 0x4AE JUMP JUMPDEST SWAP3 SWAP2 POP POP JUMP JUMPDEST PUSH1 0x0 DUP1 PUSH1 0x40 DUP4 DUP6 SUB SLT ISZERO PUSH2 0x226 JUMPI PUSH1 0x0 DUP1 REVERT JUMPDEST PUSH1 0x0 DUP4 ADD CALLDATALOAD PUSH8 0xFFFFFFFFFFFFFFFF DUP2 GT ISZERO PUSH2 0x240 JUMPI PUSH1 0x0 DUP1 REVERT JUMPDEST PUSH2 0x24C DUP6 DUP3 DUP7 ADD PUSH2 0x1AA JUMP JUMPDEST SWAP3 POP POP PUSH1 0x20 PUSH2 0x25D DUP6 DUP3 DUP7 ADD PUSH2 0x1FE JUMP JUMPDEST SWAP2 POP POP SWAP3 POP SWAP3 SWAP1 POP JUMP JUMPDEST PUSH2 0x270 DUP2 PUSH2 0x426 JUMP JUMPDEST DUP3 MSTORE POP POP JUMP JUMPDEST PUSH2 0x27F DUP2 PUSH2 0x438 JUMP JUMPDEST DUP3 MSTORE POP POP JUMP JUMPDEST PUSH1 0x0 PUSH2 0x290 DUP3 PUSH2 0x3FF JUMP JUMPDEST PUSH2 0x29A DUP2 DUP6 PUSH2 0x41B JUMP JUMPDEST SWAP4 POP PUSH2 0x2AA DUP2 DUP6 PUSH1 0x20 DUP7 ADD PUSH2 0x47B JUMP JUMPDEST DUP1 DUP5 ADD SWAP2 POP POP SWAP3 SWAP2 POP POP JUMP JUMPDEST PUSH1 0x0 PUSH2 0x2C3 PUSH1 0x2E DUP4 PUSH2 0x40A JUMP JUMPDEST SWAP2 POP PUSH32 0x4E6F207469656E6573207065726D69736F73207061726120656A656375746172 PUSH1 0x0 DUP4 ADD MSTORE PUSH32 0x20657374612066756E63696F6E2E000000000000000000000000000000000000 PUSH1 0x20 DUP4 ADD MSTORE PUSH1 0x40 DUP3 ADD SWAP1 POP SWAP2 SWAP1 POP JUMP JUMPDEST PUSH2 0x325 DUP2 PUSH2 0x462 JUMP JUMPDEST DUP3 MSTORE POP POP JUMP JUMPDEST PUSH1 0x0 PUSH2 0x337 DUP3 DUP5 PUSH2 0x285 JUMP JUMPDEST SWAP2 POP DUP2 SWAP1 POP SWAP3 SWAP2 POP POP JUMP JUMPDEST PUSH1 0x0 PUSH1 0x20 DUP3 ADD SWAP1 POP PUSH2 0x357 PUSH1 0x0 DUP4 ADD DUP5 PUSH2 0x267 JUMP JUMPDEST SWAP3 SWAP2 POP POP JUMP JUMPDEST PUSH1 0x0 PUSH1 0x40 DUP3 ADD SWAP1 POP PUSH2 0x372 PUSH1 0x0 DUP4 ADD DUP6 PUSH2 0x276 JUMP JUMPDEST PUSH2 0x37F PUSH1 0x20 DUP4 ADD DUP5 PUSH2 0x31C JUMP JUMPDEST SWAP4 SWAP3 POP POP POP JUMP JUMPDEST PUSH1 0x0 PUSH1 0x20 DUP3 ADD SWAP1 POP DUP2 DUP2 SUB PUSH1 0x0 DUP4 ADD MSTORE PUSH2 0x39F DUP2 PUSH2 0x2B6 JUMP JUMPDEST SWAP1 POP SWAP2 SWAP1 POP JUMP JUMPDEST PUSH1 0x0 PUSH1 0x40 MLOAD SWAP1 POP DUP2 DUP2 ADD DUP2 DUP2 LT PUSH8 0xFFFFFFFFFFFFFFFF DUP3 GT OR ISZERO PUSH2 0x3C9 JUMPI PUSH1 0x0 DUP1 REVERT JUMPDEST DUP1 PUSH1 0x40 MSTORE POP SWAP2 SWAP1 POP JUMP JUMPDEST PUSH1 0x0 PUSH8 0xFFFFFFFFFFFFFFFF DUP3 GT ISZERO PUSH2 0x3EA JUMPI PUSH1 0x0 DUP1 REVERT JUMPDEST PUSH1 0x1F NOT PUSH1 0x1F DUP4 ADD AND SWAP1 POP PUSH1 0x20 DUP2 ADD SWAP1 POP SWAP2 SWAP1 POP JUMP JUMPDEST PUSH1 0x0 DUP2 MLOAD SWAP1 POP SWAP2 SWAP1 POP JUMP JUMPDEST PUSH1 0x0 DUP3 DUP3 MSTORE PUSH1 0x20 DUP3 ADD SWAP1 POP SWAP3 SWAP2 POP POP JUMP JUMPDEST PUSH1 0x0 DUP2 SWAP1 POP SWAP3 SWAP2 POP POP JUMP JUMPDEST PUSH1 0x0 PUSH2 0x431 DUP3 PUSH2 0x442 JUMP JUMPDEST SWAP1 POP SWAP2 SWAP1 POP JUMP JUMPDEST PUSH1 0x0 DUP2 SWAP1 POP SWAP2 SWAP1 POP JUMP JUMPDEST PUSH1 0x0 PUSH20 0xFFFFFFFFFFFFFFFFFFFFFFFFFFFFFFFFFFFFFFFF DUP3 AND SWAP1 POP SWAP2 SWAP1 POP JUMP JUMPDEST PUSH1 0x0 DUP2 SWAP1 POP SWAP2 SWAP1 POP JUMP JUMPDEST DUP3 DUP2 DUP4 CALLDATACOPY PUSH1 0x0 DUP4 DUP4 ADD MSTORE POP POP POP JUMP JUMPDEST PUSH1 0x0 JUMPDEST DUP4 DUP2 LT ISZERO PUSH2 0x499 JUMPI DUP1 DUP3 ADD MLOAD DUP2 DUP5 ADD MSTORE PUSH1 0x20 DUP2 ADD SWAP1 POP PUSH2 0x47E JUMP JUMPDEST DUP4 DUP2 GT ISZERO PUSH2 0x4A8 JUMPI PUSH1 0x0 DUP5 DUP5 ADD MSTORE JUMPDEST POP POP POP POP JUMP JUMPDEST PUSH2 0x4B7 DUP2 PUSH2 0x462 JUMP JUMPDEST DUP2 EQ PUSH2 0x4C2 JUMPI PUSH1 0x0 DUP1 REVERT JUMPDEST POP JUMP INVALID LOG2 PUSH5 0x6970667358 0x22 SLT KECCAK256 0x21 PUSH28 0x14C063179992AA329EA402DC6FAD18DF46528F9BC7B8131E181BBF85 0x2F CALLDATASIZE PUSH5 0x736F6C6343 STOP MOD 0xC STOP CALLER "
				},
				"gasEstimates": {
					"creation": {
						"codeDepositCost": "255000",
						"executionCost": "21160",
						"totalCost": "276160"
					},
					"external": {
						"evaluate(string,uint256)": "infinite",
						"professor()": "1189"
					}
				},
				"methodIdentifiers": {
					"evaluate(string,uint256)": "7b81880c",
					"professor()": "5113940d"
				}
			},
			"storageLayout": {
				"storage": [
					{
						"astId": 4,
						"contract": "NOTES/notes.sol:notas",
						"label": "professor",
						"offset": 0,
						"slot": "0",
						"type": "t_address"
					},
					{
						"astId": 17,
						"contract": "NOTES/notes.sol:notas",
						"label": "Notes",
						"offset": 0,
						"slot": "1",
						"type": "t_mapping(t_bytes32,t_uint256)"
					},
					{
						"astId": 20,
						"contract": "NOTES/notes.sol:notas",
						"label": "revisions",
						"offset": 0,
						"slot": "2",
						"type": "t_array(t_string_storage)dyn_storage"
					}
				],
				"types": {
					"t_address": {
						"encoding": "inplace",
						"label": "address",
						"numberOfBytes": "20"
					},
					"t_array(t_string_storage)dyn_storage": {
						"base": "t_string_storage",
						"encoding": "dynamic_array",
						"label": "string[]",
						"numberOfBytes": "32"
					},
					"t_bytes32": {
						"encoding": "inplace",
						"label": "bytes32",
						"numberOfBytes": "32"
					},
					"t_mapping(t_bytes32,t_uint256)": {
						"encoding": "mapping",
						"key": "t_bytes32",
						"label": "mapping(bytes32 => uint256)",
						"numberOfBytes": "32",
						"value": "t_uint256"
					},
					"t_string_storage": {
						"encoding": "bytes",
						"label": "string",
						"numberOfBytes": "32"
					},
					"t_uint256": {
						"encoding": "inplace",
						"label": "uint256",
						"numberOfBytes": "32"
					}
				}
			},
			"userdoc": {
				"kind": "user",
				"methods": {},
				"version": 1
			}
		}
	}
}