{
	"NOTES/notes.sol": {
		"notas": {
			"abi": [
				{
					"inputs": [],
					"stateMutability": "nonpayable",
					"type": "constructor"
				},
				{
					"anonymous": false,
					"inputs": [
						{
							"indexed": false,
							"internalType": "bytes32",
							"name": "",
							"type": "bytes32"
						},
						{
							"indexed": false,
							"internalType": "uint256",
							"name": "",
							"type": "uint256"
						}
					],
					"name": "evaluated_student",
					"type": "event"
				},
				{
					"anonymous": false,
					"inputs": [
						{
							"indexed": false,
							"internalType": "string",
							"name": "",
							"type": "string"
						}
					],
					"name": "revision",
					"type": "event"
				},
				{
					"inputs": [
						{
							"internalType": "string",
							"name": "_studentId",
							"type": "string"
						},
						{
							"internalType": "uint256",
							"name": "_note",
							"type": "uint256"
						}
					],
					"name": "evaluate",
					"outputs": [],
					"stateMutability": "nonpayable",
					"type": "function"
				},
				{
					"inputs": [],
					"name": "professor",
					"outputs": [
						{
							"internalType": "address",
							"name": "",
							"type": "address"
						}
					],
					"stateMutability": "view",
					"type": "function"
				},
				{
					"inputs": [
						{
							"internalType": "string",
							"name": "_studentId",
							"type": "string"
						}
					],
					"name": "seeNotes",
					"outputs": [
						{
							"internalType": "uint256",
							"name": "",
							"type": "uint256"
						}
					],
					"stateMutability": "view",
					"type": "function"
				}
			],
			"devdoc": {
				"kind": "dev",
				"methods": {},
				"version": 1
			},
			"evm": {
				"assembly": "    /* \"NOTES/notes.sol\":104:1725  contract notas {\r... */\n  mstore(0x40, 0x80)\n    /* \"NOTES/notes.sol\":221:284  constructor () public {\r... */\n  callvalue\n  dup1\n  iszero\n  tag_1\n  jumpi\n  0x00\n  dup1\n  revert\ntag_1:\n  pop\n    /* \"NOTES/notes.sol\":266:276  msg.sender */\n  caller\n    /* \"NOTES/notes.sol\":254:263  professor */\n  0x00\n  dup1\n    /* \"NOTES/notes.sol\":254:276  professor = msg.sender */\n  0x0100\n  exp\n  dup2\n  sload\n  dup2\n  0xffffffffffffffffffffffffffffffffffffffff\n  mul\n  not\n  and\n  swap1\n  dup4\n  0xffffffffffffffffffffffffffffffffffffffff\n  and\n  mul\n  or\n  swap1\n  sstore\n  pop\n    /* \"NOTES/notes.sol\":104:1725  contract notas {\r... */\n  dataSize(sub_0)\n  dup1\n  dataOffset(sub_0)\n  0x00\n  codecopy\n  0x00\n  return\nstop\n\nsub_0: assembly {\n        /* \"NOTES/notes.sol\":104:1725  contract notas {\r... */\n      mstore(0x40, 0x80)\n      callvalue\n      dup1\n      iszero\n      tag_1\n      jumpi\n      0x00\n      dup1\n      revert\n    tag_1:\n      pop\n      jumpi(tag_2, lt(calldatasize, 0x04))\n      shr(0xe0, calldataload(0x00))\n      dup1\n      0x5113940d\n      eq\n      tag_3\n      jumpi\n      dup1\n      0x7b81880c\n      eq\n      tag_4\n      jumpi\n      dup1\n      0xe199aaf7\n      eq\n      tag_5\n      jumpi\n    tag_2:\n      0x00\n      dup1\n      revert\n        /* \"NOTES/notes.sol\":163:187  address public professor */\n    tag_3:\n      tag_6\n      tag_7\n      jump\t// in\n    tag_6:\n      mload(0x40)\n      tag_8\n      swap2\n      swap1\n      tag_9\n      jump\t// in\n    tag_8:\n      mload(0x40)\n      dup1\n      swap2\n      sub\n      swap1\n      return\n        /* \"NOTES/notes.sol\":647:1074  function evaluate(string memory _studentId, uint _note) public professorUnique(msg.sender){\r... */\n    tag_4:\n      tag_10\n      0x04\n      dup1\n      calldatasize\n      sub\n      dup2\n      add\n      swap1\n      tag_11\n      swap2\n      swap1\n      tag_12\n      jump\t// in\n    tag_11:\n      tag_13\n      jump\t// in\n    tag_10:\n      stop\n        /* \"NOTES/notes.sol\":1422:1706  function seeNotes(string memory _studentId) public view returns(uint){\r... */\n    tag_5:\n      tag_14\n      0x04\n      dup1\n      calldatasize\n      sub\n      dup2\n      add\n      swap1\n      tag_15\n      swap2\n      swap1\n      tag_16\n      jump\t// in\n    tag_15:\n      tag_17\n      jump\t// in\n    tag_14:\n      mload(0x40)\n      tag_18\n      swap2\n      swap1\n      tag_19\n      jump\t// in\n    tag_18:\n      mload(0x40)\n      dup1\n      swap2\n      sub\n      swap1\n      return\n        /* \"NOTES/notes.sol\":163:187  address public professor */\n    tag_7:\n      0x00\n      dup1\n      sload\n      swap1\n      0x0100\n      exp\n      swap1\n      div\n      0xffffffffffffffffffffffffffffffffffffffff\n      and\n      dup2\n      jump\t// out\n        /* \"NOTES/notes.sol\":647:1074  function evaluate(string memory _studentId, uint _note) public professorUnique(msg.sender){\r... */\n    tag_13:\n        /* \"NOTES/notes.sol\":726:736  msg.sender */\n      caller\n        /* \"NOTES/notes.sol\":1281:1290  professor */\n      0x00\n      dup1\n      sload\n      swap1\n      0x0100\n      exp\n      swap1\n      div\n      0xffffffffffffffffffffffffffffffffffffffff\n      and\n        /* \"NOTES/notes.sol\":1260:1290  _professorAddress == professor */\n      0xffffffffffffffffffffffffffffffffffffffff\n      and\n        /* \"NOTES/notes.sol\":1260:1277  _professorAddress */\n      dup2\n        /* \"NOTES/notes.sol\":1260:1290  _professorAddress == professor */\n      0xffffffffffffffffffffffffffffffffffffffff\n      and\n      eq\n        /* \"NOTES/notes.sol\":1252:1341  require(_professorAddress == professor, \"No tienes permisos para ejecutar esta funcion.\") */\n      tag_21\n      jumpi\n      mload(0x40)\n      0x08c379a000000000000000000000000000000000000000000000000000000000\n      dup2\n      mstore\n      0x04\n      add\n      tag_22\n      swap1\n      tag_23\n      jump\t// in\n    tag_22:\n      mload(0x40)\n      dup1\n      swap2\n      sub\n      swap1\n      revert\n    tag_21:\n        /* \"NOTES/notes.sol\":798:820  bytes32 hash_studentId */\n      0x00\n        /* \"NOTES/notes.sol\":850:860  _studentId */\n      dup4\n        /* \"NOTES/notes.sol\":833:861  abi.encodePacked(_studentId) */\n      add(0x20, mload(0x40))\n      tag_25\n      swap2\n      swap1\n      tag_26\n      jump\t// in\n    tag_25:\n      mload(0x40)\n      0x20\n      dup2\n      dup4\n      sub\n      sub\n      dup2\n      mstore\n      swap1\n      0x40\n      mstore\n        /* \"NOTES/notes.sol\":823:862  keccak256(abi.encodePacked(_studentId)) */\n      dup1\n      mload\n      swap1\n      0x20\n      add\n      keccak256\n        /* \"NOTES/notes.sol\":798:862  bytes32 hash_studentId = keccak256(abi.encodePacked(_studentId)) */\n      swap1\n      pop\n        /* \"NOTES/notes.sol\":974:979  _note */\n      dup3\n        /* \"NOTES/notes.sol\":950:955  Notes */\n      0x01\n        /* \"NOTES/notes.sol\":950:971  Notes[hash_studentId] */\n      0x00\n        /* \"NOTES/notes.sol\":956:970  hash_studentId */\n      dup4\n        /* \"NOTES/notes.sol\":950:971  Notes[hash_studentId] */\n      dup2\n      mstore\n      0x20\n      add\n      swap1\n      dup2\n      mstore\n      0x20\n      add\n      0x00\n      keccak256\n        /* \"NOTES/notes.sol\":950:979  Notes[hash_studentId] = _note */\n      dup2\n      swap1\n      sstore\n      pop\n        /* \"NOTES/notes.sol\":1026:1066  evaluated_student(hash_studentId, _note) */\n      0xfd83de6de76bf6a6a9c1b8980aad7370b0d3759b63fc0d30ddb7f30839ce82b5\n        /* \"NOTES/notes.sol\":1044:1058  hash_studentId */\n      dup2\n        /* \"NOTES/notes.sol\":1060:1065  _note */\n      dup5\n        /* \"NOTES/notes.sol\":1026:1066  evaluated_student(hash_studentId, _note) */\n      mload(0x40)\n      tag_27\n      swap3\n      swap2\n      swap1\n      tag_28\n      jump\t// in\n    tag_27:\n      mload(0x40)\n      dup1\n      swap2\n      sub\n      swap1\n      log1\n        /* \"NOTES/notes.sol\":1352:1353  _ */\n      pop\n        /* \"NOTES/notes.sol\":647:1074  function evaluate(string memory _studentId, uint _note) public professorUnique(msg.sender){\r... */\n      pop\n      pop\n      pop\n      jump\t// out\n        /* \"NOTES/notes.sol\":1422:1706  function seeNotes(string memory _studentId) public view returns(uint){\r... */\n    tag_17:\n        /* \"NOTES/notes.sol\":1486:1490  uint */\n      0x00\n        /* \"NOTES/notes.sol\":1502:1524  bytes32 hash_studentId */\n      dup1\n        /* \"NOTES/notes.sol\":1554:1564  _studentId */\n      dup3\n        /* \"NOTES/notes.sol\":1537:1565  abi.encodePacked(_studentId) */\n      add(0x20, mload(0x40))\n      tag_30\n      swap2\n      swap1\n      tag_26\n      jump\t// in\n    tag_30:\n      mload(0x40)\n      0x20\n      dup2\n      dup4\n      sub\n      sub\n      dup2\n      mstore\n      swap1\n      0x40\n      mstore\n        /* \"NOTES/notes.sol\":1527:1566  keccak256(abi.encodePacked(_studentId)) */\n      dup1\n      mload\n      swap1\n      0x20\n      add\n      keccak256\n        /* \"NOTES/notes.sol\":1502:1566  bytes32 hash_studentId = keccak256(abi.encodePacked(_studentId)) */\n      swap1\n      pop\n        /* \"NOTES/notes.sol\":1627:1643  uint studentNote */\n      0x00\n        /* \"NOTES/notes.sol\":1646:1651  Notes */\n      0x01\n        /* \"NOTES/notes.sol\":1646:1667  Notes[hash_studentId] */\n      0x00\n        /* \"NOTES/notes.sol\":1652:1666  hash_studentId */\n      dup4\n        /* \"NOTES/notes.sol\":1646:1667  Notes[hash_studentId] */\n      dup2\n      mstore\n      0x20\n      add\n      swap1\n      dup2\n      mstore\n      0x20\n      add\n      0x00\n      keccak256\n      sload\n        /* \"NOTES/notes.sol\":1627:1667  uint studentNote = Notes[hash_studentId] */\n      swap1\n      pop\n        /* \"NOTES/notes.sol\":1687:1698  studentNote */\n      dup1\n        /* \"NOTES/notes.sol\":1680:1698  return studentNote */\n      swap3\n      pop\n      pop\n      pop\n        /* \"NOTES/notes.sol\":1422:1706  function seeNotes(string memory _studentId) public view returns(uint){\r... */\n      swap2\n      swap1\n      pop\n      jump\t// out\n        /* \"--CODEGEN--\":6:448   */\n    tag_32:\n      0x00\n        /* \"--CODEGEN--\":108:111   */\n      dup3\n        /* \"--CODEGEN--\":101:105   */\n      0x1f\n        /* \"--CODEGEN--\":93:99   */\n      dup4\n        /* \"--CODEGEN--\":89:106   */\n      add\n        /* \"--CODEGEN--\":85:112   */\n      slt\n        /* \"--CODEGEN--\":75:77   */\n      tag_34\n      jumpi\n        /* \"--CODEGEN--\":126:127   */\n      0x00\n        /* \"--CODEGEN--\":123:124   */\n      dup1\n        /* \"--CODEGEN--\":116:128   */\n      revert\n        /* \"--CODEGEN--\":75:77   */\n    tag_34:\n        /* \"--CODEGEN--\":163:169   */\n      dup2\n        /* \"--CODEGEN--\":150:170   */\n      calldataload\n        /* \"--CODEGEN--\":185:250   */\n      tag_35\n        /* \"--CODEGEN--\":200:249   */\n      tag_36\n        /* \"--CODEGEN--\":242:248   */\n      dup3\n        /* \"--CODEGEN--\":200:249   */\n      tag_37\n      jump\t// in\n    tag_36:\n        /* \"--CODEGEN--\":185:250   */\n      tag_38\n      jump\t// in\n    tag_35:\n        /* \"--CODEGEN--\":176:250   */\n      swap2\n      pop\n        /* \"--CODEGEN--\":270:276   */\n      dup1\n        /* \"--CODEGEN--\":263:268   */\n      dup3\n        /* \"--CODEGEN--\":256:277   */\n      mstore\n        /* \"--CODEGEN--\":306:310   */\n      0x20\n        /* \"--CODEGEN--\":298:304   */\n      dup4\n        /* \"--CODEGEN--\":294:311   */\n      add\n        /* \"--CODEGEN--\":339:343   */\n      0x20\n        /* \"--CODEGEN--\":332:337   */\n      dup4\n        /* \"--CODEGEN--\":328:344   */\n      add\n        /* \"--CODEGEN--\":374:377   */\n      dup6\n        /* \"--CODEGEN--\":365:371   */\n      dup4\n        /* \"--CODEGEN--\":360:363   */\n      dup4\n        /* \"--CODEGEN--\":356:372   */\n      add\n        /* \"--CODEGEN--\":353:378   */\n      gt\n        /* \"--CODEGEN--\":350:352   */\n      iszero\n      tag_39\n      jumpi\n        /* \"--CODEGEN--\":391:392   */\n      0x00\n        /* \"--CODEGEN--\":388:389   */\n      dup1\n        /* \"--CODEGEN--\":381:393   */\n      revert\n        /* \"--CODEGEN--\":350:352   */\n    tag_39:\n        /* \"--CODEGEN--\":401:442   */\n      tag_40\n        /* \"--CODEGEN--\":435:441   */\n      dup4\n        /* \"--CODEGEN--\":430:433   */\n      dup3\n        /* \"--CODEGEN--\":425:428   */\n      dup5\n        /* \"--CODEGEN--\":401:442   */\n      tag_41\n      jump\t// in\n    tag_40:\n        /* \"--CODEGEN--\":68:448   */\n      pop\n      pop\n      pop\n      swap3\n      swap2\n      pop\n      pop\n      jump\t// out\n        /* \"--CODEGEN--\":456:586   */\n    tag_42:\n      0x00\n        /* \"--CODEGEN--\":536:542   */\n      dup2\n        /* \"--CODEGEN--\":523:543   */\n      calldataload\n        /* \"--CODEGEN--\":514:543   */\n      swap1\n      pop\n        /* \"--CODEGEN--\":548:581   */\n      tag_44\n        /* \"--CODEGEN--\":575:580   */\n      dup2\n        /* \"--CODEGEN--\":548:581   */\n      tag_45\n      jump\t// in\n    tag_44:\n        /* \"--CODEGEN--\":508:586   */\n      swap3\n      swap2\n      pop\n      pop\n      jump\t// out\n        /* \"--CODEGEN--\":593:940   */\n    tag_16:\n      0x00\n        /* \"--CODEGEN--\":707:709   */\n      0x20\n        /* \"--CODEGEN--\":695:704   */\n      dup3\n        /* \"--CODEGEN--\":686:693   */\n      dup5\n        /* \"--CODEGEN--\":682:705   */\n      sub\n        /* \"--CODEGEN--\":678:710   */\n      slt\n        /* \"--CODEGEN--\":675:677   */\n      iszero\n      tag_47\n      jumpi\n        /* \"--CODEGEN--\":723:724   */\n      0x00\n        /* \"--CODEGEN--\":720:721   */\n      dup1\n        /* \"--CODEGEN--\":713:725   */\n      revert\n        /* \"--CODEGEN--\":675:677   */\n    tag_47:\n        /* \"--CODEGEN--\":786:787   */\n      0x00\n        /* \"--CODEGEN--\":775:784   */\n      dup3\n        /* \"--CODEGEN--\":771:788   */\n      add\n        /* \"--CODEGEN--\":758:789   */\n      calldataload\n        /* \"--CODEGEN--\":809:827   */\n      0xffffffffffffffff\n        /* \"--CODEGEN--\":801:807   */\n      dup2\n        /* \"--CODEGEN--\":798:828   */\n      gt\n        /* \"--CODEGEN--\":795:797   */\n      iszero\n      tag_48\n      jumpi\n        /* \"--CODEGEN--\":841:842   */\n      0x00\n        /* \"--CODEGEN--\":838:839   */\n      dup1\n        /* \"--CODEGEN--\":831:843   */\n      revert\n        /* \"--CODEGEN--\":795:797   */\n    tag_48:\n        /* \"--CODEGEN--\":861:924   */\n      tag_49\n        /* \"--CODEGEN--\":916:923   */\n      dup5\n        /* \"--CODEGEN--\":907:913   */\n      dup3\n        /* \"--CODEGEN--\":896:905   */\n      dup6\n        /* \"--CODEGEN--\":892:914   */\n      add\n        /* \"--CODEGEN--\":861:924   */\n      tag_32\n      jump\t// in\n    tag_49:\n        /* \"--CODEGEN--\":851:924   */\n      swap2\n      pop\n        /* \"--CODEGEN--\":737:930   */\n      pop\n        /* \"--CODEGEN--\":669:940   */\n      swap3\n      swap2\n      pop\n      pop\n      jump\t// out\n        /* \"--CODEGEN--\":947:1419   */\n    tag_12:\n      0x00\n      dup1\n        /* \"--CODEGEN--\":1078:1080   */\n      0x40\n        /* \"--CODEGEN--\":1066:1075   */\n      dup4\n        /* \"--CODEGEN--\":1057:1064   */\n      dup6\n        /* \"--CODEGEN--\":1053:1076   */\n      sub\n        /* \"--CODEGEN--\":1049:1081   */\n      slt\n        /* \"--CODEGEN--\":1046:1048   */\n      iszero\n      tag_51\n      jumpi\n        /* \"--CODEGEN--\":1094:1095   */\n      0x00\n        /* \"--CODEGEN--\":1091:1092   */\n      dup1\n        /* \"--CODEGEN--\":1084:1096   */\n      revert\n        /* \"--CODEGEN--\":1046:1048   */\n    tag_51:\n        /* \"--CODEGEN--\":1157:1158   */\n      0x00\n        /* \"--CODEGEN--\":1146:1155   */\n      dup4\n        /* \"--CODEGEN--\":1142:1159   */\n      add\n        /* \"--CODEGEN--\":1129:1160   */\n      calldataload\n        /* \"--CODEGEN--\":1180:1198   */\n      0xffffffffffffffff\n        /* \"--CODEGEN--\":1172:1178   */\n      dup2\n        /* \"--CODEGEN--\":1169:1199   */\n      gt\n        /* \"--CODEGEN--\":1166:1168   */\n      iszero\n      tag_52\n      jumpi\n        /* \"--CODEGEN--\":1212:1213   */\n      0x00\n        /* \"--CODEGEN--\":1209:1210   */\n      dup1\n        /* \"--CODEGEN--\":1202:1214   */\n      revert\n        /* \"--CODEGEN--\":1166:1168   */\n    tag_52:\n        /* \"--CODEGEN--\":1232:1295   */\n      tag_53\n        /* \"--CODEGEN--\":1287:1294   */\n      dup6\n        /* \"--CODEGEN--\":1278:1284   */\n      dup3\n        /* \"--CODEGEN--\":1267:1276   */\n      dup7\n        /* \"--CODEGEN--\":1263:1285   */\n      add\n        /* \"--CODEGEN--\":1232:1295   */\n      tag_32\n      jump\t// in\n    tag_53:\n        /* \"--CODEGEN--\":1222:1295   */\n      swap3\n      pop\n        /* \"--CODEGEN--\":1108:1301   */\n      pop\n        /* \"--CODEGEN--\":1332:1334   */\n      0x20\n        /* \"--CODEGEN--\":1350:1403   */\n      tag_54\n        /* \"--CODEGEN--\":1395:1402   */\n      dup6\n        /* \"--CODEGEN--\":1386:1392   */\n      dup3\n        /* \"--CODEGEN--\":1375:1384   */\n      dup7\n        /* \"--CODEGEN--\":1371:1393   */\n      add\n        /* \"--CODEGEN--\":1350:1403   */\n      tag_42\n      jump\t// in\n    tag_54:\n        /* \"--CODEGEN--\":1340:1403   */\n      swap2\n      pop\n        /* \"--CODEGEN--\":1311:1409   */\n      pop\n        /* \"--CODEGEN--\":1040:1419   */\n      swap3\n      pop\n      swap3\n      swap1\n      pop\n      jump\t// out\n        /* \"--CODEGEN--\":1426:1539   */\n    tag_55:\n        /* \"--CODEGEN--\":1509:1533   */\n      tag_57\n        /* \"--CODEGEN--\":1527:1532   */\n      dup2\n        /* \"--CODEGEN--\":1509:1533   */\n      tag_58\n      jump\t// in\n    tag_57:\n        /* \"--CODEGEN--\":1504:1507   */\n      dup3\n        /* \"--CODEGEN--\":1497:1534   */\n      mstore\n        /* \"--CODEGEN--\":1491:1539   */\n      pop\n      pop\n      jump\t// out\n        /* \"--CODEGEN--\":1546:1659   */\n    tag_59:\n        /* \"--CODEGEN--\":1629:1653   */\n      tag_61\n        /* \"--CODEGEN--\":1647:1652   */\n      dup2\n        /* \"--CODEGEN--\":1629:1653   */\n      tag_62\n      jump\t// in\n    tag_61:\n        /* \"--CODEGEN--\":1624:1627   */\n      dup3\n        /* \"--CODEGEN--\":1617:1654   */\n      mstore\n        /* \"--CODEGEN--\":1611:1659   */\n      pop\n      pop\n      jump\t// out\n        /* \"--CODEGEN--\":1666:2026   */\n    tag_63:\n      0x00\n        /* \"--CODEGEN--\":1796:1835   */\n      tag_65\n        /* \"--CODEGEN--\":1829:1834   */\n      dup3\n        /* \"--CODEGEN--\":1796:1835   */\n      tag_66\n      jump\t// in\n    tag_65:\n        /* \"--CODEGEN--\":1847:1936   */\n      tag_67\n        /* \"--CODEGEN--\":1929:1935   */\n      dup2\n        /* \"--CODEGEN--\":1924:1927   */\n      dup6\n        /* \"--CODEGEN--\":1847:1936   */\n      tag_68\n      jump\t// in\n    tag_67:\n        /* \"--CODEGEN--\":1840:1936   */\n      swap4\n      pop\n        /* \"--CODEGEN--\":1941:1993   */\n      tag_69\n        /* \"--CODEGEN--\":1986:1992   */\n      dup2\n        /* \"--CODEGEN--\":1981:1984   */\n      dup6\n        /* \"--CODEGEN--\":1974:1978   */\n      0x20\n        /* \"--CODEGEN--\":1967:1972   */\n      dup7\n        /* \"--CODEGEN--\":1963:1979   */\n      add\n        /* \"--CODEGEN--\":1941:1993   */\n      tag_70\n      jump\t// in\n    tag_69:\n        /* \"--CODEGEN--\":2014:2020   */\n      dup1\n        /* \"--CODEGEN--\":2009:2012   */\n      dup5\n        /* \"--CODEGEN--\":2005:2021   */\n      add\n        /* \"--CODEGEN--\":1998:2021   */\n      swap2\n      pop\n        /* \"--CODEGEN--\":1776:2026   */\n      pop\n      swap3\n      swap2\n      pop\n      pop\n      jump\t// out\n        /* \"--CODEGEN--\":2034:2417   */\n    tag_71:\n      0x00\n        /* \"--CODEGEN--\":2194:2261   */\n      tag_73\n        /* \"--CODEGEN--\":2258:2260   */\n      0x2e\n        /* \"--CODEGEN--\":2253:2256   */\n      dup4\n        /* \"--CODEGEN--\":2194:2261   */\n      tag_74\n      jump\t// in\n    tag_73:\n        /* \"--CODEGEN--\":2187:2261   */\n      swap2\n      pop\n        /* \"--CODEGEN--\":2294:2328   */\n      0x4e6f207469656e6573207065726d69736f73207061726120656a656375746172\n        /* \"--CODEGEN--\":2290:2291   */\n      0x00\n        /* \"--CODEGEN--\":2285:2288   */\n      dup4\n        /* \"--CODEGEN--\":2281:2292   */\n      add\n        /* \"--CODEGEN--\":2274:2329   */\n      mstore\n        /* \"--CODEGEN--\":2363:2379   */\n      0x20657374612066756e63696f6e2e000000000000000000000000000000000000\n        /* \"--CODEGEN--\":2358:2360   */\n      0x20\n        /* \"--CODEGEN--\":2353:2356   */\n      dup4\n        /* \"--CODEGEN--\":2349:2361   */\n      add\n        /* \"--CODEGEN--\":2342:2380   */\n      mstore\n        /* \"--CODEGEN--\":2408:2410   */\n      0x40\n        /* \"--CODEGEN--\":2403:2406   */\n      dup3\n        /* \"--CODEGEN--\":2399:2411   */\n      add\n        /* \"--CODEGEN--\":2392:2411   */\n      swap1\n      pop\n        /* \"--CODEGEN--\":2180:2417   */\n      swap2\n      swap1\n      pop\n      jump\t// out\n        /* \"--CODEGEN--\":2425:2538   */\n    tag_75:\n        /* \"--CODEGEN--\":2508:2532   */\n      tag_77\n        /* \"--CODEGEN--\":2526:2531   */\n      dup2\n        /* \"--CODEGEN--\":2508:2532   */\n      tag_78\n      jump\t// in\n    tag_77:\n        /* \"--CODEGEN--\":2503:2506   */\n      dup3\n        /* \"--CODEGEN--\":2496:2533   */\n      mstore\n        /* \"--CODEGEN--\":2490:2538   */\n      pop\n      pop\n      jump\t// out\n        /* \"--CODEGEN--\":2545:2820   */\n    tag_26:\n      0x00\n        /* \"--CODEGEN--\":2700:2795   */\n      tag_80\n        /* \"--CODEGEN--\":2791:2794   */\n      dup3\n        /* \"--CODEGEN--\":2782:2788   */\n      dup5\n        /* \"--CODEGEN--\":2700:2795   */\n      tag_63\n      jump\t// in\n    tag_80:\n        /* \"--CODEGEN--\":2693:2795   */\n      swap2\n      pop\n        /* \"--CODEGEN--\":2812:2815   */\n      dup2\n        /* \"--CODEGEN--\":2805:2815   */\n      swap1\n      pop\n        /* \"--CODEGEN--\":2681:2820   */\n      swap3\n      swap2\n      pop\n      pop\n      jump\t// out\n        /* \"--CODEGEN--\":2827:3049   */\n    tag_9:\n      0x00\n        /* \"--CODEGEN--\":2954:2956   */\n      0x20\n        /* \"--CODEGEN--\":2943:2952   */\n      dup3\n        /* \"--CODEGEN--\":2939:2957   */\n      add\n        /* \"--CODEGEN--\":2931:2957   */\n      swap1\n      pop\n        /* \"--CODEGEN--\":2968:3039   */\n      tag_82\n        /* \"--CODEGEN--\":3036:3037   */\n      0x00\n        /* \"--CODEGEN--\":3025:3034   */\n      dup4\n        /* \"--CODEGEN--\":3021:3038   */\n      add\n        /* \"--CODEGEN--\":3012:3018   */\n      dup5\n        /* \"--CODEGEN--\":2968:3039   */\n      tag_55\n      jump\t// in\n    tag_82:\n        /* \"--CODEGEN--\":2925:3049   */\n      swap3\n      swap2\n      pop\n      pop\n      jump\t// out\n        /* \"--CODEGEN--\":3056:3389   */\n    tag_28:\n      0x00\n        /* \"--CODEGEN--\":3211:3213   */\n      0x40\n        /* \"--CODEGEN--\":3200:3209   */\n      dup3\n        /* \"--CODEGEN--\":3196:3214   */\n      add\n        /* \"--CODEGEN--\":3188:3214   */\n      swap1\n      pop\n        /* \"--CODEGEN--\":3225:3296   */\n      tag_84\n        /* \"--CODEGEN--\":3293:3294   */\n      0x00\n        /* \"--CODEGEN--\":3282:3291   */\n      dup4\n        /* \"--CODEGEN--\":3278:3295   */\n      add\n        /* \"--CODEGEN--\":3269:3275   */\n      dup6\n        /* \"--CODEGEN--\":3225:3296   */\n      tag_59\n      jump\t// in\n    tag_84:\n        /* \"--CODEGEN--\":3307:3379   */\n      tag_85\n        /* \"--CODEGEN--\":3375:3377   */\n      0x20\n        /* \"--CODEGEN--\":3364:3373   */\n      dup4\n        /* \"--CODEGEN--\":3360:3378   */\n      add\n        /* \"--CODEGEN--\":3351:3357   */\n      dup5\n        /* \"--CODEGEN--\":3307:3379   */\n      tag_75\n      jump\t// in\n    tag_85:\n        /* \"--CODEGEN--\":3182:3389   */\n      swap4\n      swap3\n      pop\n      pop\n      pop\n      jump\t// out\n        /* \"--CODEGEN--\":3396:3812   */\n    tag_23:\n      0x00\n        /* \"--CODEGEN--\":3596:3598   */\n      0x20\n        /* \"--CODEGEN--\":3585:3594   */\n      dup3\n        /* \"--CODEGEN--\":3581:3599   */\n      add\n        /* \"--CODEGEN--\":3573:3599   */\n      swap1\n      pop\n        /* \"--CODEGEN--\":3646:3655   */\n      dup2\n        /* \"--CODEGEN--\":3640:3644   */\n      dup2\n        /* \"--CODEGEN--\":3636:3656   */\n      sub\n        /* \"--CODEGEN--\":3632:3633   */\n      0x00\n        /* \"--CODEGEN--\":3621:3630   */\n      dup4\n        /* \"--CODEGEN--\":3617:3634   */\n      add\n        /* \"--CODEGEN--\":3610:3657   */\n      mstore\n        /* \"--CODEGEN--\":3671:3802   */\n      tag_87\n        /* \"--CODEGEN--\":3797:3801   */\n      dup2\n        /* \"--CODEGEN--\":3671:3802   */\n      tag_71\n      jump\t// in\n    tag_87:\n        /* \"--CODEGEN--\":3663:3802   */\n      swap1\n      pop\n        /* \"--CODEGEN--\":3567:3812   */\n      swap2\n      swap1\n      pop\n      jump\t// out\n        /* \"--CODEGEN--\":3819:4041   */\n    tag_19:\n      0x00\n        /* \"--CODEGEN--\":3946:3948   */\n      0x20\n        /* \"--CODEGEN--\":3935:3944   */\n      dup3\n        /* \"--CODEGEN--\":3931:3949   */\n      add\n        /* \"--CODEGEN--\":3923:3949   */\n      swap1\n      pop\n        /* \"--CODEGEN--\":3960:4031   */\n      tag_89\n        /* \"--CODEGEN--\":4028:4029   */\n      0x00\n        /* \"--CODEGEN--\":4017:4026   */\n      dup4\n        /* \"--CODEGEN--\":4013:4030   */\n      add\n        /* \"--CODEGEN--\":4004:4010   */\n      dup5\n        /* \"--CODEGEN--\":3960:4031   */\n      tag_75\n      jump\t// in\n    tag_89:\n        /* \"--CODEGEN--\":3917:4041   */\n      swap3\n      swap2\n      pop\n      pop\n      jump\t// out\n        /* \"--CODEGEN--\":4048:4304   */\n    tag_38:\n      0x00\n        /* \"--CODEGEN--\":4110:4112   */\n      0x40\n        /* \"--CODEGEN--\":4104:4113   */\n      mload\n        /* \"--CODEGEN--\":4094:4113   */\n      swap1\n      pop\n        /* \"--CODEGEN--\":4148:4152   */\n      dup2\n        /* \"--CODEGEN--\":4140:4146   */\n      dup2\n        /* \"--CODEGEN--\":4136:4153   */\n      add\n        /* \"--CODEGEN--\":4247:4253   */\n      dup2\n        /* \"--CODEGEN--\":4235:4245   */\n      dup2\n        /* \"--CODEGEN--\":4232:4254   */\n      lt\n        /* \"--CODEGEN--\":4211:4229   */\n      0xffffffffffffffff\n        /* \"--CODEGEN--\":4199:4209   */\n      dup3\n        /* \"--CODEGEN--\":4196:4230   */\n      gt\n        /* \"--CODEGEN--\":4193:4255   */\n      or\n        /* \"--CODEGEN--\":4190:4192   */\n      iszero\n      tag_91\n      jumpi\n        /* \"--CODEGEN--\":4268:4269   */\n      0x00\n        /* \"--CODEGEN--\":4265:4266   */\n      dup1\n        /* \"--CODEGEN--\":4258:4270   */\n      revert\n        /* \"--CODEGEN--\":4190:4192   */\n    tag_91:\n        /* \"--CODEGEN--\":4288:4298   */\n      dup1\n        /* \"--CODEGEN--\":4284:4286   */\n      0x40\n        /* \"--CODEGEN--\":4277:4299   */\n      mstore\n        /* \"--CODEGEN--\":4088:4304   */\n      pop\n      swap2\n      swap1\n      pop\n      jump\t// out\n        /* \"--CODEGEN--\":4311:4633   */\n    tag_37:\n      0x00\n        /* \"--CODEGEN--\":4455:4473   */\n      0xffffffffffffffff\n        /* \"--CODEGEN--\":4447:4453   */\n      dup3\n        /* \"--CODEGEN--\":4444:4474   */\n      gt\n        /* \"--CODEGEN--\":4441:4443   */\n      iszero\n      tag_93\n      jumpi\n        /* \"--CODEGEN--\":4487:4488   */\n      0x00\n        /* \"--CODEGEN--\":4484:4485   */\n      dup1\n        /* \"--CODEGEN--\":4477:4489   */\n      revert\n        /* \"--CODEGEN--\":4441:4443   */\n    tag_93:\n        /* \"--CODEGEN--\":4554:4558   */\n      0x1f\n        /* \"--CODEGEN--\":4550:4559   */\n      not\n        /* \"--CODEGEN--\":4543:4547   */\n      0x1f\n        /* \"--CODEGEN--\":4535:4541   */\n      dup4\n        /* \"--CODEGEN--\":4531:4548   */\n      add\n        /* \"--CODEGEN--\":4527:4560   */\n      and\n        /* \"--CODEGEN--\":4519:4560   */\n      swap1\n      pop\n        /* \"--CODEGEN--\":4618:4622   */\n      0x20\n        /* \"--CODEGEN--\":4612:4616   */\n      dup2\n        /* \"--CODEGEN--\":4608:4623   */\n      add\n        /* \"--CODEGEN--\":4600:4623   */\n      swap1\n      pop\n        /* \"--CODEGEN--\":4378:4633   */\n      swap2\n      swap1\n      pop\n      jump\t// out\n        /* \"--CODEGEN--\":4640:4762   */\n    tag_66:\n      0x00\n        /* \"--CODEGEN--\":4734:4739   */\n      dup2\n        /* \"--CODEGEN--\":4728:4740   */\n      mload\n        /* \"--CODEGEN--\":4718:4740   */\n      swap1\n      pop\n        /* \"--CODEGEN--\":4699:4762   */\n      swap2\n      swap1\n      pop\n      jump\t// out\n        /* \"--CODEGEN--\":4770:4933   */\n    tag_74:\n      0x00\n        /* \"--CODEGEN--\":4885:4891   */\n      dup3\n        /* \"--CODEGEN--\":4880:4883   */\n      dup3\n        /* \"--CODEGEN--\":4873:4892   */\n      mstore\n        /* \"--CODEGEN--\":4922:4926   */\n      0x20\n        /* \"--CODEGEN--\":4917:4920   */\n      dup3\n        /* \"--CODEGEN--\":4913:4927   */\n      add\n        /* \"--CODEGEN--\":4898:4927   */\n      swap1\n      pop\n        /* \"--CODEGEN--\":4866:4933   */\n      swap3\n      swap2\n      pop\n      pop\n      jump\t// out\n        /* \"--CODEGEN--\":4942:5087   */\n    tag_68:\n      0x00\n        /* \"--CODEGEN--\":5078:5081   */\n      dup2\n        /* \"--CODEGEN--\":5063:5081   */\n      swap1\n      pop\n        /* \"--CODEGEN--\":5056:5087   */\n      swap3\n      swap2\n      pop\n      pop\n      jump\t// out\n        /* \"--CODEGEN--\":5095:5186   */\n    tag_58:\n      0x00\n        /* \"--CODEGEN--\":5157:5181   */\n      tag_98\n        /* \"--CODEGEN--\":5175:5180   */\n      dup3\n        /* \"--CODEGEN--\":5157:5181   */\n      tag_99\n      jump\t// in\n    tag_98:\n        /* \"--CODEGEN--\":5146:5181   */\n      swap1\n      pop\n        /* \"--CODEGEN--\":5140:5186   */\n      swap2\n      swap1\n      pop\n      jump\t// out\n        /* \"--CODEGEN--\":5193:5265   */\n    tag_62:\n      0x00\n        /* \"--CODEGEN--\":5255:5260   */\n      dup2\n        /* \"--CODEGEN--\":5244:5260   */\n      swap1\n      pop\n        /* \"--CODEGEN--\":5238:5265   */\n      swap2\n      swap1\n      pop\n      jump\t// out\n        /* \"--CODEGEN--\":5272:5393   */\n    tag_99:\n      0x00\n        /* \"--CODEGEN--\":5345:5387   */\n      0xffffffffffffffffffffffffffffffffffffffff\n        /* \"--CODEGEN--\":5338:5343   */\n      dup3\n        /* \"--CODEGEN--\":5334:5388   */\n      and\n        /* \"--CODEGEN--\":5323:5388   */\n      swap1\n      pop\n        /* \"--CODEGEN--\":5317:5393   */\n      swap2\n      swap1\n      pop\n      jump\t// out\n        /* \"--CODEGEN--\":5400:5472   */\n    tag_78:\n      0x00\n        /* \"--CODEGEN--\":5462:5467   */\n      dup2\n        /* \"--CODEGEN--\":5451:5467   */\n      swap1\n      pop\n        /* \"--CODEGEN--\":5445:5472   */\n      swap2\n      swap1\n      pop\n      jump\t// out\n        /* \"--CODEGEN--\":5480:5625   */\n    tag_41:\n        /* \"--CODEGEN--\":5561:5567   */\n      dup3\n        /* \"--CODEGEN--\":5556:5559   */\n      dup2\n        /* \"--CODEGEN--\":5551:5554   */\n      dup4\n        /* \"--CODEGEN--\":5538:5568   */\n      calldatacopy\n        /* \"--CODEGEN--\":5617:5618   */\n      0x00\n        /* \"--CODEGEN--\":5608:5614   */\n      dup4\n        /* \"--CODEGEN--\":5603:5606   */\n      dup4\n        /* \"--CODEGEN--\":5599:5615   */\n      add\n        /* \"--CODEGEN--\":5592:5619   */\n      mstore\n        /* \"--CODEGEN--\":5531:5625   */\n      pop\n      pop\n      pop\n      jump\t// out\n        /* \"--CODEGEN--\":5634:5902   */\n    tag_70:\n        /* \"--CODEGEN--\":5699:5700   */\n      0x00\n        /* \"--CODEGEN--\":5706:5807   */\n    tag_105:\n        /* \"--CODEGEN--\":5720:5726   */\n      dup4\n        /* \"--CODEGEN--\":5717:5718   */\n      dup2\n        /* \"--CODEGEN--\":5714:5727   */\n      lt\n        /* \"--CODEGEN--\":5706:5807   */\n      iszero\n      tag_107\n      jumpi\n        /* \"--CODEGEN--\":5796:5797   */\n      dup1\n        /* \"--CODEGEN--\":5791:5794   */\n      dup3\n        /* \"--CODEGEN--\":5787:5798   */\n      add\n        /* \"--CODEGEN--\":5781:5799   */\n      mload\n        /* \"--CODEGEN--\":5777:5778   */\n      dup2\n        /* \"--CODEGEN--\":5772:5775   */\n      dup5\n        /* \"--CODEGEN--\":5768:5779   */\n      add\n        /* \"--CODEGEN--\":5761:5800   */\n      mstore\n        /* \"--CODEGEN--\":5742:5744   */\n      0x20\n        /* \"--CODEGEN--\":5739:5740   */\n      dup2\n        /* \"--CODEGEN--\":5735:5745   */\n      add\n        /* \"--CODEGEN--\":5730:5745   */\n      swap1\n      pop\n        /* \"--CODEGEN--\":5706:5807   */\n      jump(tag_105)\n    tag_107:\n        /* \"--CODEGEN--\":5822:5828   */\n      dup4\n        /* \"--CODEGEN--\":5819:5820   */\n      dup2\n        /* \"--CODEGEN--\":5816:5829   */\n      gt\n        /* \"--CODEGEN--\":5813:5815   */\n      iszero\n      tag_108\n      jumpi\n        /* \"--CODEGEN--\":5887:5888   */\n      0x00\n        /* \"--CODEGEN--\":5878:5884   */\n      dup5\n        /* \"--CODEGEN--\":5873:5876   */\n      dup5\n        /* \"--CODEGEN--\":5869:5885   */\n      add\n        /* \"--CODEGEN--\":5862:5889   */\n      mstore\n        /* \"--CODEGEN--\":5813:5815   */\n    tag_108:\n        /* \"--CODEGEN--\":5683:5902   */\n      pop\n      pop\n      pop\n      pop\n      jump\t// out\n        /* \"--CODEGEN--\":5910:6027   */\n    tag_45:\n        /* \"--CODEGEN--\":5979:6003   */\n      tag_110\n        /* \"--CODEGEN--\":5997:6002   */\n      dup2\n        /* \"--CODEGEN--\":5979:6003   */\n      tag_78\n      jump\t// in\n    tag_110:\n        /* \"--CODEGEN--\":5972:5977   */\n      dup2\n        /* \"--CODEGEN--\":5969:6004   */\n      eq\n        /* \"--CODEGEN--\":5959:5961   */\n      tag_111\n      jumpi\n        /* \"--CODEGEN--\":6018:6019   */\n      0x00\n        /* \"--CODEGEN--\":6015:6016   */\n      dup1\n        /* \"--CODEGEN--\":6008:6020   */\n      revert\n        /* \"--CODEGEN--\":5959:5961   */\n    tag_111:\n        /* \"--CODEGEN--\":5953:6027   */\n      pop\n      jump\t// out\n\n    auxdata: 0xa264697066735822122095af75605a9260002bc6b7c0b61f2136c3a05a217f6a48691a6de3cd4d51d62364736f6c634300060c0033\n}\n",
				"bytecode": {
					"linkReferences": {},
					"object": "608060405234801561001057600080fd5b50336000806101000a81548173ffffffffffffffffffffffffffffffffffffffff021916908373ffffffffffffffffffffffffffffffffffffffff1602179055506105e0806100606000396000f3fe608060405234801561001057600080fd5b50600436106100415760003560e01c80635113940d146100465780637b81880c14610064578063e199aaf714610080575b600080fd5b61004e6100b0565b60405161005b919061040c565b60405180910390f35b61007e600480360381019061007991906102dd565b6100d4565b005b61009a6004803603810190610095919061029c565b6101e5565b6040516100a79190610470565b60405180910390f35b60008054906101000a900473ffffffffffffffffffffffffffffffffffffffff1681565b3360008054906101000a900473ffffffffffffffffffffffffffffffffffffffff1673ffffffffffffffffffffffffffffffffffffffff168173ffffffffffffffffffffffffffffffffffffffff1614610163576040517f08c379a000000000000000000000000000000000000000000000000000000000815260040161015a90610450565b60405180910390fd5b60008360405160200161017691906103f5565b6040516020818303038152906040528051906020012090508260016000838152602001908152602001600020819055507ffd83de6de76bf6a6a9c1b8980aad7370b0d3759b63fc0d30ddb7f30839ce82b581846040516101d7929190610427565b60405180910390a150505050565b600080826040516020016101f991906103f5565b6040516020818303038152906040528051906020012090506000600160008381526020019081526020016000205490508092505050919050565b600082601f83011261024457600080fd5b8135610257610252826104b8565b61048b565b9150808252602083016020830185838301111561027357600080fd5b61027e838284610551565b50505092915050565b60008135905061029681610593565b92915050565b6000602082840312156102ae57600080fd5b600082013567ffffffffffffffff8111156102c857600080fd5b6102d484828501610233565b91505092915050565b600080604083850312156102f057600080fd5b600083013567ffffffffffffffff81111561030a57600080fd5b61031685828601610233565b925050602061032785828601610287565b9150509250929050565b61033a8161050b565b82525050565b6103498161051d565b82525050565b600061035a826104e4565b6103648185610500565b9350610374818560208601610560565b80840191505092915050565b600061038d602e836104ef565b91507f4e6f207469656e6573207065726d69736f73207061726120656a65637574617260008301527f20657374612066756e63696f6e2e0000000000000000000000000000000000006020830152604082019050919050565b6103ef81610547565b82525050565b6000610401828461034f565b915081905092915050565b60006020820190506104216000830184610331565b92915050565b600060408201905061043c6000830185610340565b61044960208301846103e6565b9392505050565b6000602082019050818103600083015261046981610380565b9050919050565b600060208201905061048560008301846103e6565b92915050565b6000604051905081810181811067ffffffffffffffff821117156104ae57600080fd5b8060405250919050565b600067ffffffffffffffff8211156104cf57600080fd5b601f19601f8301169050602081019050919050565b600081519050919050565b600082825260208201905092915050565b600081905092915050565b600061051682610527565b9050919050565b6000819050919050565b600073ffffffffffffffffffffffffffffffffffffffff82169050919050565b6000819050919050565b82818337600083830152505050565b60005b8381101561057e578082015181840152602081019050610563565b8381111561058d576000848401525b50505050565b61059c81610547565b81146105a757600080fd5b5056fea264697066735822122095af75605a9260002bc6b7c0b61f2136c3a05a217f6a48691a6de3cd4d51d62364736f6c634300060c0033",
					"opcodes": "PUSH1 0x80 PUSH1 0x40 MSTORE CALLVALUE DUP1 ISZERO PUSH2 0x10 JUMPI PUSH1 0x0 DUP1 REVERT JUMPDEST POP CALLER PUSH1 0x0 DUP1 PUSH2 0x100 EXP DUP2 SLOAD DUP2 PUSH20 0xFFFFFFFFFFFFFFFFFFFFFFFFFFFFFFFFFFFFFFFF MUL NOT AND SWAP1 DUP4 PUSH20 0xFFFFFFFFFFFFFFFFFFFFFFFFFFFFFFFFFFFFFFFF AND MUL OR SWAP1 SSTORE POP PUSH2 0x5E0 DUP1 PUSH2 0x60 PUSH1 0x0 CODECOPY PUSH1 0x0 RETURN INVALID PUSH1 0x80 PUSH1 0x40 MSTORE CALLVALUE DUP1 ISZERO PUSH2 0x10 JUMPI PUSH1 0x0 DUP1 REVERT JUMPDEST POP PUSH1 0x4 CALLDATASIZE LT PUSH2 0x41 JUMPI PUSH1 0x0 CALLDATALOAD PUSH1 0xE0 SHR DUP1 PUSH4 0x5113940D EQ PUSH2 0x46 JUMPI DUP1 PUSH4 0x7B81880C EQ PUSH2 0x64 JUMPI DUP1 PUSH4 0xE199AAF7 EQ PUSH2 0x80 JUMPI JUMPDEST PUSH1 0x0 DUP1 REVERT JUMPDEST PUSH2 0x4E PUSH2 0xB0 JUMP JUMPDEST PUSH1 0x40 MLOAD PUSH2 0x5B SWAP2 SWAP1 PUSH2 0x40C JUMP JUMPDEST PUSH1 0x40 MLOAD DUP1 SWAP2 SUB SWAP1 RETURN JUMPDEST PUSH2 0x7E PUSH1 0x4 DUP1 CALLDATASIZE SUB DUP2 ADD SWAP1 PUSH2 0x79 SWAP2 SWAP1 PUSH2 0x2DD JUMP JUMPDEST PUSH2 0xD4 JUMP JUMPDEST STOP JUMPDEST PUSH2 0x9A PUSH1 0x4 DUP1 CALLDATASIZE SUB DUP2 ADD SWAP1 PUSH2 0x95 SWAP2 SWAP1 PUSH2 0x29C JUMP JUMPDEST PUSH2 0x1E5 JUMP JUMPDEST PUSH1 0x40 MLOAD PUSH2 0xA7 SWAP2 SWAP1 PUSH2 0x470 JUMP JUMPDEST PUSH1 0x40 MLOAD DUP1 SWAP2 SUB SWAP1 RETURN JUMPDEST PUSH1 0x0 DUP1 SLOAD SWAP1 PUSH2 0x100 EXP SWAP1 DIV PUSH20 0xFFFFFFFFFFFFFFFFFFFFFFFFFFFFFFFFFFFFFFFF AND DUP2 JUMP JUMPDEST CALLER PUSH1 0x0 DUP1 SLOAD SWAP1 PUSH2 0x100 EXP SWAP1 DIV PUSH20 0xFFFFFFFFFFFFFFFFFFFFFFFFFFFFFFFFFFFFFFFF AND PUSH20 0xFFFFFFFFFFFFFFFFFFFFFFFFFFFFFFFFFFFFFFFF AND DUP2 PUSH20 0xFFFFFFFFFFFFFFFFFFFFFFFFFFFFFFFFFFFFFFFF AND EQ PUSH2 0x163 JUMPI PUSH1 0x40 MLOAD PUSH32 0x8C379A000000000000000000000000000000000000000000000000000000000 DUP2 MSTORE PUSH1 0x4 ADD PUSH2 0x15A SWAP1 PUSH2 0x450 JUMP JUMPDEST PUSH1 0x40 MLOAD DUP1 SWAP2 SUB SWAP1 REVERT JUMPDEST PUSH1 0x0 DUP4 PUSH1 0x40 MLOAD PUSH1 0x20 ADD PUSH2 0x176 SWAP2 SWAP1 PUSH2 0x3F5 JUMP JUMPDEST PUSH1 0x40 MLOAD PUSH1 0x20 DUP2 DUP4 SUB SUB DUP2 MSTORE SWAP1 PUSH1 0x40 MSTORE DUP1 MLOAD SWAP1 PUSH1 0x20 ADD KECCAK256 SWAP1 POP DUP3 PUSH1 0x1 PUSH1 0x0 DUP4 DUP2 MSTORE PUSH1 0x20 ADD SWAP1 DUP2 MSTORE PUSH1 0x20 ADD PUSH1 0x0 KECCAK256 DUP2 SWAP1 SSTORE POP PUSH32 0xFD83DE6DE76BF6A6A9C1B8980AAD7370B0D3759B63FC0D30DDB7F30839CE82B5 DUP2 DUP5 PUSH1 0x40 MLOAD PUSH2 0x1D7 SWAP3 SWAP2 SWAP1 PUSH2 0x427 JUMP JUMPDEST PUSH1 0x40 MLOAD DUP1 SWAP2 SUB SWAP1 LOG1 POP POP POP POP JUMP JUMPDEST PUSH1 0x0 DUP1 DUP3 PUSH1 0x40 MLOAD PUSH1 0x20 ADD PUSH2 0x1F9 SWAP2 SWAP1 PUSH2 0x3F5 JUMP JUMPDEST PUSH1 0x40 MLOAD PUSH1 0x20 DUP2 DUP4 SUB SUB DUP2 MSTORE SWAP1 PUSH1 0x40 MSTORE DUP1 MLOAD SWAP1 PUSH1 0x20 ADD KECCAK256 SWAP1 POP PUSH1 0x0 PUSH1 0x1 PUSH1 0x0 DUP4 DUP2 MSTORE PUSH1 0x20 ADD SWAP1 DUP2 MSTORE PUSH1 0x20 ADD PUSH1 0x0 KECCAK256 SLOAD SWAP1 POP DUP1 SWAP3 POP POP POP SWAP2 SWAP1 POP JUMP JUMPDEST PUSH1 0x0 DUP3 PUSH1 0x1F DUP4 ADD SLT PUSH2 0x244 JUMPI PUSH1 0x0 DUP1 REVERT JUMPDEST DUP2 CALLDATALOAD PUSH2 0x257 PUSH2 0x252 DUP3 PUSH2 0x4B8 JUMP JUMPDEST PUSH2 0x48B JUMP JUMPDEST SWAP2 POP DUP1 DUP3 MSTORE PUSH1 0x20 DUP4 ADD PUSH1 0x20 DUP4 ADD DUP6 DUP4 DUP4 ADD GT ISZERO PUSH2 0x273 JUMPI PUSH1 0x0 DUP1 REVERT JUMPDEST PUSH2 0x27E DUP4 DUP3 DUP5 PUSH2 0x551 JUMP JUMPDEST POP POP POP SWAP3 SWAP2 POP POP JUMP JUMPDEST PUSH1 0x0 DUP2 CALLDATALOAD SWAP1 POP PUSH2 0x296 DUP2 PUSH2 0x593 JUMP JUMPDEST SWAP3 SWAP2 POP POP JUMP JUMPDEST PUSH1 0x0 PUSH1 0x20 DUP3 DUP5 SUB SLT ISZERO PUSH2 0x2AE JUMPI PUSH1 0x0 DUP1 REVERT JUMPDEST PUSH1 0x0 DUP3 ADD CALLDATALOAD PUSH8 0xFFFFFFFFFFFFFFFF DUP2 GT ISZERO PUSH2 0x2C8 JUMPI PUSH1 0x0 DUP1 REVERT JUMPDEST PUSH2 0x2D4 DUP5 DUP3 DUP6 ADD PUSH2 0x233 JUMP JUMPDEST SWAP2 POP POP SWAP3 SWAP2 POP POP JUMP JUMPDEST PUSH1 0x0 DUP1 PUSH1 0x40 DUP4 DUP6 SUB SLT ISZERO PUSH2 0x2F0 JUMPI PUSH1 0x0 DUP1 REVERT JUMPDEST PUSH1 0x0 DUP4 ADD CALLDATALOAD PUSH8 0xFFFFFFFFFFFFFFFF DUP2 GT ISZERO PUSH2 0x30A JUMPI PUSH1 0x0 DUP1 REVERT JUMPDEST PUSH2 0x316 DUP6 DUP3 DUP7 ADD PUSH2 0x233 JUMP JUMPDEST SWAP3 POP POP PUSH1 0x20 PUSH2 0x327 DUP6 DUP3 DUP7 ADD PUSH2 0x287 JUMP JUMPDEST SWAP2 POP POP SWAP3 POP SWAP3 SWAP1 POP JUMP JUMPDEST PUSH2 0x33A DUP2 PUSH2 0x50B JUMP JUMPDEST DUP3 MSTORE POP POP JUMP JUMPDEST PUSH2 0x349 DUP2 PUSH2 0x51D JUMP JUMPDEST DUP3 MSTORE POP POP JUMP JUMPDEST PUSH1 0x0 PUSH2 0x35A DUP3 PUSH2 0x4E4 JUMP JUMPDEST PUSH2 0x364 DUP2 DUP6 PUSH2 0x500 JUMP JUMPDEST SWAP4 POP PUSH2 0x374 DUP2 DUP6 PUSH1 0x20 DUP7 ADD PUSH2 0x560 JUMP JUMPDEST DUP1 DUP5 ADD SWAP2 POP POP SWAP3 SWAP2 POP POP JUMP JUMPDEST PUSH1 0x0 PUSH2 0x38D PUSH1 0x2E DUP4 PUSH2 0x4EF JUMP JUMPDEST SWAP2 POP PUSH32 0x4E6F207469656E6573207065726D69736F73207061726120656A656375746172 PUSH1 0x0 DUP4 ADD MSTORE PUSH32 0x20657374612066756E63696F6E2E000000000000000000000000000000000000 PUSH1 0x20 DUP4 ADD MSTORE PUSH1 0x40 DUP3 ADD SWAP1 POP SWAP2 SWAP1 POP JUMP JUMPDEST PUSH2 0x3EF DUP2 PUSH2 0x547 JUMP JUMPDEST DUP3 MSTORE POP POP JUMP JUMPDEST PUSH1 0x0 PUSH2 0x401 DUP3 DUP5 PUSH2 0x34F JUMP JUMPDEST SWAP2 POP DUP2 SWAP1 POP SWAP3 SWAP2 POP POP JUMP JUMPDEST PUSH1 0x0 PUSH1 0x20 DUP3 ADD SWAP1 POP PUSH2 0x421 PUSH1 0x0 DUP4 ADD DUP5 PUSH2 0x331 JUMP JUMPDEST SWAP3 SWAP2 POP POP JUMP JUMPDEST PUSH1 0x0 PUSH1 0x40 DUP3 ADD SWAP1 POP PUSH2 0x43C PUSH1 0x0 DUP4 ADD DUP6 PUSH2 0x340 JUMP JUMPDEST PUSH2 0x449 PUSH1 0x20 DUP4 ADD DUP5 PUSH2 0x3E6 JUMP JUMPDEST SWAP4 SWAP3 POP POP POP JUMP JUMPDEST PUSH1 0x0 PUSH1 0x20 DUP3 ADD SWAP1 POP DUP2 DUP2 SUB PUSH1 0x0 DUP4 ADD MSTORE PUSH2 0x469 DUP2 PUSH2 0x380 JUMP JUMPDEST SWAP1 POP SWAP2 SWAP1 POP JUMP JUMPDEST PUSH1 0x0 PUSH1 0x20 DUP3 ADD SWAP1 POP PUSH2 0x485 PUSH1 0x0 DUP4 ADD DUP5 PUSH2 0x3E6 JUMP JUMPDEST SWAP3 SWAP2 POP POP JUMP JUMPDEST PUSH1 0x0 PUSH1 0x40 MLOAD SWAP1 POP DUP2 DUP2 ADD DUP2 DUP2 LT PUSH8 0xFFFFFFFFFFFFFFFF DUP3 GT OR ISZERO PUSH2 0x4AE JUMPI PUSH1 0x0 DUP1 REVERT JUMPDEST DUP1 PUSH1 0x40 MSTORE POP SWAP2 SWAP1 POP JUMP JUMPDEST PUSH1 0x0 PUSH8 0xFFFFFFFFFFFFFFFF DUP3 GT ISZERO PUSH2 0x4CF JUMPI PUSH1 0x0 DUP1 REVERT JUMPDEST PUSH1 0x1F NOT PUSH1 0x1F DUP4 ADD AND SWAP1 POP PUSH1 0x20 DUP2 ADD SWAP1 POP SWAP2 SWAP1 POP JUMP JUMPDEST PUSH1 0x0 DUP2 MLOAD SWAP1 POP SWAP2 SWAP1 POP JUMP JUMPDEST PUSH1 0x0 DUP3 DUP3 MSTORE PUSH1 0x20 DUP3 ADD SWAP1 POP SWAP3 SWAP2 POP POP JUMP JUMPDEST PUSH1 0x0 DUP2 SWAP1 POP SWAP3 SWAP2 POP POP JUMP JUMPDEST PUSH1 0x0 PUSH2 0x516 DUP3 PUSH2 0x527 JUMP JUMPDEST SWAP1 POP SWAP2 SWAP1 POP JUMP JUMPDEST PUSH1 0x0 DUP2 SWAP1 POP SWAP2 SWAP1 POP JUMP JUMPDEST PUSH1 0x0 PUSH20 0xFFFFFFFFFFFFFFFFFFFFFFFFFFFFFFFFFFFFFFFF DUP3 AND SWAP1 POP SWAP2 SWAP1 POP JUMP JUMPDEST PUSH1 0x0 DUP2 SWAP1 POP SWAP2 SWAP1 POP JUMP JUMPDEST DUP3 DUP2 DUP4 CALLDATACOPY PUSH1 0x0 DUP4 DUP4 ADD MSTORE POP POP POP JUMP JUMPDEST PUSH1 0x0 JUMPDEST DUP4 DUP2 LT ISZERO PUSH2 0x57E JUMPI DUP1 DUP3 ADD MLOAD DUP2 DUP5 ADD MSTORE PUSH1 0x20 DUP2 ADD SWAP1 POP PUSH2 0x563 JUMP JUMPDEST DUP4 DUP2 GT ISZERO PUSH2 0x58D JUMPI PUSH1 0x0 DUP5 DUP5 ADD MSTORE JUMPDEST POP POP POP POP JUMP JUMPDEST PUSH2 0x59C DUP2 PUSH2 0x547 JUMP JUMPDEST DUP2 EQ PUSH2 0x5A7 JUMPI PUSH1 0x0 DUP1 REVERT JUMPDEST POP JUMP INVALID LOG2 PUSH5 0x6970667358 0x22 SLT KECCAK256 SWAP6 0xAF PUSH22 0x605A9260002BC6B7C0B61F2136C3A05A217F6A48691A PUSH14 0xE3CD4D51D62364736F6C63430006 0xC STOP CALLER "
				},
				"gasEstimates": {
					"creation": {
						"codeDepositCost": "300800",
						"executionCost": "21203",
						"totalCost": "322003"
					},
					"external": {
						"evaluate(string,uint256)": "infinite",
						"professor()": "1189",
						"seeNotes(string)": "infinite"
					}
				},
				"methodIdentifiers": {
					"evaluate(string,uint256)": "7b81880c",
					"professor()": "5113940d",
					"seeNotes(string)": "e199aaf7"
				}
			},
			"storageLayout": {
				"storage": [
					{
						"astId": 4,
						"contract": "NOTES/notes.sol:notas",
						"label": "professor",
						"offset": 0,
						"slot": "0",
						"type": "t_address"
					},
					{
						"astId": 17,
						"contract": "NOTES/notes.sol:notas",
						"label": "Notes",
						"offset": 0,
						"slot": "1",
						"type": "t_mapping(t_bytes32,t_uint256)"
					},
					{
						"astId": 20,
						"contract": "NOTES/notes.sol:notas",
						"label": "revisions",
						"offset": 0,
						"slot": "2",
						"type": "t_array(t_string_storage)dyn_storage"
					}
				],
				"types": {
					"t_address": {
						"encoding": "inplace",
						"label": "address",
						"numberOfBytes": "20"
					},
					"t_array(t_string_storage)dyn_storage": {
						"base": "t_string_storage",
						"encoding": "dynamic_array",
						"label": "string[]",
						"numberOfBytes": "32"
					},
					"t_bytes32": {
						"encoding": "inplace",
						"label": "bytes32",
						"numberOfBytes": "32"
					},
					"t_mapping(t_bytes32,t_uint256)": {
						"encoding": "mapping",
						"key": "t_bytes32",
						"label": "mapping(bytes32 => uint256)",
						"numberOfBytes": "32",
						"value": "t_uint256"
					},
					"t_string_storage": {
						"encoding": "bytes",
						"label": "string",
						"numberOfBytes": "32"
					},
					"t_uint256": {
						"encoding": "inplace",
						"label": "uint256",
						"numberOfBytes": "32"
					}
				}
			},
			"userdoc": {
				"kind": "user",
				"methods": {},
				"version": 1
			}
		}
	}
}