{
	"NOTES/notes.sol": {
		"notas": {
			"abi": [
				{
					"inputs": [],
					"stateMutability": "nonpayable",
					"type": "constructor"
				},
				{
					"anonymous": false,
					"inputs": [
						{
							"indexed": false,
							"internalType": "bytes32",
							"name": "",
							"type": "bytes32"
						},
						{
							"indexed": false,
							"internalType": "uint256",
							"name": "",
							"type": "uint256"
						}
					],
					"name": "evaluated_student",
					"type": "event"
				},
				{
					"anonymous": false,
					"inputs": [
						{
							"indexed": false,
							"internalType": "string",
							"name": "",
							"type": "string"
						}
					],
					"name": "revision",
					"type": "event"
				},
				{
					"inputs": [
						{
							"internalType": "string",
							"name": "_studentId",
							"type": "string"
						}
					],
					"name": "askToSeeNotes",
					"outputs": [],
					"stateMutability": "nonpayable",
					"type": "function"
				},
				{
					"inputs": [
						{
							"internalType": "string",
							"name": "_studentId",
							"type": "string"
						},
						{
							"internalType": "uint256",
							"name": "_note",
							"type": "uint256"
						}
					],
					"name": "evaluate",
					"outputs": [],
					"stateMutability": "nonpayable",
					"type": "function"
				},
				{
					"inputs": [],
					"name": "professor",
					"outputs": [
						{
							"internalType": "address",
							"name": "",
							"type": "address"
						}
					],
					"stateMutability": "view",
					"type": "function"
				},
				{
					"inputs": [
						{
							"internalType": "string",
							"name": "_studentId",
							"type": "string"
						}
					],
					"name": "seeNotes",
					"outputs": [
						{
							"internalType": "uint256",
							"name": "",
							"type": "uint256"
						}
					],
					"stateMutability": "view",
					"type": "function"
				}
			],
			"devdoc": {
				"kind": "dev",
				"methods": {},
				"version": 1
			},
			"evm": {
				"assembly": "    /* \"NOTES/notes.sol\":104:2009  contract notas {\r... */\n  mstore(0x40, 0x80)\n    /* \"NOTES/notes.sol\":221:284  constructor () public {\r... */\n  callvalue\n  dup1\n  iszero\n  tag_1\n  jumpi\n  0x00\n  dup1\n  revert\ntag_1:\n  pop\n    /* \"NOTES/notes.sol\":266:276  msg.sender */\n  caller\n    /* \"NOTES/notes.sol\":254:263  professor */\n  0x00\n  dup1\n    /* \"NOTES/notes.sol\":254:276  professor = msg.sender */\n  0x0100\n  exp\n  dup2\n  sload\n  dup2\n  0xffffffffffffffffffffffffffffffffffffffff\n  mul\n  not\n  and\n  swap1\n  dup4\n  0xffffffffffffffffffffffffffffffffffffffff\n  and\n  mul\n  or\n  swap1\n  sstore\n  pop\n    /* \"NOTES/notes.sol\":104:2009  contract notas {\r... */\n  dataSize(sub_0)\n  dup1\n  dataOffset(sub_0)\n  0x00\n  codecopy\n  0x00\n  return\nstop\n\nsub_0: assembly {\n        /* \"NOTES/notes.sol\":104:2009  contract notas {\r... */\n      mstore(0x40, 0x80)\n      callvalue\n      dup1\n      iszero\n      tag_1\n      jumpi\n      0x00\n      dup1\n      revert\n    tag_1:\n      pop\n      jumpi(tag_2, lt(calldatasize, 0x04))\n      shr(0xe0, calldataload(0x00))\n      dup1\n      0x5113940d\n      eq\n      tag_3\n      jumpi\n      dup1\n      0x7b81880c\n      eq\n      tag_4\n      jumpi\n      dup1\n      0xd56c52ae\n      eq\n      tag_5\n      jumpi\n      dup1\n      0xe199aaf7\n      eq\n      tag_6\n      jumpi\n    tag_2:\n      0x00\n      dup1\n      revert\n        /* \"NOTES/notes.sol\":163:187  address public professor */\n    tag_3:\n      tag_7\n      tag_8\n      jump\t// in\n    tag_7:\n      mload(0x40)\n      tag_9\n      swap2\n      swap1\n      tag_10\n      jump\t// in\n    tag_9:\n      mload(0x40)\n      dup1\n      swap2\n      sub\n      swap1\n      return\n        /* \"NOTES/notes.sol\":647:1074  function evaluate(string memory _studentId, uint _note) public professorUnique(msg.sender){\r... */\n    tag_4:\n      tag_11\n      0x04\n      dup1\n      calldatasize\n      sub\n      dup2\n      add\n      swap1\n      tag_12\n      swap2\n      swap1\n      tag_13\n      jump\t// in\n    tag_12:\n      tag_14\n      jump\t// in\n    tag_11:\n      stop\n        /* \"NOTES/notes.sol\":1760:2006  function askToSeeNotes(string memory _studentId) public {\r... */\n    tag_5:\n      tag_15\n      0x04\n      dup1\n      calldatasize\n      sub\n      dup2\n      add\n      swap1\n      tag_16\n      swap2\n      swap1\n      tag_17\n      jump\t// in\n    tag_16:\n      tag_18\n      jump\t// in\n    tag_15:\n      stop\n        /* \"NOTES/notes.sol\":1422:1706  function seeNotes(string memory _studentId) public view returns(uint){\r... */\n    tag_6:\n      tag_19\n      0x04\n      dup1\n      calldatasize\n      sub\n      dup2\n      add\n      swap1\n      tag_20\n      swap2\n      swap1\n      tag_17\n      jump\t// in\n    tag_20:\n      tag_21\n      jump\t// in\n    tag_19:\n      mload(0x40)\n      tag_22\n      swap2\n      swap1\n      tag_23\n      jump\t// in\n    tag_22:\n      mload(0x40)\n      dup1\n      swap2\n      sub\n      swap1\n      return\n        /* \"NOTES/notes.sol\":163:187  address public professor */\n    tag_8:\n      0x00\n      dup1\n      sload\n      swap1\n      0x0100\n      exp\n      swap1\n      div\n      0xffffffffffffffffffffffffffffffffffffffff\n      and\n      dup2\n      jump\t// out\n        /* \"NOTES/notes.sol\":647:1074  function evaluate(string memory _studentId, uint _note) public professorUnique(msg.sender){\r... */\n    tag_14:\n        /* \"NOTES/notes.sol\":726:736  msg.sender */\n      caller\n        /* \"NOTES/notes.sol\":1281:1290  professor */\n      0x00\n      dup1\n      sload\n      swap1\n      0x0100\n      exp\n      swap1\n      div\n      0xffffffffffffffffffffffffffffffffffffffff\n      and\n        /* \"NOTES/notes.sol\":1260:1290  _professorAddress == professor */\n      0xffffffffffffffffffffffffffffffffffffffff\n      and\n        /* \"NOTES/notes.sol\":1260:1277  _professorAddress */\n      dup2\n        /* \"NOTES/notes.sol\":1260:1290  _professorAddress == professor */\n      0xffffffffffffffffffffffffffffffffffffffff\n      and\n      eq\n        /* \"NOTES/notes.sol\":1252:1341  require(_professorAddress == professor, \"No tienes permisos para ejecutar esta funcion.\") */\n      tag_25\n      jumpi\n      mload(0x40)\n      0x08c379a000000000000000000000000000000000000000000000000000000000\n      dup2\n      mstore\n      0x04\n      add\n      tag_26\n      swap1\n      tag_27\n      jump\t// in\n    tag_26:\n      mload(0x40)\n      dup1\n      swap2\n      sub\n      swap1\n      revert\n    tag_25:\n        /* \"NOTES/notes.sol\":798:820  bytes32 hash_studentId */\n      0x00\n        /* \"NOTES/notes.sol\":850:860  _studentId */\n      dup4\n        /* \"NOTES/notes.sol\":833:861  abi.encodePacked(_studentId) */\n      add(0x20, mload(0x40))\n      tag_29\n      swap2\n      swap1\n      tag_30\n      jump\t// in\n    tag_29:\n      mload(0x40)\n      0x20\n      dup2\n      dup4\n      sub\n      sub\n      dup2\n      mstore\n      swap1\n      0x40\n      mstore\n        /* \"NOTES/notes.sol\":823:862  keccak256(abi.encodePacked(_studentId)) */\n      dup1\n      mload\n      swap1\n      0x20\n      add\n      keccak256\n        /* \"NOTES/notes.sol\":798:862  bytes32 hash_studentId = keccak256(abi.encodePacked(_studentId)) */\n      swap1\n      pop\n        /* \"NOTES/notes.sol\":974:979  _note */\n      dup3\n        /* \"NOTES/notes.sol\":950:955  Notes */\n      0x01\n        /* \"NOTES/notes.sol\":950:971  Notes[hash_studentId] */\n      0x00\n        /* \"NOTES/notes.sol\":956:970  hash_studentId */\n      dup4\n        /* \"NOTES/notes.sol\":950:971  Notes[hash_studentId] */\n      dup2\n      mstore\n      0x20\n      add\n      swap1\n      dup2\n      mstore\n      0x20\n      add\n      0x00\n      keccak256\n        /* \"NOTES/notes.sol\":950:979  Notes[hash_studentId] = _note */\n      dup2\n      swap1\n      sstore\n      pop\n        /* \"NOTES/notes.sol\":1026:1066  evaluated_student(hash_studentId, _note) */\n      0xfd83de6de76bf6a6a9c1b8980aad7370b0d3759b63fc0d30ddb7f30839ce82b5\n        /* \"NOTES/notes.sol\":1044:1058  hash_studentId */\n      dup2\n        /* \"NOTES/notes.sol\":1060:1065  _note */\n      dup5\n        /* \"NOTES/notes.sol\":1026:1066  evaluated_student(hash_studentId, _note) */\n      mload(0x40)\n      tag_31\n      swap3\n      swap2\n      swap1\n      tag_32\n      jump\t// in\n    tag_31:\n      mload(0x40)\n      dup1\n      swap2\n      sub\n      swap1\n      log1\n        /* \"NOTES/notes.sol\":1352:1353  _ */\n      pop\n        /* \"NOTES/notes.sol\":647:1074  function evaluate(string memory _studentId, uint _note) public professorUnique(msg.sender){\r... */\n      pop\n      pop\n      pop\n      jump\t// out\n        /* \"NOTES/notes.sol\":1760:2006  function askToSeeNotes(string memory _studentId) public {\r... */\n    tag_18:\n        /* \"NOTES/notes.sol\":1934:1943  revisions */\n      0x02\n        /* \"NOTES/notes.sol\":1949:1959  _studentId */\n      dup2\n        /* \"NOTES/notes.sol\":1934:1960  revisions.push(_studentId) */\n      swap1\n      dup1\n      0x01\n      dup2\n      sload\n      add\n      dup1\n      dup3\n      sstore\n      dup1\n      swap2\n      pop\n      pop\n      0x01\n      swap1\n      sub\n      swap1\n      0x00\n      mstore\n      keccak256(0x00, 0x20)\n      add\n      0x00\n      swap1\n      swap2\n      swap1\n      swap2\n      swap1\n      swap2\n      pop\n      swap1\n      dup1\n      mload\n      swap1\n      0x20\n      add\n      swap1\n      tag_35\n      swap3\n      swap2\n      swap1\n      tag_36\n      jump\t// in\n    tag_35:\n      pop\n        /* \"NOTES/notes.sol\":1978:1998  revision(_studentId) */\n      0xca981d9115ef6cc4d88019fa70f9ffa85406c600b92296a25c270da252561b2c\n        /* \"NOTES/notes.sol\":1987:1997  _studentId */\n      dup2\n        /* \"NOTES/notes.sol\":1978:1998  revision(_studentId) */\n      mload(0x40)\n      tag_37\n      swap2\n      swap1\n      tag_38\n      jump\t// in\n    tag_37:\n      mload(0x40)\n      dup1\n      swap2\n      sub\n      swap1\n      log1\n        /* \"NOTES/notes.sol\":1760:2006  function askToSeeNotes(string memory _studentId) public {\r... */\n      pop\n      jump\t// out\n        /* \"NOTES/notes.sol\":1422:1706  function seeNotes(string memory _studentId) public view returns(uint){\r... */\n    tag_21:\n        /* \"NOTES/notes.sol\":1486:1490  uint */\n      0x00\n        /* \"NOTES/notes.sol\":1502:1524  bytes32 hash_studentId */\n      dup1\n        /* \"NOTES/notes.sol\":1554:1564  _studentId */\n      dup3\n        /* \"NOTES/notes.sol\":1537:1565  abi.encodePacked(_studentId) */\n      add(0x20, mload(0x40))\n      tag_40\n      swap2\n      swap1\n      tag_30\n      jump\t// in\n    tag_40:\n      mload(0x40)\n      0x20\n      dup2\n      dup4\n      sub\n      sub\n      dup2\n      mstore\n      swap1\n      0x40\n      mstore\n        /* \"NOTES/notes.sol\":1527:1566  keccak256(abi.encodePacked(_studentId)) */\n      dup1\n      mload\n      swap1\n      0x20\n      add\n      keccak256\n        /* \"NOTES/notes.sol\":1502:1566  bytes32 hash_studentId = keccak256(abi.encodePacked(_studentId)) */\n      swap1\n      pop\n        /* \"NOTES/notes.sol\":1627:1643  uint studentNote */\n      0x00\n        /* \"NOTES/notes.sol\":1646:1651  Notes */\n      0x01\n        /* \"NOTES/notes.sol\":1646:1667  Notes[hash_studentId] */\n      0x00\n        /* \"NOTES/notes.sol\":1652:1666  hash_studentId */\n      dup4\n        /* \"NOTES/notes.sol\":1646:1667  Notes[hash_studentId] */\n      dup2\n      mstore\n      0x20\n      add\n      swap1\n      dup2\n      mstore\n      0x20\n      add\n      0x00\n      keccak256\n      sload\n        /* \"NOTES/notes.sol\":1627:1667  uint studentNote = Notes[hash_studentId] */\n      swap1\n      pop\n        /* \"NOTES/notes.sol\":1687:1698  studentNote */\n      dup1\n        /* \"NOTES/notes.sol\":1680:1698  return studentNote */\n      swap3\n      pop\n      pop\n      pop\n        /* \"NOTES/notes.sol\":1422:1706  function seeNotes(string memory _studentId) public view returns(uint){\r... */\n      swap2\n      swap1\n      pop\n      jump\t// out\n    tag_36:\n      dup3\n      dup1\n      sload\n      0x01\n      dup2\n      0x01\n      and\n      iszero\n      0x0100\n      mul\n      sub\n      and\n      0x02\n      swap1\n      div\n      swap1\n      0x00\n      mstore\n      keccak256(0x00, 0x20)\n      swap1\n      0x1f\n      add\n      0x20\n      swap1\n      div\n      dup2\n      add\n      swap3\n      dup3\n      0x1f\n      lt\n      tag_42\n      jumpi\n      dup1\n      mload\n      not(0xff)\n      and\n      dup4\n      dup1\n      add\n      or\n      dup6\n      sstore\n      jump(tag_41)\n    tag_42:\n      dup3\n      dup1\n      add\n      0x01\n      add\n      dup6\n      sstore\n      dup3\n      iszero\n      tag_41\n      jumpi\n      swap2\n      dup3\n      add\n    tag_43:\n      dup3\n      dup2\n      gt\n      iszero\n      tag_44\n      jumpi\n      dup3\n      mload\n      dup3\n      sstore\n      swap2\n      0x20\n      add\n      swap2\n      swap1\n      0x01\n      add\n      swap1\n      jump(tag_43)\n    tag_44:\n    tag_41:\n      pop\n      swap1\n      pop\n      tag_45\n      swap2\n      swap1\n      tag_46\n      jump\t// in\n    tag_45:\n      pop\n      swap1\n      jump\t// out\n    tag_46:\n    tag_47:\n      dup1\n      dup3\n      gt\n      iszero\n      tag_48\n      jumpi\n      0x00\n      dup2\n      0x00\n      swap1\n      sstore\n      pop\n      0x01\n      add\n      jump(tag_47)\n    tag_48:\n      pop\n      swap1\n      jump\t// out\n        /* \"--CODEGEN--\":6:448   */\n    tag_50:\n      0x00\n        /* \"--CODEGEN--\":108:111   */\n      dup3\n        /* \"--CODEGEN--\":101:105   */\n      0x1f\n        /* \"--CODEGEN--\":93:99   */\n      dup4\n        /* \"--CODEGEN--\":89:106   */\n      add\n        /* \"--CODEGEN--\":85:112   */\n      slt\n        /* \"--CODEGEN--\":75:77   */\n      tag_52\n      jumpi\n        /* \"--CODEGEN--\":126:127   */\n      0x00\n        /* \"--CODEGEN--\":123:124   */\n      dup1\n        /* \"--CODEGEN--\":116:128   */\n      revert\n        /* \"--CODEGEN--\":75:77   */\n    tag_52:\n        /* \"--CODEGEN--\":163:169   */\n      dup2\n        /* \"--CODEGEN--\":150:170   */\n      calldataload\n        /* \"--CODEGEN--\":185:250   */\n      tag_53\n        /* \"--CODEGEN--\":200:249   */\n      tag_54\n        /* \"--CODEGEN--\":242:248   */\n      dup3\n        /* \"--CODEGEN--\":200:249   */\n      tag_55\n      jump\t// in\n    tag_54:\n        /* \"--CODEGEN--\":185:250   */\n      tag_56\n      jump\t// in\n    tag_53:\n        /* \"--CODEGEN--\":176:250   */\n      swap2\n      pop\n        /* \"--CODEGEN--\":270:276   */\n      dup1\n        /* \"--CODEGEN--\":263:268   */\n      dup3\n        /* \"--CODEGEN--\":256:277   */\n      mstore\n        /* \"--CODEGEN--\":306:310   */\n      0x20\n        /* \"--CODEGEN--\":298:304   */\n      dup4\n        /* \"--CODEGEN--\":294:311   */\n      add\n        /* \"--CODEGEN--\":339:343   */\n      0x20\n        /* \"--CODEGEN--\":332:337   */\n      dup4\n        /* \"--CODEGEN--\":328:344   */\n      add\n        /* \"--CODEGEN--\":374:377   */\n      dup6\n        /* \"--CODEGEN--\":365:371   */\n      dup4\n        /* \"--CODEGEN--\":360:363   */\n      dup4\n        /* \"--CODEGEN--\":356:372   */\n      add\n        /* \"--CODEGEN--\":353:378   */\n      gt\n        /* \"--CODEGEN--\":350:352   */\n      iszero\n      tag_57\n      jumpi\n        /* \"--CODEGEN--\":391:392   */\n      0x00\n        /* \"--CODEGEN--\":388:389   */\n      dup1\n        /* \"--CODEGEN--\":381:393   */\n      revert\n        /* \"--CODEGEN--\":350:352   */\n    tag_57:\n        /* \"--CODEGEN--\":401:442   */\n      tag_58\n        /* \"--CODEGEN--\":435:441   */\n      dup4\n        /* \"--CODEGEN--\":430:433   */\n      dup3\n        /* \"--CODEGEN--\":425:428   */\n      dup5\n        /* \"--CODEGEN--\":401:442   */\n      tag_59\n      jump\t// in\n    tag_58:\n        /* \"--CODEGEN--\":68:448   */\n      pop\n      pop\n      pop\n      swap3\n      swap2\n      pop\n      pop\n      jump\t// out\n        /* \"--CODEGEN--\":456:586   */\n    tag_60:\n      0x00\n        /* \"--CODEGEN--\":536:542   */\n      dup2\n        /* \"--CODEGEN--\":523:543   */\n      calldataload\n        /* \"--CODEGEN--\":514:543   */\n      swap1\n      pop\n        /* \"--CODEGEN--\":548:581   */\n      tag_62\n        /* \"--CODEGEN--\":575:580   */\n      dup2\n        /* \"--CODEGEN--\":548:581   */\n      tag_63\n      jump\t// in\n    tag_62:\n        /* \"--CODEGEN--\":508:586   */\n      swap3\n      swap2\n      pop\n      pop\n      jump\t// out\n        /* \"--CODEGEN--\":593:940   */\n    tag_17:\n      0x00\n        /* \"--CODEGEN--\":707:709   */\n      0x20\n        /* \"--CODEGEN--\":695:704   */\n      dup3\n        /* \"--CODEGEN--\":686:693   */\n      dup5\n        /* \"--CODEGEN--\":682:705   */\n      sub\n        /* \"--CODEGEN--\":678:710   */\n      slt\n        /* \"--CODEGEN--\":675:677   */\n      iszero\n      tag_65\n      jumpi\n        /* \"--CODEGEN--\":723:724   */\n      0x00\n        /* \"--CODEGEN--\":720:721   */\n      dup1\n        /* \"--CODEGEN--\":713:725   */\n      revert\n        /* \"--CODEGEN--\":675:677   */\n    tag_65:\n        /* \"--CODEGEN--\":786:787   */\n      0x00\n        /* \"--CODEGEN--\":775:784   */\n      dup3\n        /* \"--CODEGEN--\":771:788   */\n      add\n        /* \"--CODEGEN--\":758:789   */\n      calldataload\n        /* \"--CODEGEN--\":809:827   */\n      0xffffffffffffffff\n        /* \"--CODEGEN--\":801:807   */\n      dup2\n        /* \"--CODEGEN--\":798:828   */\n      gt\n        /* \"--CODEGEN--\":795:797   */\n      iszero\n      tag_66\n      jumpi\n        /* \"--CODEGEN--\":841:842   */\n      0x00\n        /* \"--CODEGEN--\":838:839   */\n      dup1\n        /* \"--CODEGEN--\":831:843   */\n      revert\n        /* \"--CODEGEN--\":795:797   */\n    tag_66:\n        /* \"--CODEGEN--\":861:924   */\n      tag_67\n        /* \"--CODEGEN--\":916:923   */\n      dup5\n        /* \"--CODEGEN--\":907:913   */\n      dup3\n        /* \"--CODEGEN--\":896:905   */\n      dup6\n        /* \"--CODEGEN--\":892:914   */\n      add\n        /* \"--CODEGEN--\":861:924   */\n      tag_50\n      jump\t// in\n    tag_67:\n        /* \"--CODEGEN--\":851:924   */\n      swap2\n      pop\n        /* \"--CODEGEN--\":737:930   */\n      pop\n        /* \"--CODEGEN--\":669:940   */\n      swap3\n      swap2\n      pop\n      pop\n      jump\t// out\n        /* \"--CODEGEN--\":947:1419   */\n    tag_13:\n      0x00\n      dup1\n        /* \"--CODEGEN--\":1078:1080   */\n      0x40\n        /* \"--CODEGEN--\":1066:1075   */\n      dup4\n        /* \"--CODEGEN--\":1057:1064   */\n      dup6\n        /* \"--CODEGEN--\":1053:1076   */\n      sub\n        /* \"--CODEGEN--\":1049:1081   */\n      slt\n        /* \"--CODEGEN--\":1046:1048   */\n      iszero\n      tag_69\n      jumpi\n        /* \"--CODEGEN--\":1094:1095   */\n      0x00\n        /* \"--CODEGEN--\":1091:1092   */\n      dup1\n        /* \"--CODEGEN--\":1084:1096   */\n      revert\n        /* \"--CODEGEN--\":1046:1048   */\n    tag_69:\n        /* \"--CODEGEN--\":1157:1158   */\n      0x00\n        /* \"--CODEGEN--\":1146:1155   */\n      dup4\n        /* \"--CODEGEN--\":1142:1159   */\n      add\n        /* \"--CODEGEN--\":1129:1160   */\n      calldataload\n        /* \"--CODEGEN--\":1180:1198   */\n      0xffffffffffffffff\n        /* \"--CODEGEN--\":1172:1178   */\n      dup2\n        /* \"--CODEGEN--\":1169:1199   */\n      gt\n        /* \"--CODEGEN--\":1166:1168   */\n      iszero\n      tag_70\n      jumpi\n        /* \"--CODEGEN--\":1212:1213   */\n      0x00\n        /* \"--CODEGEN--\":1209:1210   */\n      dup1\n        /* \"--CODEGEN--\":1202:1214   */\n      revert\n        /* \"--CODEGEN--\":1166:1168   */\n    tag_70:\n        /* \"--CODEGEN--\":1232:1295   */\n      tag_71\n        /* \"--CODEGEN--\":1287:1294   */\n      dup6\n        /* \"--CODEGEN--\":1278:1284   */\n      dup3\n        /* \"--CODEGEN--\":1267:1276   */\n      dup7\n        /* \"--CODEGEN--\":1263:1285   */\n      add\n        /* \"--CODEGEN--\":1232:1295   */\n      tag_50\n      jump\t// in\n    tag_71:\n        /* \"--CODEGEN--\":1222:1295   */\n      swap3\n      pop\n        /* \"--CODEGEN--\":1108:1301   */\n      pop\n        /* \"--CODEGEN--\":1332:1334   */\n      0x20\n        /* \"--CODEGEN--\":1350:1403   */\n      tag_72\n        /* \"--CODEGEN--\":1395:1402   */\n      dup6\n        /* \"--CODEGEN--\":1386:1392   */\n      dup3\n        /* \"--CODEGEN--\":1375:1384   */\n      dup7\n        /* \"--CODEGEN--\":1371:1393   */\n      add\n        /* \"--CODEGEN--\":1350:1403   */\n      tag_60\n      jump\t// in\n    tag_72:\n        /* \"--CODEGEN--\":1340:1403   */\n      swap2\n      pop\n        /* \"--CODEGEN--\":1311:1409   */\n      pop\n        /* \"--CODEGEN--\":1040:1419   */\n      swap3\n      pop\n      swap3\n      swap1\n      pop\n      jump\t// out\n        /* \"--CODEGEN--\":1426:1539   */\n    tag_73:\n        /* \"--CODEGEN--\":1509:1533   */\n      tag_75\n        /* \"--CODEGEN--\":1527:1532   */\n      dup2\n        /* \"--CODEGEN--\":1509:1533   */\n      tag_76\n      jump\t// in\n    tag_75:\n        /* \"--CODEGEN--\":1504:1507   */\n      dup3\n        /* \"--CODEGEN--\":1497:1534   */\n      mstore\n        /* \"--CODEGEN--\":1491:1539   */\n      pop\n      pop\n      jump\t// out\n        /* \"--CODEGEN--\":1546:1659   */\n    tag_77:\n        /* \"--CODEGEN--\":1629:1653   */\n      tag_79\n        /* \"--CODEGEN--\":1647:1652   */\n      dup2\n        /* \"--CODEGEN--\":1629:1653   */\n      tag_80\n      jump\t// in\n    tag_79:\n        /* \"--CODEGEN--\":1624:1627   */\n      dup3\n        /* \"--CODEGEN--\":1617:1654   */\n      mstore\n        /* \"--CODEGEN--\":1611:1659   */\n      pop\n      pop\n      jump\t// out\n        /* \"--CODEGEN--\":1666:2013   */\n    tag_81:\n      0x00\n        /* \"--CODEGEN--\":1778:1817   */\n      tag_83\n        /* \"--CODEGEN--\":1811:1816   */\n      dup3\n        /* \"--CODEGEN--\":1778:1817   */\n      tag_84\n      jump\t// in\n    tag_83:\n        /* \"--CODEGEN--\":1829:1900   */\n      tag_85\n        /* \"--CODEGEN--\":1893:1899   */\n      dup2\n        /* \"--CODEGEN--\":1888:1891   */\n      dup6\n        /* \"--CODEGEN--\":1829:1900   */\n      tag_86\n      jump\t// in\n    tag_85:\n        /* \"--CODEGEN--\":1822:1900   */\n      swap4\n      pop\n        /* \"--CODEGEN--\":1905:1957   */\n      tag_87\n        /* \"--CODEGEN--\":1950:1956   */\n      dup2\n        /* \"--CODEGEN--\":1945:1948   */\n      dup6\n        /* \"--CODEGEN--\":1938:1942   */\n      0x20\n        /* \"--CODEGEN--\":1931:1936   */\n      dup7\n        /* \"--CODEGEN--\":1927:1943   */\n      add\n        /* \"--CODEGEN--\":1905:1957   */\n      tag_88\n      jump\t// in\n    tag_87:\n        /* \"--CODEGEN--\":1978:2007   */\n      tag_89\n        /* \"--CODEGEN--\":2000:2006   */\n      dup2\n        /* \"--CODEGEN--\":1978:2007   */\n      tag_90\n      jump\t// in\n    tag_89:\n        /* \"--CODEGEN--\":1973:1976   */\n      dup5\n        /* \"--CODEGEN--\":1969:2008   */\n      add\n        /* \"--CODEGEN--\":1962:2008   */\n      swap2\n      pop\n        /* \"--CODEGEN--\":1758:2013   */\n      pop\n      swap3\n      swap2\n      pop\n      pop\n      jump\t// out\n        /* \"--CODEGEN--\":2020:2380   */\n    tag_91:\n      0x00\n        /* \"--CODEGEN--\":2150:2189   */\n      tag_93\n        /* \"--CODEGEN--\":2183:2188   */\n      dup3\n        /* \"--CODEGEN--\":2150:2189   */\n      tag_84\n      jump\t// in\n    tag_93:\n        /* \"--CODEGEN--\":2201:2290   */\n      tag_94\n        /* \"--CODEGEN--\":2283:2289   */\n      dup2\n        /* \"--CODEGEN--\":2278:2281   */\n      dup6\n        /* \"--CODEGEN--\":2201:2290   */\n      tag_95\n      jump\t// in\n    tag_94:\n        /* \"--CODEGEN--\":2194:2290   */\n      swap4\n      pop\n        /* \"--CODEGEN--\":2295:2347   */\n      tag_96\n        /* \"--CODEGEN--\":2340:2346   */\n      dup2\n        /* \"--CODEGEN--\":2335:2338   */\n      dup6\n        /* \"--CODEGEN--\":2328:2332   */\n      0x20\n        /* \"--CODEGEN--\":2321:2326   */\n      dup7\n        /* \"--CODEGEN--\":2317:2333   */\n      add\n        /* \"--CODEGEN--\":2295:2347   */\n      tag_88\n      jump\t// in\n    tag_96:\n        /* \"--CODEGEN--\":2368:2374   */\n      dup1\n        /* \"--CODEGEN--\":2363:2366   */\n      dup5\n        /* \"--CODEGEN--\":2359:2375   */\n      add\n        /* \"--CODEGEN--\":2352:2375   */\n      swap2\n      pop\n        /* \"--CODEGEN--\":2130:2380   */\n      pop\n      swap3\n      swap2\n      pop\n      pop\n      jump\t// out\n        /* \"--CODEGEN--\":2388:2771   */\n    tag_97:\n      0x00\n        /* \"--CODEGEN--\":2548:2615   */\n      tag_99\n        /* \"--CODEGEN--\":2612:2614   */\n      0x2e\n        /* \"--CODEGEN--\":2607:2610   */\n      dup4\n        /* \"--CODEGEN--\":2548:2615   */\n      tag_86\n      jump\t// in\n    tag_99:\n        /* \"--CODEGEN--\":2541:2615   */\n      swap2\n      pop\n        /* \"--CODEGEN--\":2648:2682   */\n      0x4e6f207469656e6573207065726d69736f73207061726120656a656375746172\n        /* \"--CODEGEN--\":2644:2645   */\n      0x00\n        /* \"--CODEGEN--\":2639:2642   */\n      dup4\n        /* \"--CODEGEN--\":2635:2646   */\n      add\n        /* \"--CODEGEN--\":2628:2683   */\n      mstore\n        /* \"--CODEGEN--\":2717:2733   */\n      0x20657374612066756e63696f6e2e000000000000000000000000000000000000\n        /* \"--CODEGEN--\":2712:2714   */\n      0x20\n        /* \"--CODEGEN--\":2707:2710   */\n      dup4\n        /* \"--CODEGEN--\":2703:2715   */\n      add\n        /* \"--CODEGEN--\":2696:2734   */\n      mstore\n        /* \"--CODEGEN--\":2762:2764   */\n      0x40\n        /* \"--CODEGEN--\":2757:2760   */\n      dup3\n        /* \"--CODEGEN--\":2753:2765   */\n      add\n        /* \"--CODEGEN--\":2746:2765   */\n      swap1\n      pop\n        /* \"--CODEGEN--\":2534:2771   */\n      swap2\n      swap1\n      pop\n      jump\t// out\n        /* \"--CODEGEN--\":2779:2892   */\n    tag_100:\n        /* \"--CODEGEN--\":2862:2886   */\n      tag_102\n        /* \"--CODEGEN--\":2880:2885   */\n      dup2\n        /* \"--CODEGEN--\":2862:2886   */\n      tag_103\n      jump\t// in\n    tag_102:\n        /* \"--CODEGEN--\":2857:2860   */\n      dup3\n        /* \"--CODEGEN--\":2850:2887   */\n      mstore\n        /* \"--CODEGEN--\":2844:2892   */\n      pop\n      pop\n      jump\t// out\n        /* \"--CODEGEN--\":2899:3174   */\n    tag_30:\n      0x00\n        /* \"--CODEGEN--\":3054:3149   */\n      tag_105\n        /* \"--CODEGEN--\":3145:3148   */\n      dup3\n        /* \"--CODEGEN--\":3136:3142   */\n      dup5\n        /* \"--CODEGEN--\":3054:3149   */\n      tag_91\n      jump\t// in\n    tag_105:\n        /* \"--CODEGEN--\":3047:3149   */\n      swap2\n      pop\n        /* \"--CODEGEN--\":3166:3169   */\n      dup2\n        /* \"--CODEGEN--\":3159:3169   */\n      swap1\n      pop\n        /* \"--CODEGEN--\":3035:3174   */\n      swap3\n      swap2\n      pop\n      pop\n      jump\t// out\n        /* \"--CODEGEN--\":3181:3403   */\n    tag_10:\n      0x00\n        /* \"--CODEGEN--\":3308:3310   */\n      0x20\n        /* \"--CODEGEN--\":3297:3306   */\n      dup3\n        /* \"--CODEGEN--\":3293:3311   */\n      add\n        /* \"--CODEGEN--\":3285:3311   */\n      swap1\n      pop\n        /* \"--CODEGEN--\":3322:3393   */\n      tag_107\n        /* \"--CODEGEN--\":3390:3391   */\n      0x00\n        /* \"--CODEGEN--\":3379:3388   */\n      dup4\n        /* \"--CODEGEN--\":3375:3392   */\n      add\n        /* \"--CODEGEN--\":3366:3372   */\n      dup5\n        /* \"--CODEGEN--\":3322:3393   */\n      tag_73\n      jump\t// in\n    tag_107:\n        /* \"--CODEGEN--\":3279:3403   */\n      swap3\n      swap2\n      pop\n      pop\n      jump\t// out\n        /* \"--CODEGEN--\":3410:3743   */\n    tag_32:\n      0x00\n        /* \"--CODEGEN--\":3565:3567   */\n      0x40\n        /* \"--CODEGEN--\":3554:3563   */\n      dup3\n        /* \"--CODEGEN--\":3550:3568   */\n      add\n        /* \"--CODEGEN--\":3542:3568   */\n      swap1\n      pop\n        /* \"--CODEGEN--\":3579:3650   */\n      tag_109\n        /* \"--CODEGEN--\":3647:3648   */\n      0x00\n        /* \"--CODEGEN--\":3636:3645   */\n      dup4\n        /* \"--CODEGEN--\":3632:3649   */\n      add\n        /* \"--CODEGEN--\":3623:3629   */\n      dup6\n        /* \"--CODEGEN--\":3579:3650   */\n      tag_77\n      jump\t// in\n    tag_109:\n        /* \"--CODEGEN--\":3661:3733   */\n      tag_110\n        /* \"--CODEGEN--\":3729:3731   */\n      0x20\n        /* \"--CODEGEN--\":3718:3727   */\n      dup4\n        /* \"--CODEGEN--\":3714:3732   */\n      add\n        /* \"--CODEGEN--\":3705:3711   */\n      dup5\n        /* \"--CODEGEN--\":3661:3733   */\n      tag_100\n      jump\t// in\n    tag_110:\n        /* \"--CODEGEN--\":3536:3743   */\n      swap4\n      swap3\n      pop\n      pop\n      pop\n      jump\t// out\n        /* \"--CODEGEN--\":3750:4060   */\n    tag_38:\n      0x00\n        /* \"--CODEGEN--\":3897:3899   */\n      0x20\n        /* \"--CODEGEN--\":3886:3895   */\n      dup3\n        /* \"--CODEGEN--\":3882:3900   */\n      add\n        /* \"--CODEGEN--\":3874:3900   */\n      swap1\n      pop\n        /* \"--CODEGEN--\":3947:3956   */\n      dup2\n        /* \"--CODEGEN--\":3941:3945   */\n      dup2\n        /* \"--CODEGEN--\":3937:3957   */\n      sub\n        /* \"--CODEGEN--\":3933:3934   */\n      0x00\n        /* \"--CODEGEN--\":3922:3931   */\n      dup4\n        /* \"--CODEGEN--\":3918:3935   */\n      add\n        /* \"--CODEGEN--\":3911:3958   */\n      mstore\n        /* \"--CODEGEN--\":3972:4050   */\n      tag_112\n        /* \"--CODEGEN--\":4045:4049   */\n      dup2\n        /* \"--CODEGEN--\":4036:4042   */\n      dup5\n        /* \"--CODEGEN--\":3972:4050   */\n      tag_81\n      jump\t// in\n    tag_112:\n        /* \"--CODEGEN--\":3964:4050   */\n      swap1\n      pop\n        /* \"--CODEGEN--\":3868:4060   */\n      swap3\n      swap2\n      pop\n      pop\n      jump\t// out\n        /* \"--CODEGEN--\":4067:4483   */\n    tag_27:\n      0x00\n        /* \"--CODEGEN--\":4267:4269   */\n      0x20\n        /* \"--CODEGEN--\":4256:4265   */\n      dup3\n        /* \"--CODEGEN--\":4252:4270   */\n      add\n        /* \"--CODEGEN--\":4244:4270   */\n      swap1\n      pop\n        /* \"--CODEGEN--\":4317:4326   */\n      dup2\n        /* \"--CODEGEN--\":4311:4315   */\n      dup2\n        /* \"--CODEGEN--\":4307:4327   */\n      sub\n        /* \"--CODEGEN--\":4303:4304   */\n      0x00\n        /* \"--CODEGEN--\":4292:4301   */\n      dup4\n        /* \"--CODEGEN--\":4288:4305   */\n      add\n        /* \"--CODEGEN--\":4281:4328   */\n      mstore\n        /* \"--CODEGEN--\":4342:4473   */\n      tag_114\n        /* \"--CODEGEN--\":4468:4472   */\n      dup2\n        /* \"--CODEGEN--\":4342:4473   */\n      tag_97\n      jump\t// in\n    tag_114:\n        /* \"--CODEGEN--\":4334:4473   */\n      swap1\n      pop\n        /* \"--CODEGEN--\":4238:4483   */\n      swap2\n      swap1\n      pop\n      jump\t// out\n        /* \"--CODEGEN--\":4490:4712   */\n    tag_23:\n      0x00\n        /* \"--CODEGEN--\":4617:4619   */\n      0x20\n        /* \"--CODEGEN--\":4606:4615   */\n      dup3\n        /* \"--CODEGEN--\":4602:4620   */\n      add\n        /* \"--CODEGEN--\":4594:4620   */\n      swap1\n      pop\n        /* \"--CODEGEN--\":4631:4702   */\n      tag_116\n        /* \"--CODEGEN--\":4699:4700   */\n      0x00\n        /* \"--CODEGEN--\":4688:4697   */\n      dup4\n        /* \"--CODEGEN--\":4684:4701   */\n      add\n        /* \"--CODEGEN--\":4675:4681   */\n      dup5\n        /* \"--CODEGEN--\":4631:4702   */\n      tag_100\n      jump\t// in\n    tag_116:\n        /* \"--CODEGEN--\":4588:4712   */\n      swap3\n      swap2\n      pop\n      pop\n      jump\t// out\n        /* \"--CODEGEN--\":4719:4975   */\n    tag_56:\n      0x00\n        /* \"--CODEGEN--\":4781:4783   */\n      0x40\n        /* \"--CODEGEN--\":4775:4784   */\n      mload\n        /* \"--CODEGEN--\":4765:4784   */\n      swap1\n      pop\n        /* \"--CODEGEN--\":4819:4823   */\n      dup2\n        /* \"--CODEGEN--\":4811:4817   */\n      dup2\n        /* \"--CODEGEN--\":4807:4824   */\n      add\n        /* \"--CODEGEN--\":4918:4924   */\n      dup2\n        /* \"--CODEGEN--\":4906:4916   */\n      dup2\n        /* \"--CODEGEN--\":4903:4925   */\n      lt\n        /* \"--CODEGEN--\":4882:4900   */\n      0xffffffffffffffff\n        /* \"--CODEGEN--\":4870:4880   */\n      dup3\n        /* \"--CODEGEN--\":4867:4901   */\n      gt\n        /* \"--CODEGEN--\":4864:4926   */\n      or\n        /* \"--CODEGEN--\":4861:4863   */\n      iszero\n      tag_118\n      jumpi\n        /* \"--CODEGEN--\":4939:4940   */\n      0x00\n        /* \"--CODEGEN--\":4936:4937   */\n      dup1\n        /* \"--CODEGEN--\":4929:4941   */\n      revert\n        /* \"--CODEGEN--\":4861:4863   */\n    tag_118:\n        /* \"--CODEGEN--\":4959:4969   */\n      dup1\n        /* \"--CODEGEN--\":4955:4957   */\n      0x40\n        /* \"--CODEGEN--\":4948:4970   */\n      mstore\n        /* \"--CODEGEN--\":4759:4975   */\n      pop\n      swap2\n      swap1\n      pop\n      jump\t// out\n        /* \"--CODEGEN--\":4982:5304   */\n    tag_55:\n      0x00\n        /* \"--CODEGEN--\":5126:5144   */\n      0xffffffffffffffff\n        /* \"--CODEGEN--\":5118:5124   */\n      dup3\n        /* \"--CODEGEN--\":5115:5145   */\n      gt\n        /* \"--CODEGEN--\":5112:5114   */\n      iszero\n      tag_120\n      jumpi\n        /* \"--CODEGEN--\":5158:5159   */\n      0x00\n        /* \"--CODEGEN--\":5155:5156   */\n      dup1\n        /* \"--CODEGEN--\":5148:5160   */\n      revert\n        /* \"--CODEGEN--\":5112:5114   */\n    tag_120:\n        /* \"--CODEGEN--\":5225:5229   */\n      0x1f\n        /* \"--CODEGEN--\":5221:5230   */\n      not\n        /* \"--CODEGEN--\":5214:5218   */\n      0x1f\n        /* \"--CODEGEN--\":5206:5212   */\n      dup4\n        /* \"--CODEGEN--\":5202:5219   */\n      add\n        /* \"--CODEGEN--\":5198:5231   */\n      and\n        /* \"--CODEGEN--\":5190:5231   */\n      swap1\n      pop\n        /* \"--CODEGEN--\":5289:5293   */\n      0x20\n        /* \"--CODEGEN--\":5283:5287   */\n      dup2\n        /* \"--CODEGEN--\":5279:5294   */\n      add\n        /* \"--CODEGEN--\":5271:5294   */\n      swap1\n      pop\n        /* \"--CODEGEN--\":5049:5304   */\n      swap2\n      swap1\n      pop\n      jump\t// out\n        /* \"--CODEGEN--\":5311:5433   */\n    tag_84:\n      0x00\n        /* \"--CODEGEN--\":5405:5410   */\n      dup2\n        /* \"--CODEGEN--\":5399:5411   */\n      mload\n        /* \"--CODEGEN--\":5389:5411   */\n      swap1\n      pop\n        /* \"--CODEGEN--\":5370:5433   */\n      swap2\n      swap1\n      pop\n      jump\t// out\n        /* \"--CODEGEN--\":5441:5604   */\n    tag_86:\n      0x00\n        /* \"--CODEGEN--\":5556:5562   */\n      dup3\n        /* \"--CODEGEN--\":5551:5554   */\n      dup3\n        /* \"--CODEGEN--\":5544:5563   */\n      mstore\n        /* \"--CODEGEN--\":5593:5597   */\n      0x20\n        /* \"--CODEGEN--\":5588:5591   */\n      dup3\n        /* \"--CODEGEN--\":5584:5598   */\n      add\n        /* \"--CODEGEN--\":5569:5598   */\n      swap1\n      pop\n        /* \"--CODEGEN--\":5537:5604   */\n      swap3\n      swap2\n      pop\n      pop\n      jump\t// out\n        /* \"--CODEGEN--\":5613:5758   */\n    tag_95:\n      0x00\n        /* \"--CODEGEN--\":5749:5752   */\n      dup2\n        /* \"--CODEGEN--\":5734:5752   */\n      swap1\n      pop\n        /* \"--CODEGEN--\":5727:5758   */\n      swap3\n      swap2\n      pop\n      pop\n      jump\t// out\n        /* \"--CODEGEN--\":5766:5857   */\n    tag_76:\n      0x00\n        /* \"--CODEGEN--\":5828:5852   */\n      tag_125\n        /* \"--CODEGEN--\":5846:5851   */\n      dup3\n        /* \"--CODEGEN--\":5828:5852   */\n      tag_126\n      jump\t// in\n    tag_125:\n        /* \"--CODEGEN--\":5817:5852   */\n      swap1\n      pop\n        /* \"--CODEGEN--\":5811:5857   */\n      swap2\n      swap1\n      pop\n      jump\t// out\n        /* \"--CODEGEN--\":5864:5936   */\n    tag_80:\n      0x00\n        /* \"--CODEGEN--\":5926:5931   */\n      dup2\n        /* \"--CODEGEN--\":5915:5931   */\n      swap1\n      pop\n        /* \"--CODEGEN--\":5909:5936   */\n      swap2\n      swap1\n      pop\n      jump\t// out\n        /* \"--CODEGEN--\":5943:6064   */\n    tag_126:\n      0x00\n        /* \"--CODEGEN--\":6016:6058   */\n      0xffffffffffffffffffffffffffffffffffffffff\n        /* \"--CODEGEN--\":6009:6014   */\n      dup3\n        /* \"--CODEGEN--\":6005:6059   */\n      and\n        /* \"--CODEGEN--\":5994:6059   */\n      swap1\n      pop\n        /* \"--CODEGEN--\":5988:6064   */\n      swap2\n      swap1\n      pop\n      jump\t// out\n        /* \"--CODEGEN--\":6071:6143   */\n    tag_103:\n      0x00\n        /* \"--CODEGEN--\":6133:6138   */\n      dup2\n        /* \"--CODEGEN--\":6122:6138   */\n      swap1\n      pop\n        /* \"--CODEGEN--\":6116:6143   */\n      swap2\n      swap1\n      pop\n      jump\t// out\n        /* \"--CODEGEN--\":6151:6296   */\n    tag_59:\n        /* \"--CODEGEN--\":6232:6238   */\n      dup3\n        /* \"--CODEGEN--\":6227:6230   */\n      dup2\n        /* \"--CODEGEN--\":6222:6225   */\n      dup4\n        /* \"--CODEGEN--\":6209:6239   */\n      calldatacopy\n        /* \"--CODEGEN--\":6288:6289   */\n      0x00\n        /* \"--CODEGEN--\":6279:6285   */\n      dup4\n        /* \"--CODEGEN--\":6274:6277   */\n      dup4\n        /* \"--CODEGEN--\":6270:6286   */\n      add\n        /* \"--CODEGEN--\":6263:6290   */\n      mstore\n        /* \"--CODEGEN--\":6202:6296   */\n      pop\n      pop\n      pop\n      jump\t// out\n        /* \"--CODEGEN--\":6305:6573   */\n    tag_88:\n        /* \"--CODEGEN--\":6370:6371   */\n      0x00\n        /* \"--CODEGEN--\":6377:6478   */\n    tag_132:\n        /* \"--CODEGEN--\":6391:6397   */\n      dup4\n        /* \"--CODEGEN--\":6388:6389   */\n      dup2\n        /* \"--CODEGEN--\":6385:6398   */\n      lt\n        /* \"--CODEGEN--\":6377:6478   */\n      iszero\n      tag_134\n      jumpi\n        /* \"--CODEGEN--\":6467:6468   */\n      dup1\n        /* \"--CODEGEN--\":6462:6465   */\n      dup3\n        /* \"--CODEGEN--\":6458:6469   */\n      add\n        /* \"--CODEGEN--\":6452:6470   */\n      mload\n        /* \"--CODEGEN--\":6448:6449   */\n      dup2\n        /* \"--CODEGEN--\":6443:6446   */\n      dup5\n        /* \"--CODEGEN--\":6439:6450   */\n      add\n        /* \"--CODEGEN--\":6432:6471   */\n      mstore\n        /* \"--CODEGEN--\":6413:6415   */\n      0x20\n        /* \"--CODEGEN--\":6410:6411   */\n      dup2\n        /* \"--CODEGEN--\":6406:6416   */\n      add\n        /* \"--CODEGEN--\":6401:6416   */\n      swap1\n      pop\n        /* \"--CODEGEN--\":6377:6478   */\n      jump(tag_132)\n    tag_134:\n        /* \"--CODEGEN--\":6493:6499   */\n      dup4\n        /* \"--CODEGEN--\":6490:6491   */\n      dup2\n        /* \"--CODEGEN--\":6487:6500   */\n      gt\n        /* \"--CODEGEN--\":6484:6486   */\n      iszero\n      tag_135\n      jumpi\n        /* \"--CODEGEN--\":6558:6559   */\n      0x00\n        /* \"--CODEGEN--\":6549:6555   */\n      dup5\n        /* \"--CODEGEN--\":6544:6547   */\n      dup5\n        /* \"--CODEGEN--\":6540:6556   */\n      add\n        /* \"--CODEGEN--\":6533:6560   */\n      mstore\n        /* \"--CODEGEN--\":6484:6486   */\n    tag_135:\n        /* \"--CODEGEN--\":6354:6573   */\n      pop\n      pop\n      pop\n      pop\n      jump\t// out\n        /* \"--CODEGEN--\":6581:6678   */\n    tag_90:\n      0x00\n        /* \"--CODEGEN--\":6669:6671   */\n      0x1f\n        /* \"--CODEGEN--\":6665:6672   */\n      not\n        /* \"--CODEGEN--\":6660:6662   */\n      0x1f\n        /* \"--CODEGEN--\":6653:6658   */\n      dup4\n        /* \"--CODEGEN--\":6649:6663   */\n      add\n        /* \"--CODEGEN--\":6645:6673   */\n      and\n        /* \"--CODEGEN--\":6635:6673   */\n      swap1\n      pop\n        /* \"--CODEGEN--\":6629:6678   */\n      swap2\n      swap1\n      pop\n      jump\t// out\n        /* \"--CODEGEN--\":6686:6803   */\n    tag_63:\n        /* \"--CODEGEN--\":6755:6779   */\n      tag_138\n        /* \"--CODEGEN--\":6773:6778   */\n      dup2\n        /* \"--CODEGEN--\":6755:6779   */\n      tag_103\n      jump\t// in\n    tag_138:\n        /* \"--CODEGEN--\":6748:6753   */\n      dup2\n        /* \"--CODEGEN--\":6745:6780   */\n      eq\n        /* \"--CODEGEN--\":6735:6737   */\n      tag_139\n      jumpi\n        /* \"--CODEGEN--\":6794:6795   */\n      0x00\n        /* \"--CODEGEN--\":6791:6792   */\n      dup1\n        /* \"--CODEGEN--\":6784:6796   */\n      revert\n        /* \"--CODEGEN--\":6735:6737   */\n    tag_139:\n        /* \"--CODEGEN--\":6729:6803   */\n      pop\n      jump\t// out\n\n    auxdata: 0xa26469706673582212205e9b793e92745c7cd437ad42d4c55bcd631b3c826d220270a5503a162dedf41b64736f6c634300060c0033\n}\n",
				"bytecode": {
					"linkReferences": {},
					"object": "608060405234801561001057600080fd5b50336000806101000a81548173ffffffffffffffffffffffffffffffffffffffff021916908373ffffffffffffffffffffffffffffffffffffffff160217905550610786806100606000396000f3fe608060405234801561001057600080fd5b506004361061004c5760003560e01c80635113940d146100515780637b81880c1461006f578063d56c52ae1461008b578063e199aaf7146100a7575b600080fd5b6100596100d7565b604051610066919061057f565b60405180910390f35b61008960048036038101906100849190610417565b6100fb565b005b6100a560048036038101906100a091906103d6565b61020c565b005b6100c160048036038101906100bc91906103d6565b610282565b6040516100ce9190610605565b60405180910390f35b60008054906101000a900473ffffffffffffffffffffffffffffffffffffffff1681565b3360008054906101000a900473ffffffffffffffffffffffffffffffffffffffff1673ffffffffffffffffffffffffffffffffffffffff168173ffffffffffffffffffffffffffffffffffffffff161461018a576040517f08c379a0000000000000000000000000000000000000000000000000000000008152600401610181906105e5565b60405180910390fd5b60008360405160200161019d9190610568565b6040516020818303038152906040528051906020012090508260016000838152602001908152602001600020819055507ffd83de6de76bf6a6a9c1b8980aad7370b0d3759b63fc0d30ddb7f30839ce82b581846040516101fe92919061059a565b60405180910390a150505050565b6002819080600181540180825580915050600190039060005260206000200160009091909190915090805190602001906102479291906102d0565b507fca981d9115ef6cc4d88019fa70f9ffa85406c600b92296a25c270da252561b2c8160405161027791906105c3565b60405180910390a150565b600080826040516020016102969190610568565b6040516020818303038152906040528051906020012090506000600160008381526020019081526020016000205490508092505050919050565b828054600181600116156101000203166002900490600052602060002090601f016020900481019282601f1061031157805160ff191683800117855561033f565b8280016001018555821561033f579182015b8281111561033e578251825591602001919060010190610323565b5b50905061034c9190610350565b5090565b5b80821115610369576000816000905550600101610351565b5090565b600082601f83011261037e57600080fd5b813561039161038c8261064d565b610620565b915080825260208301602083018583830111156103ad57600080fd5b6103b88382846106e6565b50505092915050565b6000813590506103d081610739565b92915050565b6000602082840312156103e857600080fd5b600082013567ffffffffffffffff81111561040257600080fd5b61040e8482850161036d565b91505092915050565b6000806040838503121561042a57600080fd5b600083013567ffffffffffffffff81111561044457600080fd5b6104508582860161036d565b9250506020610461858286016103c1565b9150509250929050565b610474816106a0565b82525050565b610483816106b2565b82525050565b600061049482610679565b61049e8185610684565b93506104ae8185602086016106f5565b6104b781610728565b840191505092915050565b60006104cd82610679565b6104d78185610695565b93506104e78185602086016106f5565b80840191505092915050565b6000610500602e83610684565b91507f4e6f207469656e6573207065726d69736f73207061726120656a65637574617260008301527f20657374612066756e63696f6e2e0000000000000000000000000000000000006020830152604082019050919050565b610562816106dc565b82525050565b600061057482846104c2565b915081905092915050565b6000602082019050610594600083018461046b565b92915050565b60006040820190506105af600083018561047a565b6105bc6020830184610559565b9392505050565b600060208201905081810360008301526105dd8184610489565b905092915050565b600060208201905081810360008301526105fe816104f3565b9050919050565b600060208201905061061a6000830184610559565b92915050565b6000604051905081810181811067ffffffffffffffff8211171561064357600080fd5b8060405250919050565b600067ffffffffffffffff82111561066457600080fd5b601f19601f8301169050602081019050919050565b600081519050919050565b600082825260208201905092915050565b600081905092915050565b60006106ab826106bc565b9050919050565b6000819050919050565b600073ffffffffffffffffffffffffffffffffffffffff82169050919050565b6000819050919050565b82818337600083830152505050565b60005b838110156107135780820151818401526020810190506106f8565b83811115610722576000848401525b50505050565b6000601f19601f8301169050919050565b610742816106dc565b811461074d57600080fd5b5056fea26469706673582212205e9b793e92745c7cd437ad42d4c55bcd631b3c826d220270a5503a162dedf41b64736f6c634300060c0033",
					"opcodes": "PUSH1 0x80 PUSH1 0x40 MSTORE CALLVALUE DUP1 ISZERO PUSH2 0x10 JUMPI PUSH1 0x0 DUP1 REVERT JUMPDEST POP CALLER PUSH1 0x0 DUP1 PUSH2 0x100 EXP DUP2 SLOAD DUP2 PUSH20 0xFFFFFFFFFFFFFFFFFFFFFFFFFFFFFFFFFFFFFFFF MUL NOT AND SWAP1 DUP4 PUSH20 0xFFFFFFFFFFFFFFFFFFFFFFFFFFFFFFFFFFFFFFFF AND MUL OR SWAP1 SSTORE POP PUSH2 0x786 DUP1 PUSH2 0x60 PUSH1 0x0 CODECOPY PUSH1 0x0 RETURN INVALID PUSH1 0x80 PUSH1 0x40 MSTORE CALLVALUE DUP1 ISZERO PUSH2 0x10 JUMPI PUSH1 0x0 DUP1 REVERT JUMPDEST POP PUSH1 0x4 CALLDATASIZE LT PUSH2 0x4C JUMPI PUSH1 0x0 CALLDATALOAD PUSH1 0xE0 SHR DUP1 PUSH4 0x5113940D EQ PUSH2 0x51 JUMPI DUP1 PUSH4 0x7B81880C EQ PUSH2 0x6F JUMPI DUP1 PUSH4 0xD56C52AE EQ PUSH2 0x8B JUMPI DUP1 PUSH4 0xE199AAF7 EQ PUSH2 0xA7 JUMPI JUMPDEST PUSH1 0x0 DUP1 REVERT JUMPDEST PUSH2 0x59 PUSH2 0xD7 JUMP JUMPDEST PUSH1 0x40 MLOAD PUSH2 0x66 SWAP2 SWAP1 PUSH2 0x57F JUMP JUMPDEST PUSH1 0x40 MLOAD DUP1 SWAP2 SUB SWAP1 RETURN JUMPDEST PUSH2 0x89 PUSH1 0x4 DUP1 CALLDATASIZE SUB DUP2 ADD SWAP1 PUSH2 0x84 SWAP2 SWAP1 PUSH2 0x417 JUMP JUMPDEST PUSH2 0xFB JUMP JUMPDEST STOP JUMPDEST PUSH2 0xA5 PUSH1 0x4 DUP1 CALLDATASIZE SUB DUP2 ADD SWAP1 PUSH2 0xA0 SWAP2 SWAP1 PUSH2 0x3D6 JUMP JUMPDEST PUSH2 0x20C JUMP JUMPDEST STOP JUMPDEST PUSH2 0xC1 PUSH1 0x4 DUP1 CALLDATASIZE SUB DUP2 ADD SWAP1 PUSH2 0xBC SWAP2 SWAP1 PUSH2 0x3D6 JUMP JUMPDEST PUSH2 0x282 JUMP JUMPDEST PUSH1 0x40 MLOAD PUSH2 0xCE SWAP2 SWAP1 PUSH2 0x605 JUMP JUMPDEST PUSH1 0x40 MLOAD DUP1 SWAP2 SUB SWAP1 RETURN JUMPDEST PUSH1 0x0 DUP1 SLOAD SWAP1 PUSH2 0x100 EXP SWAP1 DIV PUSH20 0xFFFFFFFFFFFFFFFFFFFFFFFFFFFFFFFFFFFFFFFF AND DUP2 JUMP JUMPDEST CALLER PUSH1 0x0 DUP1 SLOAD SWAP1 PUSH2 0x100 EXP SWAP1 DIV PUSH20 0xFFFFFFFFFFFFFFFFFFFFFFFFFFFFFFFFFFFFFFFF AND PUSH20 0xFFFFFFFFFFFFFFFFFFFFFFFFFFFFFFFFFFFFFFFF AND DUP2 PUSH20 0xFFFFFFFFFFFFFFFFFFFFFFFFFFFFFFFFFFFFFFFF AND EQ PUSH2 0x18A JUMPI PUSH1 0x40 MLOAD PUSH32 0x8C379A000000000000000000000000000000000000000000000000000000000 DUP2 MSTORE PUSH1 0x4 ADD PUSH2 0x181 SWAP1 PUSH2 0x5E5 JUMP JUMPDEST PUSH1 0x40 MLOAD DUP1 SWAP2 SUB SWAP1 REVERT JUMPDEST PUSH1 0x0 DUP4 PUSH1 0x40 MLOAD PUSH1 0x20 ADD PUSH2 0x19D SWAP2 SWAP1 PUSH2 0x568 JUMP JUMPDEST PUSH1 0x40 MLOAD PUSH1 0x20 DUP2 DUP4 SUB SUB DUP2 MSTORE SWAP1 PUSH1 0x40 MSTORE DUP1 MLOAD SWAP1 PUSH1 0x20 ADD KECCAK256 SWAP1 POP DUP3 PUSH1 0x1 PUSH1 0x0 DUP4 DUP2 MSTORE PUSH1 0x20 ADD SWAP1 DUP2 MSTORE PUSH1 0x20 ADD PUSH1 0x0 KECCAK256 DUP2 SWAP1 SSTORE POP PUSH32 0xFD83DE6DE76BF6A6A9C1B8980AAD7370B0D3759B63FC0D30DDB7F30839CE82B5 DUP2 DUP5 PUSH1 0x40 MLOAD PUSH2 0x1FE SWAP3 SWAP2 SWAP1 PUSH2 0x59A JUMP JUMPDEST PUSH1 0x40 MLOAD DUP1 SWAP2 SUB SWAP1 LOG1 POP POP POP POP JUMP JUMPDEST PUSH1 0x2 DUP2 SWAP1 DUP1 PUSH1 0x1 DUP2 SLOAD ADD DUP1 DUP3 SSTORE DUP1 SWAP2 POP POP PUSH1 0x1 SWAP1 SUB SWAP1 PUSH1 0x0 MSTORE PUSH1 0x20 PUSH1 0x0 KECCAK256 ADD PUSH1 0x0 SWAP1 SWAP2 SWAP1 SWAP2 SWAP1 SWAP2 POP SWAP1 DUP1 MLOAD SWAP1 PUSH1 0x20 ADD SWAP1 PUSH2 0x247 SWAP3 SWAP2 SWAP1 PUSH2 0x2D0 JUMP JUMPDEST POP PUSH32 0xCA981D9115EF6CC4D88019FA70F9FFA85406C600B92296A25C270DA252561B2C DUP2 PUSH1 0x40 MLOAD PUSH2 0x277 SWAP2 SWAP1 PUSH2 0x5C3 JUMP JUMPDEST PUSH1 0x40 MLOAD DUP1 SWAP2 SUB SWAP1 LOG1 POP JUMP JUMPDEST PUSH1 0x0 DUP1 DUP3 PUSH1 0x40 MLOAD PUSH1 0x20 ADD PUSH2 0x296 SWAP2 SWAP1 PUSH2 0x568 JUMP JUMPDEST PUSH1 0x40 MLOAD PUSH1 0x20 DUP2 DUP4 SUB SUB DUP2 MSTORE SWAP1 PUSH1 0x40 MSTORE DUP1 MLOAD SWAP1 PUSH1 0x20 ADD KECCAK256 SWAP1 POP PUSH1 0x0 PUSH1 0x1 PUSH1 0x0 DUP4 DUP2 MSTORE PUSH1 0x20 ADD SWAP1 DUP2 MSTORE PUSH1 0x20 ADD PUSH1 0x0 KECCAK256 SLOAD SWAP1 POP DUP1 SWAP3 POP POP POP SWAP2 SWAP1 POP JUMP JUMPDEST DUP3 DUP1 SLOAD PUSH1 0x1 DUP2 PUSH1 0x1 AND ISZERO PUSH2 0x100 MUL SUB AND PUSH1 0x2 SWAP1 DIV SWAP1 PUSH1 0x0 MSTORE PUSH1 0x20 PUSH1 0x0 KECCAK256 SWAP1 PUSH1 0x1F ADD PUSH1 0x20 SWAP1 DIV DUP2 ADD SWAP3 DUP3 PUSH1 0x1F LT PUSH2 0x311 JUMPI DUP1 MLOAD PUSH1 0xFF NOT AND DUP4 DUP1 ADD OR DUP6 SSTORE PUSH2 0x33F JUMP JUMPDEST DUP3 DUP1 ADD PUSH1 0x1 ADD DUP6 SSTORE DUP3 ISZERO PUSH2 0x33F JUMPI SWAP2 DUP3 ADD JUMPDEST DUP3 DUP2 GT ISZERO PUSH2 0x33E JUMPI DUP3 MLOAD DUP3 SSTORE SWAP2 PUSH1 0x20 ADD SWAP2 SWAP1 PUSH1 0x1 ADD SWAP1 PUSH2 0x323 JUMP JUMPDEST JUMPDEST POP SWAP1 POP PUSH2 0x34C SWAP2 SWAP1 PUSH2 0x350 JUMP JUMPDEST POP SWAP1 JUMP JUMPDEST JUMPDEST DUP1 DUP3 GT ISZERO PUSH2 0x369 JUMPI PUSH1 0x0 DUP2 PUSH1 0x0 SWAP1 SSTORE POP PUSH1 0x1 ADD PUSH2 0x351 JUMP JUMPDEST POP SWAP1 JUMP JUMPDEST PUSH1 0x0 DUP3 PUSH1 0x1F DUP4 ADD SLT PUSH2 0x37E JUMPI PUSH1 0x0 DUP1 REVERT JUMPDEST DUP2 CALLDATALOAD PUSH2 0x391 PUSH2 0x38C DUP3 PUSH2 0x64D JUMP JUMPDEST PUSH2 0x620 JUMP JUMPDEST SWAP2 POP DUP1 DUP3 MSTORE PUSH1 0x20 DUP4 ADD PUSH1 0x20 DUP4 ADD DUP6 DUP4 DUP4 ADD GT ISZERO PUSH2 0x3AD JUMPI PUSH1 0x0 DUP1 REVERT JUMPDEST PUSH2 0x3B8 DUP4 DUP3 DUP5 PUSH2 0x6E6 JUMP JUMPDEST POP POP POP SWAP3 SWAP2 POP POP JUMP JUMPDEST PUSH1 0x0 DUP2 CALLDATALOAD SWAP1 POP PUSH2 0x3D0 DUP2 PUSH2 0x739 JUMP JUMPDEST SWAP3 SWAP2 POP POP JUMP JUMPDEST PUSH1 0x0 PUSH1 0x20 DUP3 DUP5 SUB SLT ISZERO PUSH2 0x3E8 JUMPI PUSH1 0x0 DUP1 REVERT JUMPDEST PUSH1 0x0 DUP3 ADD CALLDATALOAD PUSH8 0xFFFFFFFFFFFFFFFF DUP2 GT ISZERO PUSH2 0x402 JUMPI PUSH1 0x0 DUP1 REVERT JUMPDEST PUSH2 0x40E DUP5 DUP3 DUP6 ADD PUSH2 0x36D JUMP JUMPDEST SWAP2 POP POP SWAP3 SWAP2 POP POP JUMP JUMPDEST PUSH1 0x0 DUP1 PUSH1 0x40 DUP4 DUP6 SUB SLT ISZERO PUSH2 0x42A JUMPI PUSH1 0x0 DUP1 REVERT JUMPDEST PUSH1 0x0 DUP4 ADD CALLDATALOAD PUSH8 0xFFFFFFFFFFFFFFFF DUP2 GT ISZERO PUSH2 0x444 JUMPI PUSH1 0x0 DUP1 REVERT JUMPDEST PUSH2 0x450 DUP6 DUP3 DUP7 ADD PUSH2 0x36D JUMP JUMPDEST SWAP3 POP POP PUSH1 0x20 PUSH2 0x461 DUP6 DUP3 DUP7 ADD PUSH2 0x3C1 JUMP JUMPDEST SWAP2 POP POP SWAP3 POP SWAP3 SWAP1 POP JUMP JUMPDEST PUSH2 0x474 DUP2 PUSH2 0x6A0 JUMP JUMPDEST DUP3 MSTORE POP POP JUMP JUMPDEST PUSH2 0x483 DUP2 PUSH2 0x6B2 JUMP JUMPDEST DUP3 MSTORE POP POP JUMP JUMPDEST PUSH1 0x0 PUSH2 0x494 DUP3 PUSH2 0x679 JUMP JUMPDEST PUSH2 0x49E DUP2 DUP6 PUSH2 0x684 JUMP JUMPDEST SWAP4 POP PUSH2 0x4AE DUP2 DUP6 PUSH1 0x20 DUP7 ADD PUSH2 0x6F5 JUMP JUMPDEST PUSH2 0x4B7 DUP2 PUSH2 0x728 JUMP JUMPDEST DUP5 ADD SWAP2 POP POP SWAP3 SWAP2 POP POP JUMP JUMPDEST PUSH1 0x0 PUSH2 0x4CD DUP3 PUSH2 0x679 JUMP JUMPDEST PUSH2 0x4D7 DUP2 DUP6 PUSH2 0x695 JUMP JUMPDEST SWAP4 POP PUSH2 0x4E7 DUP2 DUP6 PUSH1 0x20 DUP7 ADD PUSH2 0x6F5 JUMP JUMPDEST DUP1 DUP5 ADD SWAP2 POP POP SWAP3 SWAP2 POP POP JUMP JUMPDEST PUSH1 0x0 PUSH2 0x500 PUSH1 0x2E DUP4 PUSH2 0x684 JUMP JUMPDEST SWAP2 POP PUSH32 0x4E6F207469656E6573207065726D69736F73207061726120656A656375746172 PUSH1 0x0 DUP4 ADD MSTORE PUSH32 0x20657374612066756E63696F6E2E000000000000000000000000000000000000 PUSH1 0x20 DUP4 ADD MSTORE PUSH1 0x40 DUP3 ADD SWAP1 POP SWAP2 SWAP1 POP JUMP JUMPDEST PUSH2 0x562 DUP2 PUSH2 0x6DC JUMP JUMPDEST DUP3 MSTORE POP POP JUMP JUMPDEST PUSH1 0x0 PUSH2 0x574 DUP3 DUP5 PUSH2 0x4C2 JUMP JUMPDEST SWAP2 POP DUP2 SWAP1 POP SWAP3 SWAP2 POP POP JUMP JUMPDEST PUSH1 0x0 PUSH1 0x20 DUP3 ADD SWAP1 POP PUSH2 0x594 PUSH1 0x0 DUP4 ADD DUP5 PUSH2 0x46B JUMP JUMPDEST SWAP3 SWAP2 POP POP JUMP JUMPDEST PUSH1 0x0 PUSH1 0x40 DUP3 ADD SWAP1 POP PUSH2 0x5AF PUSH1 0x0 DUP4 ADD DUP6 PUSH2 0x47A JUMP JUMPDEST PUSH2 0x5BC PUSH1 0x20 DUP4 ADD DUP5 PUSH2 0x559 JUMP JUMPDEST SWAP4 SWAP3 POP POP POP JUMP JUMPDEST PUSH1 0x0 PUSH1 0x20 DUP3 ADD SWAP1 POP DUP2 DUP2 SUB PUSH1 0x0 DUP4 ADD MSTORE PUSH2 0x5DD DUP2 DUP5 PUSH2 0x489 JUMP JUMPDEST SWAP1 POP SWAP3 SWAP2 POP POP JUMP JUMPDEST PUSH1 0x0 PUSH1 0x20 DUP3 ADD SWAP1 POP DUP2 DUP2 SUB PUSH1 0x0 DUP4 ADD MSTORE PUSH2 0x5FE DUP2 PUSH2 0x4F3 JUMP JUMPDEST SWAP1 POP SWAP2 SWAP1 POP JUMP JUMPDEST PUSH1 0x0 PUSH1 0x20 DUP3 ADD SWAP1 POP PUSH2 0x61A PUSH1 0x0 DUP4 ADD DUP5 PUSH2 0x559 JUMP JUMPDEST SWAP3 SWAP2 POP POP JUMP JUMPDEST PUSH1 0x0 PUSH1 0x40 MLOAD SWAP1 POP DUP2 DUP2 ADD DUP2 DUP2 LT PUSH8 0xFFFFFFFFFFFFFFFF DUP3 GT OR ISZERO PUSH2 0x643 JUMPI PUSH1 0x0 DUP1 REVERT JUMPDEST DUP1 PUSH1 0x40 MSTORE POP SWAP2 SWAP1 POP JUMP JUMPDEST PUSH1 0x0 PUSH8 0xFFFFFFFFFFFFFFFF DUP3 GT ISZERO PUSH2 0x664 JUMPI PUSH1 0x0 DUP1 REVERT JUMPDEST PUSH1 0x1F NOT PUSH1 0x1F DUP4 ADD AND SWAP1 POP PUSH1 0x20 DUP2 ADD SWAP1 POP SWAP2 SWAP1 POP JUMP JUMPDEST PUSH1 0x0 DUP2 MLOAD SWAP1 POP SWAP2 SWAP1 POP JUMP JUMPDEST PUSH1 0x0 DUP3 DUP3 MSTORE PUSH1 0x20 DUP3 ADD SWAP1 POP SWAP3 SWAP2 POP POP JUMP JUMPDEST PUSH1 0x0 DUP2 SWAP1 POP SWAP3 SWAP2 POP POP JUMP JUMPDEST PUSH1 0x0 PUSH2 0x6AB DUP3 PUSH2 0x6BC JUMP JUMPDEST SWAP1 POP SWAP2 SWAP1 POP JUMP JUMPDEST PUSH1 0x0 DUP2 SWAP1 POP SWAP2 SWAP1 POP JUMP JUMPDEST PUSH1 0x0 PUSH20 0xFFFFFFFFFFFFFFFFFFFFFFFFFFFFFFFFFFFFFFFF DUP3 AND SWAP1 POP SWAP2 SWAP1 POP JUMP JUMPDEST PUSH1 0x0 DUP2 SWAP1 POP SWAP2 SWAP1 POP JUMP JUMPDEST DUP3 DUP2 DUP4 CALLDATACOPY PUSH1 0x0 DUP4 DUP4 ADD MSTORE POP POP POP JUMP JUMPDEST PUSH1 0x0 JUMPDEST DUP4 DUP2 LT ISZERO PUSH2 0x713 JUMPI DUP1 DUP3 ADD MLOAD DUP2 DUP5 ADD MSTORE PUSH1 0x20 DUP2 ADD SWAP1 POP PUSH2 0x6F8 JUMP JUMPDEST DUP4 DUP2 GT ISZERO PUSH2 0x722 JUMPI PUSH1 0x0 DUP5 DUP5 ADD MSTORE JUMPDEST POP POP POP POP JUMP JUMPDEST PUSH1 0x0 PUSH1 0x1F NOT PUSH1 0x1F DUP4 ADD AND SWAP1 POP SWAP2 SWAP1 POP JUMP JUMPDEST PUSH2 0x742 DUP2 PUSH2 0x6DC JUMP JUMPDEST DUP2 EQ PUSH2 0x74D JUMPI PUSH1 0x0 DUP1 REVERT JUMPDEST POP JUMP INVALID LOG2 PUSH5 0x6970667358 0x22 SLT KECCAK256 0x5E SWAP12 PUSH26 0x3E92745C7CD437AD42D4C55BCD631B3C826D220270A5503A162D 0xED DELEGATECALL SHL PUSH5 0x736F6C6343 STOP MOD 0xC STOP CALLER "
				},
				"gasEstimates": {
					"creation": {
						"codeDepositCost": "385200",
						"executionCost": "21290",
						"totalCost": "406490"
					},
					"external": {
						"askToSeeNotes(string)": "infinite",
						"evaluate(string,uint256)": "infinite",
						"professor()": "1189",
						"seeNotes(string)": "infinite"
					}
				},
				"methodIdentifiers": {
					"askToSeeNotes(string)": "d56c52ae",
					"evaluate(string,uint256)": "7b81880c",
					"professor()": "5113940d",
					"seeNotes(string)": "e199aaf7"
				}
			},
			"storageLayout": {
				"storage": [
					{
						"astId": 4,
						"contract": "NOTES/notes.sol:notas",
						"label": "professor",
						"offset": 0,
						"slot": "0",
						"type": "t_address"
					},
					{
						"astId": 17,
						"contract": "NOTES/notes.sol:notas",
						"label": "Notes",
						"offset": 0,
						"slot": "1",
						"type": "t_mapping(t_bytes32,t_uint256)"
					},
					{
						"astId": 20,
						"contract": "NOTES/notes.sol:notas",
						"label": "revisions",
						"offset": 0,
						"slot": "2",
						"type": "t_array(t_string_storage)dyn_storage"
					}
				],
				"types": {
					"t_address": {
						"encoding": "inplace",
						"label": "address",
						"numberOfBytes": "20"
					},
					"t_array(t_string_storage)dyn_storage": {
						"base": "t_string_storage",
						"encoding": "dynamic_array",
						"label": "string[]",
						"numberOfBytes": "32"
					},
					"t_bytes32": {
						"encoding": "inplace",
						"label": "bytes32",
						"numberOfBytes": "32"
					},
					"t_mapping(t_bytes32,t_uint256)": {
						"encoding": "mapping",
						"key": "t_bytes32",
						"label": "mapping(bytes32 => uint256)",
						"numberOfBytes": "32",
						"value": "t_uint256"
					},
					"t_string_storage": {
						"encoding": "bytes",
						"label": "string",
						"numberOfBytes": "32"
					},
					"t_uint256": {
						"encoding": "inplace",
						"label": "uint256",
						"numberOfBytes": "32"
					}
				}
			},
			"userdoc": {
				"kind": "user",
				"methods": {},
				"version": 1
			}
		}
	}
}