{
	"NOTES/notes.sol": {
		"notas": {
			"abi": [
				{
					"inputs": [],
					"stateMutability": "nonpayable",
					"type": "constructor"
				},
				{
					"anonymous": false,
					"inputs": [
						{
							"indexed": false,
							"internalType": "bytes32",
							"name": "",
							"type": "bytes32"
						},
						{
							"indexed": false,
							"internalType": "uint256",
							"name": "",
							"type": "uint256"
						}
					],
					"name": "evaluated_student",
					"type": "event"
				},
				{
					"anonymous": false,
					"inputs": [
						{
							"indexed": false,
							"internalType": "string",
							"name": "",
							"type": "string"
						}
					],
					"name": "revision",
					"type": "event"
				},
				{
					"inputs": [
						{
							"internalType": "string",
							"name": "_studentId",
							"type": "string"
						}
					],
					"name": "askToSeeNotes",
					"outputs": [],
					"stateMutability": "nonpayable",
					"type": "function"
				},
				{
					"inputs": [
						{
							"internalType": "string",
							"name": "_studentId",
							"type": "string"
						},
						{
							"internalType": "uint256",
							"name": "_note",
							"type": "uint256"
						}
					],
					"name": "evaluate",
					"outputs": [],
					"stateMutability": "nonpayable",
					"type": "function"
				},
				{
					"inputs": [],
					"name": "professor",
					"outputs": [
						{
							"internalType": "address",
							"name": "",
							"type": "address"
						}
					],
					"stateMutability": "view",
					"type": "function"
				},
				{
					"inputs": [
						{
							"internalType": "string",
							"name": "_studentId",
							"type": "string"
						}
					],
					"name": "seeNotes",
					"outputs": [
						{
							"internalType": "uint256",
							"name": "",
							"type": "uint256"
						}
					],
					"stateMutability": "view",
					"type": "function"
				},
				{
					"inputs": [],
					"name": "seeRevisions",
					"outputs": [
						{
							"internalType": "string[]",
							"name": "",
							"type": "string[]"
						}
					],
					"stateMutability": "view",
					"type": "function"
				}
			],
			"devdoc": {
				"kind": "dev",
				"methods": {},
				"version": 1
			},
			"evm": {
				"assembly": "    /* \"NOTES/notes.sol\":104:2219  contract notas {\r... */\n  mstore(0x40, 0x80)\n    /* \"NOTES/notes.sol\":221:284  constructor () public {\r... */\n  callvalue\n  dup1\n  iszero\n  tag_1\n  jumpi\n  0x00\n  dup1\n  revert\ntag_1:\n  pop\n    /* \"NOTES/notes.sol\":266:276  msg.sender */\n  caller\n    /* \"NOTES/notes.sol\":254:263  professor */\n  0x00\n  dup1\n    /* \"NOTES/notes.sol\":254:276  professor = msg.sender */\n  0x0100\n  exp\n  dup2\n  sload\n  dup2\n  0xffffffffffffffffffffffffffffffffffffffff\n  mul\n  not\n  and\n  swap1\n  dup4\n  0xffffffffffffffffffffffffffffffffffffffff\n  and\n  mul\n  or\n  swap1\n  sstore\n  pop\n    /* \"NOTES/notes.sol\":104:2219  contract notas {\r... */\n  dataSize(sub_0)\n  dup1\n  dataOffset(sub_0)\n  0x00\n  codecopy\n  0x00\n  return\nstop\n\nsub_0: assembly {\n        /* \"NOTES/notes.sol\":104:2219  contract notas {\r... */\n      mstore(0x40, 0x80)\n      callvalue\n      dup1\n      iszero\n      tag_1\n      jumpi\n      0x00\n      dup1\n      revert\n    tag_1:\n      pop\n      jumpi(tag_2, lt(calldatasize, 0x04))\n      shr(0xe0, calldataload(0x00))\n      dup1\n      0x028d016a\n      eq\n      tag_3\n      jumpi\n      dup1\n      0x5113940d\n      eq\n      tag_4\n      jumpi\n      dup1\n      0x7b81880c\n      eq\n      tag_5\n      jumpi\n      dup1\n      0xd56c52ae\n      eq\n      tag_6\n      jumpi\n      dup1\n      0xe199aaf7\n      eq\n      tag_7\n      jumpi\n    tag_2:\n      0x00\n      dup1\n      revert\n        /* \"NOTES/notes.sol\":2093:2216  function seeRevisions() public view professorUnique(msg.sender) returns(string[] memory){\r... */\n    tag_3:\n      tag_8\n      tag_9\n      jump\t// in\n    tag_8:\n      mload(0x40)\n      tag_10\n      swap2\n      swap1\n      tag_11\n      jump\t// in\n    tag_10:\n      mload(0x40)\n      dup1\n      swap2\n      sub\n      swap1\n      return\n        /* \"NOTES/notes.sol\":163:187  address public professor */\n    tag_4:\n      tag_12\n      tag_13\n      jump\t// in\n    tag_12:\n      mload(0x40)\n      tag_14\n      swap2\n      swap1\n      tag_15\n      jump\t// in\n    tag_14:\n      mload(0x40)\n      dup1\n      swap2\n      sub\n      swap1\n      return\n        /* \"NOTES/notes.sol\":647:1074  function evaluate(string memory _studentId, uint _note) public professorUnique(msg.sender){\r... */\n    tag_5:\n      tag_16\n      0x04\n      dup1\n      calldatasize\n      sub\n      dup2\n      add\n      swap1\n      tag_17\n      swap2\n      swap1\n      tag_18\n      jump\t// in\n    tag_17:\n      tag_19\n      jump\t// in\n    tag_16:\n      stop\n        /* \"NOTES/notes.sol\":1761:2007  function askToSeeNotes(string memory _studentId) public {\r... */\n    tag_6:\n      tag_20\n      0x04\n      dup1\n      calldatasize\n      sub\n      dup2\n      add\n      swap1\n      tag_21\n      swap2\n      swap1\n      tag_22\n      jump\t// in\n    tag_21:\n      tag_23\n      jump\t// in\n    tag_20:\n      stop\n        /* \"NOTES/notes.sol\":1423:1707  function seeNotes(string memory _studentId) public view returns(uint){\r... */\n    tag_7:\n      tag_24\n      0x04\n      dup1\n      calldatasize\n      sub\n      dup2\n      add\n      swap1\n      tag_25\n      swap2\n      swap1\n      tag_22\n      jump\t// in\n    tag_25:\n      tag_26\n      jump\t// in\n    tag_24:\n      mload(0x40)\n      tag_27\n      swap2\n      swap1\n      tag_28\n      jump\t// in\n    tag_27:\n      mload(0x40)\n      dup1\n      swap2\n      sub\n      swap1\n      return\n        /* \"NOTES/notes.sol\":2093:2216  function seeRevisions() public view professorUnique(msg.sender) returns(string[] memory){\r... */\n    tag_9:\n        /* \"NOTES/notes.sol\":2165:2180  string[] memory */\n      0x60\n        /* \"NOTES/notes.sol\":2145:2155  msg.sender */\n      caller\n        /* \"NOTES/notes.sol\":1281:1290  professor */\n      0x00\n      dup1\n      sload\n      swap1\n      0x0100\n      exp\n      swap1\n      div\n      0xffffffffffffffffffffffffffffffffffffffff\n      and\n        /* \"NOTES/notes.sol\":1260:1290  _professorAddress == professor */\n      0xffffffffffffffffffffffffffffffffffffffff\n      and\n        /* \"NOTES/notes.sol\":1260:1277  _professorAddress */\n      dup2\n        /* \"NOTES/notes.sol\":1260:1290  _professorAddress == professor */\n      0xffffffffffffffffffffffffffffffffffffffff\n      and\n      eq\n        /* \"NOTES/notes.sol\":1252:1342  require(_professorAddress == professor, \"No tienes permisos para ejecutar esta función!\") */\n      tag_30\n      jumpi\n      mload(0x40)\n      0x08c379a000000000000000000000000000000000000000000000000000000000\n      dup2\n      mstore\n      0x04\n      add\n      tag_31\n      swap1\n      tag_32\n      jump\t// in\n    tag_31:\n      mload(0x40)\n      dup1\n      swap2\n      sub\n      swap1\n      revert\n    tag_30:\n        /* \"NOTES/notes.sol\":2199:2208  revisions */\n      0x02\n        /* \"NOTES/notes.sol\":2192:2208  return revisions */\n      dup1\n      sload\n      dup1\n      0x20\n      mul\n      0x20\n      add\n      mload(0x40)\n      swap1\n      dup2\n      add\n      0x40\n      mstore\n      dup1\n      swap3\n      swap2\n      swap1\n      dup2\n      dup2\n      mstore\n      0x20\n      add\n      0x00\n      swap1\n    tag_34:\n      dup3\n      dup3\n      lt\n      iszero\n      tag_35\n      jumpi\n      dup4\n      dup3\n      swap1\n      0x00\n      mstore\n      keccak256(0x00, 0x20)\n      add\n      dup1\n      sload\n      0x01\n      dup2\n      0x01\n      and\n      iszero\n      0x0100\n      mul\n      sub\n      and\n      0x02\n      swap1\n      div\n      dup1\n      0x1f\n      add\n      0x20\n      dup1\n      swap2\n      div\n      mul\n      0x20\n      add\n      mload(0x40)\n      swap1\n      dup2\n      add\n      0x40\n      mstore\n      dup1\n      swap3\n      swap2\n      swap1\n      dup2\n      dup2\n      mstore\n      0x20\n      add\n      dup3\n      dup1\n      sload\n      0x01\n      dup2\n      0x01\n      and\n      iszero\n      0x0100\n      mul\n      sub\n      and\n      0x02\n      swap1\n      div\n      dup1\n      iszero\n      tag_37\n      jumpi\n      dup1\n      0x1f\n      lt\n      tag_38\n      jumpi\n      0x0100\n      dup1\n      dup4\n      sload\n      div\n      mul\n      dup4\n      mstore\n      swap2\n      0x20\n      add\n      swap2\n      jump(tag_37)\n    tag_38:\n      dup3\n      add\n      swap2\n      swap1\n      0x00\n      mstore\n      keccak256(0x00, 0x20)\n      swap1\n    tag_39:\n      dup2\n      sload\n      dup2\n      mstore\n      swap1\n      0x01\n      add\n      swap1\n      0x20\n      add\n      dup1\n      dup4\n      gt\n      tag_39\n      jumpi\n      dup3\n      swap1\n      sub\n      0x1f\n      and\n      dup3\n      add\n      swap2\n    tag_37:\n      pop\n      pop\n      pop\n      pop\n      pop\n      dup2\n      mstore\n      0x20\n      add\n      swap1\n      0x01\n      add\n      swap1\n      jump(tag_34)\n    tag_35:\n      pop\n      pop\n      pop\n      pop\n      swap2\n      pop\n        /* \"NOTES/notes.sol\":2093:2216  function seeRevisions() public view professorUnique(msg.sender) returns(string[] memory){\r... */\n      pop\n      swap1\n      jump\t// out\n        /* \"NOTES/notes.sol\":163:187  address public professor */\n    tag_13:\n      0x00\n      dup1\n      sload\n      swap1\n      0x0100\n      exp\n      swap1\n      div\n      0xffffffffffffffffffffffffffffffffffffffff\n      and\n      dup2\n      jump\t// out\n        /* \"NOTES/notes.sol\":647:1074  function evaluate(string memory _studentId, uint _note) public professorUnique(msg.sender){\r... */\n    tag_19:\n        /* \"NOTES/notes.sol\":726:736  msg.sender */\n      caller\n        /* \"NOTES/notes.sol\":1281:1290  professor */\n      0x00\n      dup1\n      sload\n      swap1\n      0x0100\n      exp\n      swap1\n      div\n      0xffffffffffffffffffffffffffffffffffffffff\n      and\n        /* \"NOTES/notes.sol\":1260:1290  _professorAddress == professor */\n      0xffffffffffffffffffffffffffffffffffffffff\n      and\n        /* \"NOTES/notes.sol\":1260:1277  _professorAddress */\n      dup2\n        /* \"NOTES/notes.sol\":1260:1290  _professorAddress == professor */\n      0xffffffffffffffffffffffffffffffffffffffff\n      and\n      eq\n        /* \"NOTES/notes.sol\":1252:1342  require(_professorAddress == professor, \"No tienes permisos para ejecutar esta función!\") */\n      tag_41\n      jumpi\n      mload(0x40)\n      0x08c379a000000000000000000000000000000000000000000000000000000000\n      dup2\n      mstore\n      0x04\n      add\n      tag_42\n      swap1\n      tag_32\n      jump\t// in\n    tag_42:\n      mload(0x40)\n      dup1\n      swap2\n      sub\n      swap1\n      revert\n    tag_41:\n        /* \"NOTES/notes.sol\":798:820  bytes32 hash_studentId */\n      0x00\n        /* \"NOTES/notes.sol\":850:860  _studentId */\n      dup4\n        /* \"NOTES/notes.sol\":833:861  abi.encodePacked(_studentId) */\n      add(0x20, mload(0x40))\n      tag_44\n      swap2\n      swap1\n      tag_45\n      jump\t// in\n    tag_44:\n      mload(0x40)\n      0x20\n      dup2\n      dup4\n      sub\n      sub\n      dup2\n      mstore\n      swap1\n      0x40\n      mstore\n        /* \"NOTES/notes.sol\":823:862  keccak256(abi.encodePacked(_studentId)) */\n      dup1\n      mload\n      swap1\n      0x20\n      add\n      keccak256\n        /* \"NOTES/notes.sol\":798:862  bytes32 hash_studentId = keccak256(abi.encodePacked(_studentId)) */\n      swap1\n      pop\n        /* \"NOTES/notes.sol\":974:979  _note */\n      dup3\n        /* \"NOTES/notes.sol\":950:955  Notes */\n      0x01\n        /* \"NOTES/notes.sol\":950:971  Notes[hash_studentId] */\n      0x00\n        /* \"NOTES/notes.sol\":956:970  hash_studentId */\n      dup4\n        /* \"NOTES/notes.sol\":950:971  Notes[hash_studentId] */\n      dup2\n      mstore\n      0x20\n      add\n      swap1\n      dup2\n      mstore\n      0x20\n      add\n      0x00\n      keccak256\n        /* \"NOTES/notes.sol\":950:979  Notes[hash_studentId] = _note */\n      dup2\n      swap1\n      sstore\n      pop\n        /* \"NOTES/notes.sol\":1026:1066  evaluated_student(hash_studentId, _note) */\n      0xfd83de6de76bf6a6a9c1b8980aad7370b0d3759b63fc0d30ddb7f30839ce82b5\n        /* \"NOTES/notes.sol\":1044:1058  hash_studentId */\n      dup2\n        /* \"NOTES/notes.sol\":1060:1065  _note */\n      dup5\n        /* \"NOTES/notes.sol\":1026:1066  evaluated_student(hash_studentId, _note) */\n      mload(0x40)\n      tag_46\n      swap3\n      swap2\n      swap1\n      tag_47\n      jump\t// in\n    tag_46:\n      mload(0x40)\n      dup1\n      swap2\n      sub\n      swap1\n      log1\n        /* \"NOTES/notes.sol\":1353:1354  _ */\n      pop\n        /* \"NOTES/notes.sol\":647:1074  function evaluate(string memory _studentId, uint _note) public professorUnique(msg.sender){\r... */\n      pop\n      pop\n      pop\n      jump\t// out\n        /* \"NOTES/notes.sol\":1761:2007  function askToSeeNotes(string memory _studentId) public {\r... */\n    tag_23:\n        /* \"NOTES/notes.sol\":1935:1944  revisions */\n      0x02\n        /* \"NOTES/notes.sol\":1950:1960  _studentId */\n      dup2\n        /* \"NOTES/notes.sol\":1935:1961  revisions.push(_studentId) */\n      swap1\n      dup1\n      0x01\n      dup2\n      sload\n      add\n      dup1\n      dup3\n      sstore\n      dup1\n      swap2\n      pop\n      pop\n      0x01\n      swap1\n      sub\n      swap1\n      0x00\n      mstore\n      keccak256(0x00, 0x20)\n      add\n      0x00\n      swap1\n      swap2\n      swap1\n      swap2\n      swap1\n      swap2\n      pop\n      swap1\n      dup1\n      mload\n      swap1\n      0x20\n      add\n      swap1\n      tag_50\n      swap3\n      swap2\n      swap1\n      tag_51\n      jump\t// in\n    tag_50:\n      pop\n        /* \"NOTES/notes.sol\":1979:1999  revision(_studentId) */\n      0xca981d9115ef6cc4d88019fa70f9ffa85406c600b92296a25c270da252561b2c\n        /* \"NOTES/notes.sol\":1988:1998  _studentId */\n      dup2\n        /* \"NOTES/notes.sol\":1979:1999  revision(_studentId) */\n      mload(0x40)\n      tag_52\n      swap2\n      swap1\n      tag_53\n      jump\t// in\n    tag_52:\n      mload(0x40)\n      dup1\n      swap2\n      sub\n      swap1\n      log1\n        /* \"NOTES/notes.sol\":1761:2007  function askToSeeNotes(string memory _studentId) public {\r... */\n      pop\n      jump\t// out\n        /* \"NOTES/notes.sol\":1423:1707  function seeNotes(string memory _studentId) public view returns(uint){\r... */\n    tag_26:\n        /* \"NOTES/notes.sol\":1487:1491  uint */\n      0x00\n        /* \"NOTES/notes.sol\":1503:1525  bytes32 hash_studentId */\n      dup1\n        /* \"NOTES/notes.sol\":1555:1565  _studentId */\n      dup3\n        /* \"NOTES/notes.sol\":1538:1566  abi.encodePacked(_studentId) */\n      add(0x20, mload(0x40))\n      tag_55\n      swap2\n      swap1\n      tag_45\n      jump\t// in\n    tag_55:\n      mload(0x40)\n      0x20\n      dup2\n      dup4\n      sub\n      sub\n      dup2\n      mstore\n      swap1\n      0x40\n      mstore\n        /* \"NOTES/notes.sol\":1528:1567  keccak256(abi.encodePacked(_studentId)) */\n      dup1\n      mload\n      swap1\n      0x20\n      add\n      keccak256\n        /* \"NOTES/notes.sol\":1503:1567  bytes32 hash_studentId = keccak256(abi.encodePacked(_studentId)) */\n      swap1\n      pop\n        /* \"NOTES/notes.sol\":1628:1644  uint studentNote */\n      0x00\n        /* \"NOTES/notes.sol\":1647:1652  Notes */\n      0x01\n        /* \"NOTES/notes.sol\":1647:1668  Notes[hash_studentId] */\n      0x00\n        /* \"NOTES/notes.sol\":1653:1667  hash_studentId */\n      dup4\n        /* \"NOTES/notes.sol\":1647:1668  Notes[hash_studentId] */\n      dup2\n      mstore\n      0x20\n      add\n      swap1\n      dup2\n      mstore\n      0x20\n      add\n      0x00\n      keccak256\n      sload\n        /* \"NOTES/notes.sol\":1628:1668  uint studentNote = Notes[hash_studentId] */\n      swap1\n      pop\n        /* \"NOTES/notes.sol\":1688:1699  studentNote */\n      dup1\n        /* \"NOTES/notes.sol\":1681:1699  return studentNote */\n      swap3\n      pop\n      pop\n      pop\n        /* \"NOTES/notes.sol\":1423:1707  function seeNotes(string memory _studentId) public view returns(uint){\r... */\n      swap2\n      swap1\n      pop\n      jump\t// out\n    tag_51:\n      dup3\n      dup1\n      sload\n      0x01\n      dup2\n      0x01\n      and\n      iszero\n      0x0100\n      mul\n      sub\n      and\n      0x02\n      swap1\n      div\n      swap1\n      0x00\n      mstore\n      keccak256(0x00, 0x20)\n      swap1\n      0x1f\n      add\n      0x20\n      swap1\n      div\n      dup2\n      add\n      swap3\n      dup3\n      0x1f\n      lt\n      tag_57\n      jumpi\n      dup1\n      mload\n      not(0xff)\n      and\n      dup4\n      dup1\n      add\n      or\n      dup6\n      sstore\n      jump(tag_56)\n    tag_57:\n      dup3\n      dup1\n      add\n      0x01\n      add\n      dup6\n      sstore\n      dup3\n      iszero\n      tag_56\n      jumpi\n      swap2\n      dup3\n      add\n    tag_58:\n      dup3\n      dup2\n      gt\n      iszero\n      tag_59\n      jumpi\n      dup3\n      mload\n      dup3\n      sstore\n      swap2\n      0x20\n      add\n      swap2\n      swap1\n      0x01\n      add\n      swap1\n      jump(tag_58)\n    tag_59:\n    tag_56:\n      pop\n      swap1\n      pop\n      tag_60\n      swap2\n      swap1\n      tag_61\n      jump\t// in\n    tag_60:\n      pop\n      swap1\n      jump\t// out\n    tag_61:\n    tag_62:\n      dup1\n      dup3\n      gt\n      iszero\n      tag_63\n      jumpi\n      0x00\n      dup2\n      0x00\n      swap1\n      sstore\n      pop\n      0x01\n      add\n      jump(tag_62)\n    tag_63:\n      pop\n      swap1\n      jump\t// out\n        /* \"--CODEGEN--\":6:448   */\n    tag_65:\n      0x00\n        /* \"--CODEGEN--\":108:111   */\n      dup3\n        /* \"--CODEGEN--\":101:105   */\n      0x1f\n        /* \"--CODEGEN--\":93:99   */\n      dup4\n        /* \"--CODEGEN--\":89:106   */\n      add\n        /* \"--CODEGEN--\":85:112   */\n      slt\n        /* \"--CODEGEN--\":75:77   */\n      tag_67\n      jumpi\n        /* \"--CODEGEN--\":126:127   */\n      0x00\n        /* \"--CODEGEN--\":123:124   */\n      dup1\n        /* \"--CODEGEN--\":116:128   */\n      revert\n        /* \"--CODEGEN--\":75:77   */\n    tag_67:\n        /* \"--CODEGEN--\":163:169   */\n      dup2\n        /* \"--CODEGEN--\":150:170   */\n      calldataload\n        /* \"--CODEGEN--\":185:250   */\n      tag_68\n        /* \"--CODEGEN--\":200:249   */\n      tag_69\n        /* \"--CODEGEN--\":242:248   */\n      dup3\n        /* \"--CODEGEN--\":200:249   */\n      tag_70\n      jump\t// in\n    tag_69:\n        /* \"--CODEGEN--\":185:250   */\n      tag_71\n      jump\t// in\n    tag_68:\n        /* \"--CODEGEN--\":176:250   */\n      swap2\n      pop\n        /* \"--CODEGEN--\":270:276   */\n      dup1\n        /* \"--CODEGEN--\":263:268   */\n      dup3\n        /* \"--CODEGEN--\":256:277   */\n      mstore\n        /* \"--CODEGEN--\":306:310   */\n      0x20\n        /* \"--CODEGEN--\":298:304   */\n      dup4\n        /* \"--CODEGEN--\":294:311   */\n      add\n        /* \"--CODEGEN--\":339:343   */\n      0x20\n        /* \"--CODEGEN--\":332:337   */\n      dup4\n        /* \"--CODEGEN--\":328:344   */\n      add\n        /* \"--CODEGEN--\":374:377   */\n      dup6\n        /* \"--CODEGEN--\":365:371   */\n      dup4\n        /* \"--CODEGEN--\":360:363   */\n      dup4\n        /* \"--CODEGEN--\":356:372   */\n      add\n        /* \"--CODEGEN--\":353:378   */\n      gt\n        /* \"--CODEGEN--\":350:352   */\n      iszero\n      tag_72\n      jumpi\n        /* \"--CODEGEN--\":391:392   */\n      0x00\n        /* \"--CODEGEN--\":388:389   */\n      dup1\n        /* \"--CODEGEN--\":381:393   */\n      revert\n        /* \"--CODEGEN--\":350:352   */\n    tag_72:\n        /* \"--CODEGEN--\":401:442   */\n      tag_73\n        /* \"--CODEGEN--\":435:441   */\n      dup4\n        /* \"--CODEGEN--\":430:433   */\n      dup3\n        /* \"--CODEGEN--\":425:428   */\n      dup5\n        /* \"--CODEGEN--\":401:442   */\n      tag_74\n      jump\t// in\n    tag_73:\n        /* \"--CODEGEN--\":68:448   */\n      pop\n      pop\n      pop\n      swap3\n      swap2\n      pop\n      pop\n      jump\t// out\n        /* \"--CODEGEN--\":456:586   */\n    tag_75:\n      0x00\n        /* \"--CODEGEN--\":536:542   */\n      dup2\n        /* \"--CODEGEN--\":523:543   */\n      calldataload\n        /* \"--CODEGEN--\":514:543   */\n      swap1\n      pop\n        /* \"--CODEGEN--\":548:581   */\n      tag_77\n        /* \"--CODEGEN--\":575:580   */\n      dup2\n        /* \"--CODEGEN--\":548:581   */\n      tag_78\n      jump\t// in\n    tag_77:\n        /* \"--CODEGEN--\":508:586   */\n      swap3\n      swap2\n      pop\n      pop\n      jump\t// out\n        /* \"--CODEGEN--\":593:940   */\n    tag_22:\n      0x00\n        /* \"--CODEGEN--\":707:709   */\n      0x20\n        /* \"--CODEGEN--\":695:704   */\n      dup3\n        /* \"--CODEGEN--\":686:693   */\n      dup5\n        /* \"--CODEGEN--\":682:705   */\n      sub\n        /* \"--CODEGEN--\":678:710   */\n      slt\n        /* \"--CODEGEN--\":675:677   */\n      iszero\n      tag_80\n      jumpi\n        /* \"--CODEGEN--\":723:724   */\n      0x00\n        /* \"--CODEGEN--\":720:721   */\n      dup1\n        /* \"--CODEGEN--\":713:725   */\n      revert\n        /* \"--CODEGEN--\":675:677   */\n    tag_80:\n        /* \"--CODEGEN--\":786:787   */\n      0x00\n        /* \"--CODEGEN--\":775:784   */\n      dup3\n        /* \"--CODEGEN--\":771:788   */\n      add\n        /* \"--CODEGEN--\":758:789   */\n      calldataload\n        /* \"--CODEGEN--\":809:827   */\n      0xffffffffffffffff\n        /* \"--CODEGEN--\":801:807   */\n      dup2\n        /* \"--CODEGEN--\":798:828   */\n      gt\n        /* \"--CODEGEN--\":795:797   */\n      iszero\n      tag_81\n      jumpi\n        /* \"--CODEGEN--\":841:842   */\n      0x00\n        /* \"--CODEGEN--\":838:839   */\n      dup1\n        /* \"--CODEGEN--\":831:843   */\n      revert\n        /* \"--CODEGEN--\":795:797   */\n    tag_81:\n        /* \"--CODEGEN--\":861:924   */\n      tag_82\n        /* \"--CODEGEN--\":916:923   */\n      dup5\n        /* \"--CODEGEN--\":907:913   */\n      dup3\n        /* \"--CODEGEN--\":896:905   */\n      dup6\n        /* \"--CODEGEN--\":892:914   */\n      add\n        /* \"--CODEGEN--\":861:924   */\n      tag_65\n      jump\t// in\n    tag_82:\n        /* \"--CODEGEN--\":851:924   */\n      swap2\n      pop\n        /* \"--CODEGEN--\":737:930   */\n      pop\n        /* \"--CODEGEN--\":669:940   */\n      swap3\n      swap2\n      pop\n      pop\n      jump\t// out\n        /* \"--CODEGEN--\":947:1419   */\n    tag_18:\n      0x00\n      dup1\n        /* \"--CODEGEN--\":1078:1080   */\n      0x40\n        /* \"--CODEGEN--\":1066:1075   */\n      dup4\n        /* \"--CODEGEN--\":1057:1064   */\n      dup6\n        /* \"--CODEGEN--\":1053:1076   */\n      sub\n        /* \"--CODEGEN--\":1049:1081   */\n      slt\n        /* \"--CODEGEN--\":1046:1048   */\n      iszero\n      tag_84\n      jumpi\n        /* \"--CODEGEN--\":1094:1095   */\n      0x00\n        /* \"--CODEGEN--\":1091:1092   */\n      dup1\n        /* \"--CODEGEN--\":1084:1096   */\n      revert\n        /* \"--CODEGEN--\":1046:1048   */\n    tag_84:\n        /* \"--CODEGEN--\":1157:1158   */\n      0x00\n        /* \"--CODEGEN--\":1146:1155   */\n      dup4\n        /* \"--CODEGEN--\":1142:1159   */\n      add\n        /* \"--CODEGEN--\":1129:1160   */\n      calldataload\n        /* \"--CODEGEN--\":1180:1198   */\n      0xffffffffffffffff\n        /* \"--CODEGEN--\":1172:1178   */\n      dup2\n        /* \"--CODEGEN--\":1169:1199   */\n      gt\n        /* \"--CODEGEN--\":1166:1168   */\n      iszero\n      tag_85\n      jumpi\n        /* \"--CODEGEN--\":1212:1213   */\n      0x00\n        /* \"--CODEGEN--\":1209:1210   */\n      dup1\n        /* \"--CODEGEN--\":1202:1214   */\n      revert\n        /* \"--CODEGEN--\":1166:1168   */\n    tag_85:\n        /* \"--CODEGEN--\":1232:1295   */\n      tag_86\n        /* \"--CODEGEN--\":1287:1294   */\n      dup6\n        /* \"--CODEGEN--\":1278:1284   */\n      dup3\n        /* \"--CODEGEN--\":1267:1276   */\n      dup7\n        /* \"--CODEGEN--\":1263:1285   */\n      add\n        /* \"--CODEGEN--\":1232:1295   */\n      tag_65\n      jump\t// in\n    tag_86:\n        /* \"--CODEGEN--\":1222:1295   */\n      swap3\n      pop\n        /* \"--CODEGEN--\":1108:1301   */\n      pop\n        /* \"--CODEGEN--\":1332:1334   */\n      0x20\n        /* \"--CODEGEN--\":1350:1403   */\n      tag_87\n        /* \"--CODEGEN--\":1395:1402   */\n      dup6\n        /* \"--CODEGEN--\":1386:1392   */\n      dup3\n        /* \"--CODEGEN--\":1375:1384   */\n      dup7\n        /* \"--CODEGEN--\":1371:1393   */\n      add\n        /* \"--CODEGEN--\":1350:1403   */\n      tag_75\n      jump\t// in\n    tag_87:\n        /* \"--CODEGEN--\":1340:1403   */\n      swap2\n      pop\n        /* \"--CODEGEN--\":1311:1409   */\n      pop\n        /* \"--CODEGEN--\":1040:1419   */\n      swap3\n      pop\n      swap3\n      swap1\n      pop\n      jump\t// out\n        /* \"--CODEGEN--\":1427:1620   */\n    tag_88:\n      0x00\n        /* \"--CODEGEN--\":1548:1614   */\n      tag_90\n        /* \"--CODEGEN--\":1610:1613   */\n      dup4\n        /* \"--CODEGEN--\":1602:1608   */\n      dup4\n        /* \"--CODEGEN--\":1548:1614   */\n      tag_91\n      jump\t// in\n    tag_90:\n        /* \"--CODEGEN--\":1534:1614   */\n      swap1\n      pop\n        /* \"--CODEGEN--\":1527:1620   */\n      swap3\n      swap2\n      pop\n      pop\n      jump\t// out\n        /* \"--CODEGEN--\":1628:1741   */\n    tag_92:\n        /* \"--CODEGEN--\":1711:1735   */\n      tag_94\n        /* \"--CODEGEN--\":1729:1734   */\n      dup2\n        /* \"--CODEGEN--\":1711:1735   */\n      tag_95\n      jump\t// in\n    tag_94:\n        /* \"--CODEGEN--\":1706:1709   */\n      dup3\n        /* \"--CODEGEN--\":1699:1736   */\n      mstore\n        /* \"--CODEGEN--\":1693:1741   */\n      pop\n      pop\n      jump\t// out\n        /* \"--CODEGEN--\":1777:2705   */\n    tag_96:\n      0x00\n        /* \"--CODEGEN--\":1942:2006   */\n      tag_98\n        /* \"--CODEGEN--\":2000:2005   */\n      dup3\n        /* \"--CODEGEN--\":1942:2006   */\n      tag_99\n      jump\t// in\n    tag_98:\n        /* \"--CODEGEN--\":2019:2115   */\n      tag_100\n        /* \"--CODEGEN--\":2108:2114   */\n      dup2\n        /* \"--CODEGEN--\":2103:2106   */\n      dup6\n        /* \"--CODEGEN--\":2019:2115   */\n      tag_101\n      jump\t// in\n    tag_100:\n        /* \"--CODEGEN--\":2012:2115   */\n      swap4\n      pop\n        /* \"--CODEGEN--\":2138:2141   */\n      dup4\n        /* \"--CODEGEN--\":2180:2184   */\n      0x20\n        /* \"--CODEGEN--\":2172:2178   */\n      dup3\n        /* \"--CODEGEN--\":2168:2185   */\n      mul\n        /* \"--CODEGEN--\":2163:2166   */\n      dup6\n        /* \"--CODEGEN--\":2159:2186   */\n      add\n        /* \"--CODEGEN--\":2207:2273   */\n      tag_102\n        /* \"--CODEGEN--\":2267:2272   */\n      dup6\n        /* \"--CODEGEN--\":2207:2273   */\n      tag_103\n      jump\t// in\n    tag_102:\n        /* \"--CODEGEN--\":2293:2300   */\n      dup1\n        /* \"--CODEGEN--\":2321:2322   */\n      0x00\n        /* \"--CODEGEN--\":2306:2666   */\n    tag_104:\n        /* \"--CODEGEN--\":2331:2337   */\n      dup6\n        /* \"--CODEGEN--\":2328:2329   */\n      dup2\n        /* \"--CODEGEN--\":2325:2338   */\n      lt\n        /* \"--CODEGEN--\":2306:2666   */\n      iszero\n      tag_106\n      jumpi\n        /* \"--CODEGEN--\":2393:2402   */\n      dup5\n        /* \"--CODEGEN--\":2387:2391   */\n      dup5\n        /* \"--CODEGEN--\":2383:2403   */\n      sub\n        /* \"--CODEGEN--\":2378:2381   */\n      dup10\n        /* \"--CODEGEN--\":2371:2404   */\n      mstore\n        /* \"--CODEGEN--\":2438:2444   */\n      dup2\n        /* \"--CODEGEN--\":2432:2445   */\n      mload\n        /* \"--CODEGEN--\":2460:2544   */\n      tag_107\n        /* \"--CODEGEN--\":2539:2543   */\n      dup6\n        /* \"--CODEGEN--\":2524:2537   */\n      dup3\n        /* \"--CODEGEN--\":2460:2544   */\n      tag_88\n      jump\t// in\n    tag_107:\n        /* \"--CODEGEN--\":2452:2544   */\n      swap5\n      pop\n        /* \"--CODEGEN--\":2561:2631   */\n      tag_108\n        /* \"--CODEGEN--\":2624:2630   */\n      dup4\n        /* \"--CODEGEN--\":2561:2631   */\n      tag_109\n      jump\t// in\n    tag_108:\n        /* \"--CODEGEN--\":2551:2631   */\n      swap3\n      pop\n        /* \"--CODEGEN--\":2654:2658   */\n      0x20\n        /* \"--CODEGEN--\":2649:2652   */\n      dup11\n        /* \"--CODEGEN--\":2645:2659   */\n      add\n        /* \"--CODEGEN--\":2638:2659   */\n      swap10\n      pop\n        /* \"--CODEGEN--\":2363:2666   */\n      pop\n        /* \"--CODEGEN--\":2353:2354   */\n      0x01\n        /* \"--CODEGEN--\":2350:2351   */\n      dup2\n        /* \"--CODEGEN--\":2346:2355   */\n      add\n        /* \"--CODEGEN--\":2341:2355   */\n      swap1\n      pop\n        /* \"--CODEGEN--\":2306:2666   */\n      jump(tag_104)\n    tag_106:\n        /* \"--CODEGEN--\":2310:2324   */\n      pop\n        /* \"--CODEGEN--\":2679:2683   */\n      dup3\n        /* \"--CODEGEN--\":2672:2683   */\n      swap8\n      pop\n        /* \"--CODEGEN--\":2696:2699   */\n      dup8\n        /* \"--CODEGEN--\":2689:2699   */\n      swap6\n      pop\n        /* \"--CODEGEN--\":1921:2705   */\n      pop\n      pop\n      pop\n      pop\n      pop\n      swap3\n      swap2\n      pop\n      pop\n      jump\t// out\n        /* \"--CODEGEN--\":2713:2826   */\n    tag_110:\n        /* \"--CODEGEN--\":2796:2820   */\n      tag_112\n        /* \"--CODEGEN--\":2814:2819   */\n      dup2\n        /* \"--CODEGEN--\":2796:2820   */\n      tag_113\n      jump\t// in\n    tag_112:\n        /* \"--CODEGEN--\":2791:2794   */\n      dup3\n        /* \"--CODEGEN--\":2784:2821   */\n      mstore\n        /* \"--CODEGEN--\":2778:2826   */\n      pop\n      pop\n      jump\t// out\n        /* \"--CODEGEN--\":2833:3160   */\n    tag_91:\n      0x00\n        /* \"--CODEGEN--\":2935:2974   */\n      tag_115\n        /* \"--CODEGEN--\":2968:2973   */\n      dup3\n        /* \"--CODEGEN--\":2935:2974   */\n      tag_116\n      jump\t// in\n    tag_115:\n        /* \"--CODEGEN--\":2986:3047   */\n      tag_117\n        /* \"--CODEGEN--\":3040:3046   */\n      dup2\n        /* \"--CODEGEN--\":3035:3038   */\n      dup6\n        /* \"--CODEGEN--\":2986:3047   */\n      tag_118\n      jump\t// in\n    tag_117:\n        /* \"--CODEGEN--\":2979:3047   */\n      swap4\n      pop\n        /* \"--CODEGEN--\":3052:3104   */\n      tag_119\n        /* \"--CODEGEN--\":3097:3103   */\n      dup2\n        /* \"--CODEGEN--\":3092:3095   */\n      dup6\n        /* \"--CODEGEN--\":3085:3089   */\n      0x20\n        /* \"--CODEGEN--\":3078:3083   */\n      dup7\n        /* \"--CODEGEN--\":3074:3090   */\n      add\n        /* \"--CODEGEN--\":3052:3104   */\n      tag_120\n      jump\t// in\n    tag_119:\n        /* \"--CODEGEN--\":3125:3154   */\n      tag_121\n        /* \"--CODEGEN--\":3147:3153   */\n      dup2\n        /* \"--CODEGEN--\":3125:3154   */\n      tag_122\n      jump\t// in\n    tag_121:\n        /* \"--CODEGEN--\":3120:3123   */\n      dup5\n        /* \"--CODEGEN--\":3116:3155   */\n      add\n        /* \"--CODEGEN--\":3109:3155   */\n      swap2\n      pop\n        /* \"--CODEGEN--\":2915:3160   */\n      pop\n      swap3\n      swap2\n      pop\n      pop\n      jump\t// out\n        /* \"--CODEGEN--\":3167:3514   */\n    tag_123:\n      0x00\n        /* \"--CODEGEN--\":3279:3318   */\n      tag_125\n        /* \"--CODEGEN--\":3312:3317   */\n      dup3\n        /* \"--CODEGEN--\":3279:3318   */\n      tag_116\n      jump\t// in\n    tag_125:\n        /* \"--CODEGEN--\":3330:3401   */\n      tag_126\n        /* \"--CODEGEN--\":3394:3400   */\n      dup2\n        /* \"--CODEGEN--\":3389:3392   */\n      dup6\n        /* \"--CODEGEN--\":3330:3401   */\n      tag_127\n      jump\t// in\n    tag_126:\n        /* \"--CODEGEN--\":3323:3401   */\n      swap4\n      pop\n        /* \"--CODEGEN--\":3406:3458   */\n      tag_128\n        /* \"--CODEGEN--\":3451:3457   */\n      dup2\n        /* \"--CODEGEN--\":3446:3449   */\n      dup6\n        /* \"--CODEGEN--\":3439:3443   */\n      0x20\n        /* \"--CODEGEN--\":3432:3437   */\n      dup7\n        /* \"--CODEGEN--\":3428:3444   */\n      add\n        /* \"--CODEGEN--\":3406:3458   */\n      tag_120\n      jump\t// in\n    tag_128:\n        /* \"--CODEGEN--\":3479:3508   */\n      tag_129\n        /* \"--CODEGEN--\":3501:3507   */\n      dup2\n        /* \"--CODEGEN--\":3479:3508   */\n      tag_122\n      jump\t// in\n    tag_129:\n        /* \"--CODEGEN--\":3474:3477   */\n      dup5\n        /* \"--CODEGEN--\":3470:3509   */\n      add\n        /* \"--CODEGEN--\":3463:3509   */\n      swap2\n      pop\n        /* \"--CODEGEN--\":3259:3514   */\n      pop\n      swap3\n      swap2\n      pop\n      pop\n      jump\t// out\n        /* \"--CODEGEN--\":3521:3881   */\n    tag_130:\n      0x00\n        /* \"--CODEGEN--\":3651:3690   */\n      tag_132\n        /* \"--CODEGEN--\":3684:3689   */\n      dup3\n        /* \"--CODEGEN--\":3651:3690   */\n      tag_116\n      jump\t// in\n    tag_132:\n        /* \"--CODEGEN--\":3702:3791   */\n      tag_133\n        /* \"--CODEGEN--\":3784:3790   */\n      dup2\n        /* \"--CODEGEN--\":3779:3782   */\n      dup6\n        /* \"--CODEGEN--\":3702:3791   */\n      tag_134\n      jump\t// in\n    tag_133:\n        /* \"--CODEGEN--\":3695:3791   */\n      swap4\n      pop\n        /* \"--CODEGEN--\":3796:3848   */\n      tag_135\n        /* \"--CODEGEN--\":3841:3847   */\n      dup2\n        /* \"--CODEGEN--\":3836:3839   */\n      dup6\n        /* \"--CODEGEN--\":3829:3833   */\n      0x20\n        /* \"--CODEGEN--\":3822:3827   */\n      dup7\n        /* \"--CODEGEN--\":3818:3834   */\n      add\n        /* \"--CODEGEN--\":3796:3848   */\n      tag_120\n      jump\t// in\n    tag_135:\n        /* \"--CODEGEN--\":3869:3875   */\n      dup1\n        /* \"--CODEGEN--\":3864:3867   */\n      dup5\n        /* \"--CODEGEN--\":3860:3876   */\n      add\n        /* \"--CODEGEN--\":3853:3876   */\n      swap2\n      pop\n        /* \"--CODEGEN--\":3631:3881   */\n      pop\n      swap3\n      swap2\n      pop\n      pop\n      jump\t// out\n        /* \"--CODEGEN--\":3889:4322   */\n    tag_136:\n      0x00\n        /* \"--CODEGEN--\":4049:4116   */\n      tag_138\n        /* \"--CODEGEN--\":4113:4115   */\n      0x2f\n        /* \"--CODEGEN--\":4108:4111   */\n      dup4\n        /* \"--CODEGEN--\":4049:4116   */\n      tag_127\n      jump\t// in\n    tag_138:\n        /* \"--CODEGEN--\":4042:4116   */\n      swap2\n      pop\n        /* \"--CODEGEN--\":4149:4183   */\n      0x4e6f207469656e6573207065726d69736f73207061726120656a656375746172\n        /* \"--CODEGEN--\":4145:4146   */\n      0x00\n        /* \"--CODEGEN--\":4140:4143   */\n      dup4\n        /* \"--CODEGEN--\":4136:4147   */\n      add\n        /* \"--CODEGEN--\":4129:4184   */\n      mstore\n        /* \"--CODEGEN--\":4218:4284   */\n      0x20657374612066756e6369c3b36e210000000000000000000000000000000000\n        /* \"--CODEGEN--\":4213:4215   */\n      0x20\n        /* \"--CODEGEN--\":4208:4211   */\n      dup4\n        /* \"--CODEGEN--\":4204:4216   */\n      add\n        /* \"--CODEGEN--\":4197:4285   */\n      mstore\n        /* \"--CODEGEN--\":4313:4315   */\n      0x40\n        /* \"--CODEGEN--\":4308:4311   */\n      dup3\n        /* \"--CODEGEN--\":4304:4316   */\n      add\n        /* \"--CODEGEN--\":4297:4316   */\n      swap1\n      pop\n        /* \"--CODEGEN--\":4035:4322   */\n      swap2\n      swap1\n      pop\n      jump\t// out\n        /* \"--CODEGEN--\":4330:4443   */\n    tag_139:\n        /* \"--CODEGEN--\":4413:4437   */\n      tag_141\n        /* \"--CODEGEN--\":4431:4436   */\n      dup2\n        /* \"--CODEGEN--\":4413:4437   */\n      tag_142\n      jump\t// in\n    tag_141:\n        /* \"--CODEGEN--\":4408:4411   */\n      dup3\n        /* \"--CODEGEN--\":4401:4438   */\n      mstore\n        /* \"--CODEGEN--\":4395:4443   */\n      pop\n      pop\n      jump\t// out\n        /* \"--CODEGEN--\":4450:4725   */\n    tag_45:\n      0x00\n        /* \"--CODEGEN--\":4605:4700   */\n      tag_144\n        /* \"--CODEGEN--\":4696:4699   */\n      dup3\n        /* \"--CODEGEN--\":4687:4693   */\n      dup5\n        /* \"--CODEGEN--\":4605:4700   */\n      tag_130\n      jump\t// in\n    tag_144:\n        /* \"--CODEGEN--\":4598:4700   */\n      swap2\n      pop\n        /* \"--CODEGEN--\":4717:4720   */\n      dup2\n        /* \"--CODEGEN--\":4710:4720   */\n      swap1\n      pop\n        /* \"--CODEGEN--\":4586:4725   */\n      swap3\n      swap2\n      pop\n      pop\n      jump\t// out\n        /* \"--CODEGEN--\":4732:4954   */\n    tag_15:\n      0x00\n        /* \"--CODEGEN--\":4859:4861   */\n      0x20\n        /* \"--CODEGEN--\":4848:4857   */\n      dup3\n        /* \"--CODEGEN--\":4844:4862   */\n      add\n        /* \"--CODEGEN--\":4836:4862   */\n      swap1\n      pop\n        /* \"--CODEGEN--\":4873:4944   */\n      tag_146\n        /* \"--CODEGEN--\":4941:4942   */\n      0x00\n        /* \"--CODEGEN--\":4930:4939   */\n      dup4\n        /* \"--CODEGEN--\":4926:4943   */\n      add\n        /* \"--CODEGEN--\":4917:4923   */\n      dup5\n        /* \"--CODEGEN--\":4873:4944   */\n      tag_92\n      jump\t// in\n    tag_146:\n        /* \"--CODEGEN--\":4830:4954   */\n      swap3\n      swap2\n      pop\n      pop\n      jump\t// out\n        /* \"--CODEGEN--\":4961:5371   */\n    tag_11:\n      0x00\n        /* \"--CODEGEN--\":5158:5160   */\n      0x20\n        /* \"--CODEGEN--\":5147:5156   */\n      dup3\n        /* \"--CODEGEN--\":5143:5161   */\n      add\n        /* \"--CODEGEN--\":5135:5161   */\n      swap1\n      pop\n        /* \"--CODEGEN--\":5208:5217   */\n      dup2\n        /* \"--CODEGEN--\":5202:5206   */\n      dup2\n        /* \"--CODEGEN--\":5198:5218   */\n      sub\n        /* \"--CODEGEN--\":5194:5195   */\n      0x00\n        /* \"--CODEGEN--\":5183:5192   */\n      dup4\n        /* \"--CODEGEN--\":5179:5196   */\n      add\n        /* \"--CODEGEN--\":5172:5219   */\n      mstore\n        /* \"--CODEGEN--\":5233:5361   */\n      tag_148\n        /* \"--CODEGEN--\":5356:5360   */\n      dup2\n        /* \"--CODEGEN--\":5347:5353   */\n      dup5\n        /* \"--CODEGEN--\":5233:5361   */\n      tag_96\n      jump\t// in\n    tag_148:\n        /* \"--CODEGEN--\":5225:5361   */\n      swap1\n      pop\n        /* \"--CODEGEN--\":5129:5371   */\n      swap3\n      swap2\n      pop\n      pop\n      jump\t// out\n        /* \"--CODEGEN--\":5378:5711   */\n    tag_47:\n      0x00\n        /* \"--CODEGEN--\":5533:5535   */\n      0x40\n        /* \"--CODEGEN--\":5522:5531   */\n      dup3\n        /* \"--CODEGEN--\":5518:5536   */\n      add\n        /* \"--CODEGEN--\":5510:5536   */\n      swap1\n      pop\n        /* \"--CODEGEN--\":5547:5618   */\n      tag_150\n        /* \"--CODEGEN--\":5615:5616   */\n      0x00\n        /* \"--CODEGEN--\":5604:5613   */\n      dup4\n        /* \"--CODEGEN--\":5600:5617   */\n      add\n        /* \"--CODEGEN--\":5591:5597   */\n      dup6\n        /* \"--CODEGEN--\":5547:5618   */\n      tag_110\n      jump\t// in\n    tag_150:\n        /* \"--CODEGEN--\":5629:5701   */\n      tag_151\n        /* \"--CODEGEN--\":5697:5699   */\n      0x20\n        /* \"--CODEGEN--\":5686:5695   */\n      dup4\n        /* \"--CODEGEN--\":5682:5700   */\n      add\n        /* \"--CODEGEN--\":5673:5679   */\n      dup5\n        /* \"--CODEGEN--\":5629:5701   */\n      tag_139\n      jump\t// in\n    tag_151:\n        /* \"--CODEGEN--\":5504:5711   */\n      swap4\n      swap3\n      pop\n      pop\n      pop\n      jump\t// out\n        /* \"--CODEGEN--\":5718:6028   */\n    tag_53:\n      0x00\n        /* \"--CODEGEN--\":5865:5867   */\n      0x20\n        /* \"--CODEGEN--\":5854:5863   */\n      dup3\n        /* \"--CODEGEN--\":5850:5868   */\n      add\n        /* \"--CODEGEN--\":5842:5868   */\n      swap1\n      pop\n        /* \"--CODEGEN--\":5915:5924   */\n      dup2\n        /* \"--CODEGEN--\":5909:5913   */\n      dup2\n        /* \"--CODEGEN--\":5905:5925   */\n      sub\n        /* \"--CODEGEN--\":5901:5902   */\n      0x00\n        /* \"--CODEGEN--\":5890:5899   */\n      dup4\n        /* \"--CODEGEN--\":5886:5903   */\n      add\n        /* \"--CODEGEN--\":5879:5926   */\n      mstore\n        /* \"--CODEGEN--\":5940:6018   */\n      tag_153\n        /* \"--CODEGEN--\":6013:6017   */\n      dup2\n        /* \"--CODEGEN--\":6004:6010   */\n      dup5\n        /* \"--CODEGEN--\":5940:6018   */\n      tag_123\n      jump\t// in\n    tag_153:\n        /* \"--CODEGEN--\":5932:6018   */\n      swap1\n      pop\n        /* \"--CODEGEN--\":5836:6028   */\n      swap3\n      swap2\n      pop\n      pop\n      jump\t// out\n        /* \"--CODEGEN--\":6035:6451   */\n    tag_32:\n      0x00\n        /* \"--CODEGEN--\":6235:6237   */\n      0x20\n        /* \"--CODEGEN--\":6224:6233   */\n      dup3\n        /* \"--CODEGEN--\":6220:6238   */\n      add\n        /* \"--CODEGEN--\":6212:6238   */\n      swap1\n      pop\n        /* \"--CODEGEN--\":6285:6294   */\n      dup2\n        /* \"--CODEGEN--\":6279:6283   */\n      dup2\n        /* \"--CODEGEN--\":6275:6295   */\n      sub\n        /* \"--CODEGEN--\":6271:6272   */\n      0x00\n        /* \"--CODEGEN--\":6260:6269   */\n      dup4\n        /* \"--CODEGEN--\":6256:6273   */\n      add\n        /* \"--CODEGEN--\":6249:6296   */\n      mstore\n        /* \"--CODEGEN--\":6310:6441   */\n      tag_155\n        /* \"--CODEGEN--\":6436:6440   */\n      dup2\n        /* \"--CODEGEN--\":6310:6441   */\n      tag_136\n      jump\t// in\n    tag_155:\n        /* \"--CODEGEN--\":6302:6441   */\n      swap1\n      pop\n        /* \"--CODEGEN--\":6206:6451   */\n      swap2\n      swap1\n      pop\n      jump\t// out\n        /* \"--CODEGEN--\":6458:6680   */\n    tag_28:\n      0x00\n        /* \"--CODEGEN--\":6585:6587   */\n      0x20\n        /* \"--CODEGEN--\":6574:6583   */\n      dup3\n        /* \"--CODEGEN--\":6570:6588   */\n      add\n        /* \"--CODEGEN--\":6562:6588   */\n      swap1\n      pop\n        /* \"--CODEGEN--\":6599:6670   */\n      tag_157\n        /* \"--CODEGEN--\":6667:6668   */\n      0x00\n        /* \"--CODEGEN--\":6656:6665   */\n      dup4\n        /* \"--CODEGEN--\":6652:6669   */\n      add\n        /* \"--CODEGEN--\":6643:6649   */\n      dup5\n        /* \"--CODEGEN--\":6599:6670   */\n      tag_139\n      jump\t// in\n    tag_157:\n        /* \"--CODEGEN--\":6556:6680   */\n      swap3\n      swap2\n      pop\n      pop\n      jump\t// out\n        /* \"--CODEGEN--\":6687:6943   */\n    tag_71:\n      0x00\n        /* \"--CODEGEN--\":6749:6751   */\n      0x40\n        /* \"--CODEGEN--\":6743:6752   */\n      mload\n        /* \"--CODEGEN--\":6733:6752   */\n      swap1\n      pop\n        /* \"--CODEGEN--\":6787:6791   */\n      dup2\n        /* \"--CODEGEN--\":6779:6785   */\n      dup2\n        /* \"--CODEGEN--\":6775:6792   */\n      add\n        /* \"--CODEGEN--\":6886:6892   */\n      dup2\n        /* \"--CODEGEN--\":6874:6884   */\n      dup2\n        /* \"--CODEGEN--\":6871:6893   */\n      lt\n        /* \"--CODEGEN--\":6850:6868   */\n      0xffffffffffffffff\n        /* \"--CODEGEN--\":6838:6848   */\n      dup3\n        /* \"--CODEGEN--\":6835:6869   */\n      gt\n        /* \"--CODEGEN--\":6832:6894   */\n      or\n        /* \"--CODEGEN--\":6829:6831   */\n      iszero\n      tag_159\n      jumpi\n        /* \"--CODEGEN--\":6907:6908   */\n      0x00\n        /* \"--CODEGEN--\":6904:6905   */\n      dup1\n        /* \"--CODEGEN--\":6897:6909   */\n      revert\n        /* \"--CODEGEN--\":6829:6831   */\n    tag_159:\n        /* \"--CODEGEN--\":6927:6937   */\n      dup1\n        /* \"--CODEGEN--\":6923:6925   */\n      0x40\n        /* \"--CODEGEN--\":6916:6938   */\n      mstore\n        /* \"--CODEGEN--\":6727:6943   */\n      pop\n      swap2\n      swap1\n      pop\n      jump\t// out\n        /* \"--CODEGEN--\":6950:7272   */\n    tag_70:\n      0x00\n        /* \"--CODEGEN--\":7094:7112   */\n      0xffffffffffffffff\n        /* \"--CODEGEN--\":7086:7092   */\n      dup3\n        /* \"--CODEGEN--\":7083:7113   */\n      gt\n        /* \"--CODEGEN--\":7080:7082   */\n      iszero\n      tag_161\n      jumpi\n        /* \"--CODEGEN--\":7126:7127   */\n      0x00\n        /* \"--CODEGEN--\":7123:7124   */\n      dup1\n        /* \"--CODEGEN--\":7116:7128   */\n      revert\n        /* \"--CODEGEN--\":7080:7082   */\n    tag_161:\n        /* \"--CODEGEN--\":7193:7197   */\n      0x1f\n        /* \"--CODEGEN--\":7189:7198   */\n      not\n        /* \"--CODEGEN--\":7182:7186   */\n      0x1f\n        /* \"--CODEGEN--\":7174:7180   */\n      dup4\n        /* \"--CODEGEN--\":7170:7187   */\n      add\n        /* \"--CODEGEN--\":7166:7199   */\n      and\n        /* \"--CODEGEN--\":7158:7199   */\n      swap1\n      pop\n        /* \"--CODEGEN--\":7257:7261   */\n      0x20\n        /* \"--CODEGEN--\":7251:7255   */\n      dup2\n        /* \"--CODEGEN--\":7247:7262   */\n      add\n        /* \"--CODEGEN--\":7239:7262   */\n      swap1\n      pop\n        /* \"--CODEGEN--\":7017:7272   */\n      swap2\n      swap1\n      pop\n      jump\t// out\n        /* \"--CODEGEN--\":7279:7440   */\n    tag_103:\n      0x00\n        /* \"--CODEGEN--\":7375:7378   */\n      dup2\n        /* \"--CODEGEN--\":7367:7378   */\n      swap1\n      pop\n        /* \"--CODEGEN--\":7413:7417   */\n      0x20\n        /* \"--CODEGEN--\":7408:7411   */\n      dup3\n        /* \"--CODEGEN--\":7404:7418   */\n      add\n        /* \"--CODEGEN--\":7396:7418   */\n      swap1\n      pop\n        /* \"--CODEGEN--\":7361:7440   */\n      swap2\n      swap1\n      pop\n      jump\t// out\n        /* \"--CODEGEN--\":7447:7594   */\n    tag_99:\n      0x00\n        /* \"--CODEGEN--\":7566:7571   */\n      dup2\n        /* \"--CODEGEN--\":7560:7572   */\n      mload\n        /* \"--CODEGEN--\":7550:7572   */\n      swap1\n      pop\n        /* \"--CODEGEN--\":7531:7594   */\n      swap2\n      swap1\n      pop\n      jump\t// out\n        /* \"--CODEGEN--\":7601:7723   */\n    tag_116:\n      0x00\n        /* \"--CODEGEN--\":7695:7700   */\n      dup2\n        /* \"--CODEGEN--\":7689:7701   */\n      mload\n        /* \"--CODEGEN--\":7679:7701   */\n      swap1\n      pop\n        /* \"--CODEGEN--\":7660:7723   */\n      swap2\n      swap1\n      pop\n      jump\t// out\n        /* \"--CODEGEN--\":7730:7848   */\n    tag_109:\n      0x00\n        /* \"--CODEGEN--\":7838:7842   */\n      0x20\n        /* \"--CODEGEN--\":7833:7836   */\n      dup3\n        /* \"--CODEGEN--\":7829:7843   */\n      add\n        /* \"--CODEGEN--\":7821:7843   */\n      swap1\n      pop\n        /* \"--CODEGEN--\":7815:7848   */\n      swap2\n      swap1\n      pop\n      jump\t// out\n        /* \"--CODEGEN--\":7856:8044   */\n    tag_101:\n      0x00\n        /* \"--CODEGEN--\":7996:8002   */\n      dup3\n        /* \"--CODEGEN--\":7991:7994   */\n      dup3\n        /* \"--CODEGEN--\":7984:8003   */\n      mstore\n        /* \"--CODEGEN--\":8033:8037   */\n      0x20\n        /* \"--CODEGEN--\":8028:8031   */\n      dup3\n        /* \"--CODEGEN--\":8024:8038   */\n      add\n        /* \"--CODEGEN--\":8009:8038   */\n      swap1\n      pop\n        /* \"--CODEGEN--\":7977:8044   */\n      swap3\n      swap2\n      pop\n      pop\n      jump\t// out\n        /* \"--CODEGEN--\":8053:8206   */\n    tag_118:\n      0x00\n        /* \"--CODEGEN--\":8158:8164   */\n      dup3\n        /* \"--CODEGEN--\":8153:8156   */\n      dup3\n        /* \"--CODEGEN--\":8146:8165   */\n      mstore\n        /* \"--CODEGEN--\":8195:8199   */\n      0x20\n        /* \"--CODEGEN--\":8190:8193   */\n      dup3\n        /* \"--CODEGEN--\":8186:8200   */\n      add\n        /* \"--CODEGEN--\":8171:8200   */\n      swap1\n      pop\n        /* \"--CODEGEN--\":8139:8206   */\n      swap3\n      swap2\n      pop\n      pop\n      jump\t// out\n        /* \"--CODEGEN--\":8215:8378   */\n    tag_127:\n      0x00\n        /* \"--CODEGEN--\":8330:8336   */\n      dup3\n        /* \"--CODEGEN--\":8325:8328   */\n      dup3\n        /* \"--CODEGEN--\":8318:8337   */\n      mstore\n        /* \"--CODEGEN--\":8367:8371   */\n      0x20\n        /* \"--CODEGEN--\":8362:8365   */\n      dup3\n        /* \"--CODEGEN--\":8358:8372   */\n      add\n        /* \"--CODEGEN--\":8343:8372   */\n      swap1\n      pop\n        /* \"--CODEGEN--\":8311:8378   */\n      swap3\n      swap2\n      pop\n      pop\n      jump\t// out\n        /* \"--CODEGEN--\":8387:8532   */\n    tag_134:\n      0x00\n        /* \"--CODEGEN--\":8523:8526   */\n      dup2\n        /* \"--CODEGEN--\":8508:8526   */\n      swap1\n      pop\n        /* \"--CODEGEN--\":8501:8532   */\n      swap3\n      swap2\n      pop\n      pop\n      jump\t// out\n        /* \"--CODEGEN--\":8540:8631   */\n    tag_95:\n      0x00\n        /* \"--CODEGEN--\":8602:8626   */\n      tag_171\n        /* \"--CODEGEN--\":8620:8625   */\n      dup3\n        /* \"--CODEGEN--\":8602:8626   */\n      tag_172\n      jump\t// in\n    tag_171:\n        /* \"--CODEGEN--\":8591:8626   */\n      swap1\n      pop\n        /* \"--CODEGEN--\":8585:8631   */\n      swap2\n      swap1\n      pop\n      jump\t// out\n        /* \"--CODEGEN--\":8638:8710   */\n    tag_113:\n      0x00\n        /* \"--CODEGEN--\":8700:8705   */\n      dup2\n        /* \"--CODEGEN--\":8689:8705   */\n      swap1\n      pop\n        /* \"--CODEGEN--\":8683:8710   */\n      swap2\n      swap1\n      pop\n      jump\t// out\n        /* \"--CODEGEN--\":8717:8838   */\n    tag_172:\n      0x00\n        /* \"--CODEGEN--\":8790:8832   */\n      0xffffffffffffffffffffffffffffffffffffffff\n        /* \"--CODEGEN--\":8783:8788   */\n      dup3\n        /* \"--CODEGEN--\":8779:8833   */\n      and\n        /* \"--CODEGEN--\":8768:8833   */\n      swap1\n      pop\n        /* \"--CODEGEN--\":8762:8838   */\n      swap2\n      swap1\n      pop\n      jump\t// out\n        /* \"--CODEGEN--\":8845:8917   */\n    tag_142:\n      0x00\n        /* \"--CODEGEN--\":8907:8912   */\n      dup2\n        /* \"--CODEGEN--\":8896:8912   */\n      swap1\n      pop\n        /* \"--CODEGEN--\":8890:8917   */\n      swap2\n      swap1\n      pop\n      jump\t// out\n        /* \"--CODEGEN--\":8925:9070   */\n    tag_74:\n        /* \"--CODEGEN--\":9006:9012   */\n      dup3\n        /* \"--CODEGEN--\":9001:9004   */\n      dup2\n        /* \"--CODEGEN--\":8996:8999   */\n      dup4\n        /* \"--CODEGEN--\":8983:9013   */\n      calldatacopy\n        /* \"--CODEGEN--\":9062:9063   */\n      0x00\n        /* \"--CODEGEN--\":9053:9059   */\n      dup4\n        /* \"--CODEGEN--\":9048:9051   */\n      dup4\n        /* \"--CODEGEN--\":9044:9060   */\n      add\n        /* \"--CODEGEN--\":9037:9064   */\n      mstore\n        /* \"--CODEGEN--\":8976:9070   */\n      pop\n      pop\n      pop\n      jump\t// out\n        /* \"--CODEGEN--\":9079:9347   */\n    tag_120:\n        /* \"--CODEGEN--\":9144:9145   */\n      0x00\n        /* \"--CODEGEN--\":9151:9252   */\n    tag_178:\n        /* \"--CODEGEN--\":9165:9171   */\n      dup4\n        /* \"--CODEGEN--\":9162:9163   */\n      dup2\n        /* \"--CODEGEN--\":9159:9172   */\n      lt\n        /* \"--CODEGEN--\":9151:9252   */\n      iszero\n      tag_180\n      jumpi\n        /* \"--CODEGEN--\":9241:9242   */\n      dup1\n        /* \"--CODEGEN--\":9236:9239   */\n      dup3\n        /* \"--CODEGEN--\":9232:9243   */\n      add\n        /* \"--CODEGEN--\":9226:9244   */\n      mload\n        /* \"--CODEGEN--\":9222:9223   */\n      dup2\n        /* \"--CODEGEN--\":9217:9220   */\n      dup5\n        /* \"--CODEGEN--\":9213:9224   */\n      add\n        /* \"--CODEGEN--\":9206:9245   */\n      mstore\n        /* \"--CODEGEN--\":9187:9189   */\n      0x20\n        /* \"--CODEGEN--\":9184:9185   */\n      dup2\n        /* \"--CODEGEN--\":9180:9190   */\n      add\n        /* \"--CODEGEN--\":9175:9190   */\n      swap1\n      pop\n        /* \"--CODEGEN--\":9151:9252   */\n      jump(tag_178)\n    tag_180:\n        /* \"--CODEGEN--\":9267:9273   */\n      dup4\n        /* \"--CODEGEN--\":9264:9265   */\n      dup2\n        /* \"--CODEGEN--\":9261:9274   */\n      gt\n        /* \"--CODEGEN--\":9258:9260   */\n      iszero\n      tag_181\n      jumpi\n        /* \"--CODEGEN--\":9332:9333   */\n      0x00\n        /* \"--CODEGEN--\":9323:9329   */\n      dup5\n        /* \"--CODEGEN--\":9318:9321   */\n      dup5\n        /* \"--CODEGEN--\":9314:9330   */\n      add\n        /* \"--CODEGEN--\":9307:9334   */\n      mstore\n        /* \"--CODEGEN--\":9258:9260   */\n    tag_181:\n        /* \"--CODEGEN--\":9128:9347   */\n      pop\n      pop\n      pop\n      pop\n      jump\t// out\n        /* \"--CODEGEN--\":9355:9452   */\n    tag_122:\n      0x00\n        /* \"--CODEGEN--\":9443:9445   */\n      0x1f\n        /* \"--CODEGEN--\":9439:9446   */\n      not\n        /* \"--CODEGEN--\":9434:9436   */\n      0x1f\n        /* \"--CODEGEN--\":9427:9432   */\n      dup4\n        /* \"--CODEGEN--\":9423:9437   */\n      add\n        /* \"--CODEGEN--\":9419:9447   */\n      and\n        /* \"--CODEGEN--\":9409:9447   */\n      swap1\n      pop\n        /* \"--CODEGEN--\":9403:9452   */\n      swap2\n      swap1\n      pop\n      jump\t// out\n        /* \"--CODEGEN--\":9460:9577   */\n    tag_78:\n        /* \"--CODEGEN--\":9529:9553   */\n      tag_184\n        /* \"--CODEGEN--\":9547:9552   */\n      dup2\n        /* \"--CODEGEN--\":9529:9553   */\n      tag_142\n      jump\t// in\n    tag_184:\n        /* \"--CODEGEN--\":9522:9527   */\n      dup2\n        /* \"--CODEGEN--\":9519:9554   */\n      eq\n        /* \"--CODEGEN--\":9509:9511   */\n      tag_185\n      jumpi\n        /* \"--CODEGEN--\":9568:9569   */\n      0x00\n        /* \"--CODEGEN--\":9565:9566   */\n      dup1\n        /* \"--CODEGEN--\":9558:9570   */\n      revert\n        /* \"--CODEGEN--\":9509:9511   */\n    tag_185:\n        /* \"--CODEGEN--\":9503:9577   */\n      pop\n      jump\t// out\n\n    auxdata: 0xa26469706673582212203698b7723510646d4ca1865f9e37b3caf606b0bd7e27a88af5d2d6d550c11bd664736f6c634300060c0033\n}\n",
				"bytecode": {
					"linkReferences": {},
					"object": "608060405234801561001057600080fd5b50336000806101000a81548173ffffffffffffffffffffffffffffffffffffffff021916908373ffffffffffffffffffffffffffffffffffffffff160217905550610a56806100606000396000f3fe608060405234801561001057600080fd5b50600436106100575760003560e01c8063028d016a1461005c5780635113940d1461007a5780637b81880c14610098578063d56c52ae146100b4578063e199aaf7146100d0575b600080fd5b610064610100565b60405161007191906107fe565b60405180910390f35b610082610279565b60405161008f91906107e3565b60405180910390f35b6100b260048036038101906100ad91906105b9565b61029d565b005b6100ce60048036038101906100c99190610578565b6103ae565b005b6100ea60048036038101906100e59190610578565b610424565b6040516100f7919061088b565b60405180910390f35b60603360008054906101000a900473ffffffffffffffffffffffffffffffffffffffff1673ffffffffffffffffffffffffffffffffffffffff168173ffffffffffffffffffffffffffffffffffffffff1614610191576040517f08c379a00000000000000000000000000000000000000000000000000000000081526004016101889061086b565b60405180910390fd5b6002805480602002602001604051908101604052809291908181526020016000905b8282101561026f578382906000526020600020018054600181600116156101000203166002900480601f01602080910402602001604051908101604052809291908181526020018280546001816001161561010002031660029004801561025b5780601f106102305761010080835404028352916020019161025b565b820191906000526020600020905b81548152906001019060200180831161023e57829003601f168201915b5050505050815260200190600101906101b3565b5050505091505090565b60008054906101000a900473ffffffffffffffffffffffffffffffffffffffff1681565b3360008054906101000a900473ffffffffffffffffffffffffffffffffffffffff1673ffffffffffffffffffffffffffffffffffffffff168173ffffffffffffffffffffffffffffffffffffffff161461032c576040517f08c379a00000000000000000000000000000000000000000000000000000000081526004016103239061086b565b60405180910390fd5b60008360405160200161033f91906107cc565b6040516020818303038152906040528051906020012090508260016000838152602001908152602001600020819055507ffd83de6de76bf6a6a9c1b8980aad7370b0d3759b63fc0d30ddb7f30839ce82b581846040516103a0929190610820565b60405180910390a150505050565b6002819080600181540180825580915050600190039060005260206000200160009091909190915090805190602001906103e9929190610472565b507fca981d9115ef6cc4d88019fa70f9ffa85406c600b92296a25c270da252561b2c816040516104199190610849565b60405180910390a150565b6000808260405160200161043891906107cc565b6040516020818303038152906040528051906020012090506000600160008381526020019081526020016000205490508092505050919050565b828054600181600116156101000203166002900490600052602060002090601f016020900481019282601f106104b357805160ff19168380011785556104e1565b828001600101855582156104e1579182015b828111156104e05782518255916020019190600101906104c5565b5b5090506104ee91906104f2565b5090565b5b8082111561050b5760008160009055506001016104f3565b5090565b600082601f83011261052057600080fd5b813561053361052e826108d3565b6108a6565b9150808252602083016020830185838301111561054f57600080fd5b61055a8382846109b6565b50505092915050565b60008135905061057281610a09565b92915050565b60006020828403121561058a57600080fd5b600082013567ffffffffffffffff8111156105a457600080fd5b6105b08482850161050f565b91505092915050565b600080604083850312156105cc57600080fd5b600083013567ffffffffffffffff8111156105e657600080fd5b6105f28582860161050f565b925050602061060385828601610563565b9150509250929050565b600061061983836106b4565b905092915050565b61062a81610970565b82525050565b600061063b8261090f565b6106458185610932565b935083602082028501610657856108ff565b8060005b858110156106935784840389528151610674858261060d565b945061067f83610925565b925060208a0199505060018101905061065b565b50829750879550505050505092915050565b6106ae81610982565b82525050565b60006106bf8261091a565b6106c98185610943565b93506106d98185602086016109c5565b6106e2816109f8565b840191505092915050565b60006106f88261091a565b6107028185610954565b93506107128185602086016109c5565b61071b816109f8565b840191505092915050565b60006107318261091a565b61073b8185610965565b935061074b8185602086016109c5565b80840191505092915050565b6000610764602f83610954565b91507f4e6f207469656e6573207065726d69736f73207061726120656a65637574617260008301527f20657374612066756e6369c3b36e2100000000000000000000000000000000006020830152604082019050919050565b6107c6816109ac565b82525050565b60006107d88284610726565b915081905092915050565b60006020820190506107f86000830184610621565b92915050565b600060208201905081810360008301526108188184610630565b905092915050565b600060408201905061083560008301856106a5565b61084260208301846107bd565b9392505050565b6000602082019050818103600083015261086381846106ed565b905092915050565b6000602082019050818103600083015261088481610757565b9050919050565b60006020820190506108a060008301846107bd565b92915050565b6000604051905081810181811067ffffffffffffffff821117156108c957600080fd5b8060405250919050565b600067ffffffffffffffff8211156108ea57600080fd5b601f19601f8301169050602081019050919050565b6000819050602082019050919050565b600081519050919050565b600081519050919050565b6000602082019050919050565b600082825260208201905092915050565b600082825260208201905092915050565b600082825260208201905092915050565b600081905092915050565b600061097b8261098c565b9050919050565b6000819050919050565b600073ffffffffffffffffffffffffffffffffffffffff82169050919050565b6000819050919050565b82818337600083830152505050565b60005b838110156109e35780820151818401526020810190506109c8565b838111156109f2576000848401525b50505050565b6000601f19601f8301169050919050565b610a12816109ac565b8114610a1d57600080fd5b5056fea26469706673582212203698b7723510646d4ca1865f9e37b3caf606b0bd7e27a88af5d2d6d550c11bd664736f6c634300060c0033",
					"opcodes": "PUSH1 0x80 PUSH1 0x40 MSTORE CALLVALUE DUP1 ISZERO PUSH2 0x10 JUMPI PUSH1 0x0 DUP1 REVERT JUMPDEST POP CALLER PUSH1 0x0 DUP1 PUSH2 0x100 EXP DUP2 SLOAD DUP2 PUSH20 0xFFFFFFFFFFFFFFFFFFFFFFFFFFFFFFFFFFFFFFFF MUL NOT AND SWAP1 DUP4 PUSH20 0xFFFFFFFFFFFFFFFFFFFFFFFFFFFFFFFFFFFFFFFF AND MUL OR SWAP1 SSTORE POP PUSH2 0xA56 DUP1 PUSH2 0x60 PUSH1 0x0 CODECOPY PUSH1 0x0 RETURN INVALID PUSH1 0x80 PUSH1 0x40 MSTORE CALLVALUE DUP1 ISZERO PUSH2 0x10 JUMPI PUSH1 0x0 DUP1 REVERT JUMPDEST POP PUSH1 0x4 CALLDATASIZE LT PUSH2 0x57 JUMPI PUSH1 0x0 CALLDATALOAD PUSH1 0xE0 SHR DUP1 PUSH4 0x28D016A EQ PUSH2 0x5C JUMPI DUP1 PUSH4 0x5113940D EQ PUSH2 0x7A JUMPI DUP1 PUSH4 0x7B81880C EQ PUSH2 0x98 JUMPI DUP1 PUSH4 0xD56C52AE EQ PUSH2 0xB4 JUMPI DUP1 PUSH4 0xE199AAF7 EQ PUSH2 0xD0 JUMPI JUMPDEST PUSH1 0x0 DUP1 REVERT JUMPDEST PUSH2 0x64 PUSH2 0x100 JUMP JUMPDEST PUSH1 0x40 MLOAD PUSH2 0x71 SWAP2 SWAP1 PUSH2 0x7FE JUMP JUMPDEST PUSH1 0x40 MLOAD DUP1 SWAP2 SUB SWAP1 RETURN JUMPDEST PUSH2 0x82 PUSH2 0x279 JUMP JUMPDEST PUSH1 0x40 MLOAD PUSH2 0x8F SWAP2 SWAP1 PUSH2 0x7E3 JUMP JUMPDEST PUSH1 0x40 MLOAD DUP1 SWAP2 SUB SWAP1 RETURN JUMPDEST PUSH2 0xB2 PUSH1 0x4 DUP1 CALLDATASIZE SUB DUP2 ADD SWAP1 PUSH2 0xAD SWAP2 SWAP1 PUSH2 0x5B9 JUMP JUMPDEST PUSH2 0x29D JUMP JUMPDEST STOP JUMPDEST PUSH2 0xCE PUSH1 0x4 DUP1 CALLDATASIZE SUB DUP2 ADD SWAP1 PUSH2 0xC9 SWAP2 SWAP1 PUSH2 0x578 JUMP JUMPDEST PUSH2 0x3AE JUMP JUMPDEST STOP JUMPDEST PUSH2 0xEA PUSH1 0x4 DUP1 CALLDATASIZE SUB DUP2 ADD SWAP1 PUSH2 0xE5 SWAP2 SWAP1 PUSH2 0x578 JUMP JUMPDEST PUSH2 0x424 JUMP JUMPDEST PUSH1 0x40 MLOAD PUSH2 0xF7 SWAP2 SWAP1 PUSH2 0x88B JUMP JUMPDEST PUSH1 0x40 MLOAD DUP1 SWAP2 SUB SWAP1 RETURN JUMPDEST PUSH1 0x60 CALLER PUSH1 0x0 DUP1 SLOAD SWAP1 PUSH2 0x100 EXP SWAP1 DIV PUSH20 0xFFFFFFFFFFFFFFFFFFFFFFFFFFFFFFFFFFFFFFFF AND PUSH20 0xFFFFFFFFFFFFFFFFFFFFFFFFFFFFFFFFFFFFFFFF AND DUP2 PUSH20 0xFFFFFFFFFFFFFFFFFFFFFFFFFFFFFFFFFFFFFFFF AND EQ PUSH2 0x191 JUMPI PUSH1 0x40 MLOAD PUSH32 0x8C379A000000000000000000000000000000000000000000000000000000000 DUP2 MSTORE PUSH1 0x4 ADD PUSH2 0x188 SWAP1 PUSH2 0x86B JUMP JUMPDEST PUSH1 0x40 MLOAD DUP1 SWAP2 SUB SWAP1 REVERT JUMPDEST PUSH1 0x2 DUP1 SLOAD DUP1 PUSH1 0x20 MUL PUSH1 0x20 ADD PUSH1 0x40 MLOAD SWAP1 DUP2 ADD PUSH1 0x40 MSTORE DUP1 SWAP3 SWAP2 SWAP1 DUP2 DUP2 MSTORE PUSH1 0x20 ADD PUSH1 0x0 SWAP1 JUMPDEST DUP3 DUP3 LT ISZERO PUSH2 0x26F JUMPI DUP4 DUP3 SWAP1 PUSH1 0x0 MSTORE PUSH1 0x20 PUSH1 0x0 KECCAK256 ADD DUP1 SLOAD PUSH1 0x1 DUP2 PUSH1 0x1 AND ISZERO PUSH2 0x100 MUL SUB AND PUSH1 0x2 SWAP1 DIV DUP1 PUSH1 0x1F ADD PUSH1 0x20 DUP1 SWAP2 DIV MUL PUSH1 0x20 ADD PUSH1 0x40 MLOAD SWAP1 DUP2 ADD PUSH1 0x40 MSTORE DUP1 SWAP3 SWAP2 SWAP1 DUP2 DUP2 MSTORE PUSH1 0x20 ADD DUP3 DUP1 SLOAD PUSH1 0x1 DUP2 PUSH1 0x1 AND ISZERO PUSH2 0x100 MUL SUB AND PUSH1 0x2 SWAP1 DIV DUP1 ISZERO PUSH2 0x25B JUMPI DUP1 PUSH1 0x1F LT PUSH2 0x230 JUMPI PUSH2 0x100 DUP1 DUP4 SLOAD DIV MUL DUP4 MSTORE SWAP2 PUSH1 0x20 ADD SWAP2 PUSH2 0x25B JUMP JUMPDEST DUP3 ADD SWAP2 SWAP1 PUSH1 0x0 MSTORE PUSH1 0x20 PUSH1 0x0 KECCAK256 SWAP1 JUMPDEST DUP2 SLOAD DUP2 MSTORE SWAP1 PUSH1 0x1 ADD SWAP1 PUSH1 0x20 ADD DUP1 DUP4 GT PUSH2 0x23E JUMPI DUP3 SWAP1 SUB PUSH1 0x1F AND DUP3 ADD SWAP2 JUMPDEST POP POP POP POP POP DUP2 MSTORE PUSH1 0x20 ADD SWAP1 PUSH1 0x1 ADD SWAP1 PUSH2 0x1B3 JUMP JUMPDEST POP POP POP POP SWAP2 POP POP SWAP1 JUMP JUMPDEST PUSH1 0x0 DUP1 SLOAD SWAP1 PUSH2 0x100 EXP SWAP1 DIV PUSH20 0xFFFFFFFFFFFFFFFFFFFFFFFFFFFFFFFFFFFFFFFF AND DUP2 JUMP JUMPDEST CALLER PUSH1 0x0 DUP1 SLOAD SWAP1 PUSH2 0x100 EXP SWAP1 DIV PUSH20 0xFFFFFFFFFFFFFFFFFFFFFFFFFFFFFFFFFFFFFFFF AND PUSH20 0xFFFFFFFFFFFFFFFFFFFFFFFFFFFFFFFFFFFFFFFF AND DUP2 PUSH20 0xFFFFFFFFFFFFFFFFFFFFFFFFFFFFFFFFFFFFFFFF AND EQ PUSH2 0x32C JUMPI PUSH1 0x40 MLOAD PUSH32 0x8C379A000000000000000000000000000000000000000000000000000000000 DUP2 MSTORE PUSH1 0x4 ADD PUSH2 0x323 SWAP1 PUSH2 0x86B JUMP JUMPDEST PUSH1 0x40 MLOAD DUP1 SWAP2 SUB SWAP1 REVERT JUMPDEST PUSH1 0x0 DUP4 PUSH1 0x40 MLOAD PUSH1 0x20 ADD PUSH2 0x33F SWAP2 SWAP1 PUSH2 0x7CC JUMP JUMPDEST PUSH1 0x40 MLOAD PUSH1 0x20 DUP2 DUP4 SUB SUB DUP2 MSTORE SWAP1 PUSH1 0x40 MSTORE DUP1 MLOAD SWAP1 PUSH1 0x20 ADD KECCAK256 SWAP1 POP DUP3 PUSH1 0x1 PUSH1 0x0 DUP4 DUP2 MSTORE PUSH1 0x20 ADD SWAP1 DUP2 MSTORE PUSH1 0x20 ADD PUSH1 0x0 KECCAK256 DUP2 SWAP1 SSTORE POP PUSH32 0xFD83DE6DE76BF6A6A9C1B8980AAD7370B0D3759B63FC0D30DDB7F30839CE82B5 DUP2 DUP5 PUSH1 0x40 MLOAD PUSH2 0x3A0 SWAP3 SWAP2 SWAP1 PUSH2 0x820 JUMP JUMPDEST PUSH1 0x40 MLOAD DUP1 SWAP2 SUB SWAP1 LOG1 POP POP POP POP JUMP JUMPDEST PUSH1 0x2 DUP2 SWAP1 DUP1 PUSH1 0x1 DUP2 SLOAD ADD DUP1 DUP3 SSTORE DUP1 SWAP2 POP POP PUSH1 0x1 SWAP1 SUB SWAP1 PUSH1 0x0 MSTORE PUSH1 0x20 PUSH1 0x0 KECCAK256 ADD PUSH1 0x0 SWAP1 SWAP2 SWAP1 SWAP2 SWAP1 SWAP2 POP SWAP1 DUP1 MLOAD SWAP1 PUSH1 0x20 ADD SWAP1 PUSH2 0x3E9 SWAP3 SWAP2 SWAP1 PUSH2 0x472 JUMP JUMPDEST POP PUSH32 0xCA981D9115EF6CC4D88019FA70F9FFA85406C600B92296A25C270DA252561B2C DUP2 PUSH1 0x40 MLOAD PUSH2 0x419 SWAP2 SWAP1 PUSH2 0x849 JUMP JUMPDEST PUSH1 0x40 MLOAD DUP1 SWAP2 SUB SWAP1 LOG1 POP JUMP JUMPDEST PUSH1 0x0 DUP1 DUP3 PUSH1 0x40 MLOAD PUSH1 0x20 ADD PUSH2 0x438 SWAP2 SWAP1 PUSH2 0x7CC JUMP JUMPDEST PUSH1 0x40 MLOAD PUSH1 0x20 DUP2 DUP4 SUB SUB DUP2 MSTORE SWAP1 PUSH1 0x40 MSTORE DUP1 MLOAD SWAP1 PUSH1 0x20 ADD KECCAK256 SWAP1 POP PUSH1 0x0 PUSH1 0x1 PUSH1 0x0 DUP4 DUP2 MSTORE PUSH1 0x20 ADD SWAP1 DUP2 MSTORE PUSH1 0x20 ADD PUSH1 0x0 KECCAK256 SLOAD SWAP1 POP DUP1 SWAP3 POP POP POP SWAP2 SWAP1 POP JUMP JUMPDEST DUP3 DUP1 SLOAD PUSH1 0x1 DUP2 PUSH1 0x1 AND ISZERO PUSH2 0x100 MUL SUB AND PUSH1 0x2 SWAP1 DIV SWAP1 PUSH1 0x0 MSTORE PUSH1 0x20 PUSH1 0x0 KECCAK256 SWAP1 PUSH1 0x1F ADD PUSH1 0x20 SWAP1 DIV DUP2 ADD SWAP3 DUP3 PUSH1 0x1F LT PUSH2 0x4B3 JUMPI DUP1 MLOAD PUSH1 0xFF NOT AND DUP4 DUP1 ADD OR DUP6 SSTORE PUSH2 0x4E1 JUMP JUMPDEST DUP3 DUP1 ADD PUSH1 0x1 ADD DUP6 SSTORE DUP3 ISZERO PUSH2 0x4E1 JUMPI SWAP2 DUP3 ADD JUMPDEST DUP3 DUP2 GT ISZERO PUSH2 0x4E0 JUMPI DUP3 MLOAD DUP3 SSTORE SWAP2 PUSH1 0x20 ADD SWAP2 SWAP1 PUSH1 0x1 ADD SWAP1 PUSH2 0x4C5 JUMP JUMPDEST JUMPDEST POP SWAP1 POP PUSH2 0x4EE SWAP2 SWAP1 PUSH2 0x4F2 JUMP JUMPDEST POP SWAP1 JUMP JUMPDEST JUMPDEST DUP1 DUP3 GT ISZERO PUSH2 0x50B JUMPI PUSH1 0x0 DUP2 PUSH1 0x0 SWAP1 SSTORE POP PUSH1 0x1 ADD PUSH2 0x4F3 JUMP JUMPDEST POP SWAP1 JUMP JUMPDEST PUSH1 0x0 DUP3 PUSH1 0x1F DUP4 ADD SLT PUSH2 0x520 JUMPI PUSH1 0x0 DUP1 REVERT JUMPDEST DUP2 CALLDATALOAD PUSH2 0x533 PUSH2 0x52E DUP3 PUSH2 0x8D3 JUMP JUMPDEST PUSH2 0x8A6 JUMP JUMPDEST SWAP2 POP DUP1 DUP3 MSTORE PUSH1 0x20 DUP4 ADD PUSH1 0x20 DUP4 ADD DUP6 DUP4 DUP4 ADD GT ISZERO PUSH2 0x54F JUMPI PUSH1 0x0 DUP1 REVERT JUMPDEST PUSH2 0x55A DUP4 DUP3 DUP5 PUSH2 0x9B6 JUMP JUMPDEST POP POP POP SWAP3 SWAP2 POP POP JUMP JUMPDEST PUSH1 0x0 DUP2 CALLDATALOAD SWAP1 POP PUSH2 0x572 DUP2 PUSH2 0xA09 JUMP JUMPDEST SWAP3 SWAP2 POP POP JUMP JUMPDEST PUSH1 0x0 PUSH1 0x20 DUP3 DUP5 SUB SLT ISZERO PUSH2 0x58A JUMPI PUSH1 0x0 DUP1 REVERT JUMPDEST PUSH1 0x0 DUP3 ADD CALLDATALOAD PUSH8 0xFFFFFFFFFFFFFFFF DUP2 GT ISZERO PUSH2 0x5A4 JUMPI PUSH1 0x0 DUP1 REVERT JUMPDEST PUSH2 0x5B0 DUP5 DUP3 DUP6 ADD PUSH2 0x50F JUMP JUMPDEST SWAP2 POP POP SWAP3 SWAP2 POP POP JUMP JUMPDEST PUSH1 0x0 DUP1 PUSH1 0x40 DUP4 DUP6 SUB SLT ISZERO PUSH2 0x5CC JUMPI PUSH1 0x0 DUP1 REVERT JUMPDEST PUSH1 0x0 DUP4 ADD CALLDATALOAD PUSH8 0xFFFFFFFFFFFFFFFF DUP2 GT ISZERO PUSH2 0x5E6 JUMPI PUSH1 0x0 DUP1 REVERT JUMPDEST PUSH2 0x5F2 DUP6 DUP3 DUP7 ADD PUSH2 0x50F JUMP JUMPDEST SWAP3 POP POP PUSH1 0x20 PUSH2 0x603 DUP6 DUP3 DUP7 ADD PUSH2 0x563 JUMP JUMPDEST SWAP2 POP POP SWAP3 POP SWAP3 SWAP1 POP JUMP JUMPDEST PUSH1 0x0 PUSH2 0x619 DUP4 DUP4 PUSH2 0x6B4 JUMP JUMPDEST SWAP1 POP SWAP3 SWAP2 POP POP JUMP JUMPDEST PUSH2 0x62A DUP2 PUSH2 0x970 JUMP JUMPDEST DUP3 MSTORE POP POP JUMP JUMPDEST PUSH1 0x0 PUSH2 0x63B DUP3 PUSH2 0x90F JUMP JUMPDEST PUSH2 0x645 DUP2 DUP6 PUSH2 0x932 JUMP JUMPDEST SWAP4 POP DUP4 PUSH1 0x20 DUP3 MUL DUP6 ADD PUSH2 0x657 DUP6 PUSH2 0x8FF JUMP JUMPDEST DUP1 PUSH1 0x0 JUMPDEST DUP6 DUP2 LT ISZERO PUSH2 0x693 JUMPI DUP5 DUP5 SUB DUP10 MSTORE DUP2 MLOAD PUSH2 0x674 DUP6 DUP3 PUSH2 0x60D JUMP JUMPDEST SWAP5 POP PUSH2 0x67F DUP4 PUSH2 0x925 JUMP JUMPDEST SWAP3 POP PUSH1 0x20 DUP11 ADD SWAP10 POP POP PUSH1 0x1 DUP2 ADD SWAP1 POP PUSH2 0x65B JUMP JUMPDEST POP DUP3 SWAP8 POP DUP8 SWAP6 POP POP POP POP POP POP SWAP3 SWAP2 POP POP JUMP JUMPDEST PUSH2 0x6AE DUP2 PUSH2 0x982 JUMP JUMPDEST DUP3 MSTORE POP POP JUMP JUMPDEST PUSH1 0x0 PUSH2 0x6BF DUP3 PUSH2 0x91A JUMP JUMPDEST PUSH2 0x6C9 DUP2 DUP6 PUSH2 0x943 JUMP JUMPDEST SWAP4 POP PUSH2 0x6D9 DUP2 DUP6 PUSH1 0x20 DUP7 ADD PUSH2 0x9C5 JUMP JUMPDEST PUSH2 0x6E2 DUP2 PUSH2 0x9F8 JUMP JUMPDEST DUP5 ADD SWAP2 POP POP SWAP3 SWAP2 POP POP JUMP JUMPDEST PUSH1 0x0 PUSH2 0x6F8 DUP3 PUSH2 0x91A JUMP JUMPDEST PUSH2 0x702 DUP2 DUP6 PUSH2 0x954 JUMP JUMPDEST SWAP4 POP PUSH2 0x712 DUP2 DUP6 PUSH1 0x20 DUP7 ADD PUSH2 0x9C5 JUMP JUMPDEST PUSH2 0x71B DUP2 PUSH2 0x9F8 JUMP JUMPDEST DUP5 ADD SWAP2 POP POP SWAP3 SWAP2 POP POP JUMP JUMPDEST PUSH1 0x0 PUSH2 0x731 DUP3 PUSH2 0x91A JUMP JUMPDEST PUSH2 0x73B DUP2 DUP6 PUSH2 0x965 JUMP JUMPDEST SWAP4 POP PUSH2 0x74B DUP2 DUP6 PUSH1 0x20 DUP7 ADD PUSH2 0x9C5 JUMP JUMPDEST DUP1 DUP5 ADD SWAP2 POP POP SWAP3 SWAP2 POP POP JUMP JUMPDEST PUSH1 0x0 PUSH2 0x764 PUSH1 0x2F DUP4 PUSH2 0x954 JUMP JUMPDEST SWAP2 POP PUSH32 0x4E6F207469656E6573207065726D69736F73207061726120656A656375746172 PUSH1 0x0 DUP4 ADD MSTORE PUSH32 0x20657374612066756E6369C3B36E210000000000000000000000000000000000 PUSH1 0x20 DUP4 ADD MSTORE PUSH1 0x40 DUP3 ADD SWAP1 POP SWAP2 SWAP1 POP JUMP JUMPDEST PUSH2 0x7C6 DUP2 PUSH2 0x9AC JUMP JUMPDEST DUP3 MSTORE POP POP JUMP JUMPDEST PUSH1 0x0 PUSH2 0x7D8 DUP3 DUP5 PUSH2 0x726 JUMP JUMPDEST SWAP2 POP DUP2 SWAP1 POP SWAP3 SWAP2 POP POP JUMP JUMPDEST PUSH1 0x0 PUSH1 0x20 DUP3 ADD SWAP1 POP PUSH2 0x7F8 PUSH1 0x0 DUP4 ADD DUP5 PUSH2 0x621 JUMP JUMPDEST SWAP3 SWAP2 POP POP JUMP JUMPDEST PUSH1 0x0 PUSH1 0x20 DUP3 ADD SWAP1 POP DUP2 DUP2 SUB PUSH1 0x0 DUP4 ADD MSTORE PUSH2 0x818 DUP2 DUP5 PUSH2 0x630 JUMP JUMPDEST SWAP1 POP SWAP3 SWAP2 POP POP JUMP JUMPDEST PUSH1 0x0 PUSH1 0x40 DUP3 ADD SWAP1 POP PUSH2 0x835 PUSH1 0x0 DUP4 ADD DUP6 PUSH2 0x6A5 JUMP JUMPDEST PUSH2 0x842 PUSH1 0x20 DUP4 ADD DUP5 PUSH2 0x7BD JUMP JUMPDEST SWAP4 SWAP3 POP POP POP JUMP JUMPDEST PUSH1 0x0 PUSH1 0x20 DUP3 ADD SWAP1 POP DUP2 DUP2 SUB PUSH1 0x0 DUP4 ADD MSTORE PUSH2 0x863 DUP2 DUP5 PUSH2 0x6ED JUMP JUMPDEST SWAP1 POP SWAP3 SWAP2 POP POP JUMP JUMPDEST PUSH1 0x0 PUSH1 0x20 DUP3 ADD SWAP1 POP DUP2 DUP2 SUB PUSH1 0x0 DUP4 ADD MSTORE PUSH2 0x884 DUP2 PUSH2 0x757 JUMP JUMPDEST SWAP1 POP SWAP2 SWAP1 POP JUMP JUMPDEST PUSH1 0x0 PUSH1 0x20 DUP3 ADD SWAP1 POP PUSH2 0x8A0 PUSH1 0x0 DUP4 ADD DUP5 PUSH2 0x7BD JUMP JUMPDEST SWAP3 SWAP2 POP POP JUMP JUMPDEST PUSH1 0x0 PUSH1 0x40 MLOAD SWAP1 POP DUP2 DUP2 ADD DUP2 DUP2 LT PUSH8 0xFFFFFFFFFFFFFFFF DUP3 GT OR ISZERO PUSH2 0x8C9 JUMPI PUSH1 0x0 DUP1 REVERT JUMPDEST DUP1 PUSH1 0x40 MSTORE POP SWAP2 SWAP1 POP JUMP JUMPDEST PUSH1 0x0 PUSH8 0xFFFFFFFFFFFFFFFF DUP3 GT ISZERO PUSH2 0x8EA JUMPI PUSH1 0x0 DUP1 REVERT JUMPDEST PUSH1 0x1F NOT PUSH1 0x1F DUP4 ADD AND SWAP1 POP PUSH1 0x20 DUP2 ADD SWAP1 POP SWAP2 SWAP1 POP JUMP JUMPDEST PUSH1 0x0 DUP2 SWAP1 POP PUSH1 0x20 DUP3 ADD SWAP1 POP SWAP2 SWAP1 POP JUMP JUMPDEST PUSH1 0x0 DUP2 MLOAD SWAP1 POP SWAP2 SWAP1 POP JUMP JUMPDEST PUSH1 0x0 DUP2 MLOAD SWAP1 POP SWAP2 SWAP1 POP JUMP JUMPDEST PUSH1 0x0 PUSH1 0x20 DUP3 ADD SWAP1 POP SWAP2 SWAP1 POP JUMP JUMPDEST PUSH1 0x0 DUP3 DUP3 MSTORE PUSH1 0x20 DUP3 ADD SWAP1 POP SWAP3 SWAP2 POP POP JUMP JUMPDEST PUSH1 0x0 DUP3 DUP3 MSTORE PUSH1 0x20 DUP3 ADD SWAP1 POP SWAP3 SWAP2 POP POP JUMP JUMPDEST PUSH1 0x0 DUP3 DUP3 MSTORE PUSH1 0x20 DUP3 ADD SWAP1 POP SWAP3 SWAP2 POP POP JUMP JUMPDEST PUSH1 0x0 DUP2 SWAP1 POP SWAP3 SWAP2 POP POP JUMP JUMPDEST PUSH1 0x0 PUSH2 0x97B DUP3 PUSH2 0x98C JUMP JUMPDEST SWAP1 POP SWAP2 SWAP1 POP JUMP JUMPDEST PUSH1 0x0 DUP2 SWAP1 POP SWAP2 SWAP1 POP JUMP JUMPDEST PUSH1 0x0 PUSH20 0xFFFFFFFFFFFFFFFFFFFFFFFFFFFFFFFFFFFFFFFF DUP3 AND SWAP1 POP SWAP2 SWAP1 POP JUMP JUMPDEST PUSH1 0x0 DUP2 SWAP1 POP SWAP2 SWAP1 POP JUMP JUMPDEST DUP3 DUP2 DUP4 CALLDATACOPY PUSH1 0x0 DUP4 DUP4 ADD MSTORE POP POP POP JUMP JUMPDEST PUSH1 0x0 JUMPDEST DUP4 DUP2 LT ISZERO PUSH2 0x9E3 JUMPI DUP1 DUP3 ADD MLOAD DUP2 DUP5 ADD MSTORE PUSH1 0x20 DUP2 ADD SWAP1 POP PUSH2 0x9C8 JUMP JUMPDEST DUP4 DUP2 GT ISZERO PUSH2 0x9F2 JUMPI PUSH1 0x0 DUP5 DUP5 ADD MSTORE JUMPDEST POP POP POP POP JUMP JUMPDEST PUSH1 0x0 PUSH1 0x1F NOT PUSH1 0x1F DUP4 ADD AND SWAP1 POP SWAP2 SWAP1 POP JUMP JUMPDEST PUSH2 0xA12 DUP2 PUSH2 0x9AC JUMP JUMPDEST DUP2 EQ PUSH2 0xA1D JUMPI PUSH1 0x0 DUP1 REVERT JUMPDEST POP JUMP INVALID LOG2 PUSH5 0x6970667358 0x22 SLT KECCAK256 CALLDATASIZE SWAP9 0xB7 PUSH19 0x3510646D4CA1865F9E37B3CAF606B0BD7E27A8 DUP11 CREATE2 0xD2 0xD6 0xD5 POP 0xC1 SHL 0xD6 PUSH5 0x736F6C6343 STOP MOD 0xC STOP CALLER "
				},
				"gasEstimates": {
					"creation": {
						"codeDepositCost": "529200",
						"executionCost": "21428",
						"totalCost": "550628"
					},
					"external": {
						"askToSeeNotes(string)": "infinite",
						"evaluate(string,uint256)": "infinite",
						"professor()": "1211",
						"seeNotes(string)": "infinite",
						"seeRevisions()": "infinite"
					}
				},
				"methodIdentifiers": {
					"askToSeeNotes(string)": "d56c52ae",
					"evaluate(string,uint256)": "7b81880c",
					"professor()": "5113940d",
					"seeNotes(string)": "e199aaf7",
					"seeRevisions()": "028d016a"
				}
			},
			"storageLayout": {
				"storage": [
					{
						"astId": 4,
						"contract": "NOTES/notes.sol:notas",
						"label": "professor",
						"offset": 0,
						"slot": "0",
						"type": "t_address"
					},
					{
						"astId": 17,
						"contract": "NOTES/notes.sol:notas",
						"label": "Notes",
						"offset": 0,
						"slot": "1",
						"type": "t_mapping(t_bytes32,t_uint256)"
					},
					{
						"astId": 20,
						"contract": "NOTES/notes.sol:notas",
						"label": "revisions",
						"offset": 0,
						"slot": "2",
						"type": "t_array(t_string_storage)dyn_storage"
					}
				],
				"types": {
					"t_address": {
						"encoding": "inplace",
						"label": "address",
						"numberOfBytes": "20"
					},
					"t_array(t_string_storage)dyn_storage": {
						"base": "t_string_storage",
						"encoding": "dynamic_array",
						"label": "string[]",
						"numberOfBytes": "32"
					},
					"t_bytes32": {
						"encoding": "inplace",
						"label": "bytes32",
						"numberOfBytes": "32"
					},
					"t_mapping(t_bytes32,t_uint256)": {
						"encoding": "mapping",
						"key": "t_bytes32",
						"label": "mapping(bytes32 => uint256)",
						"numberOfBytes": "32",
						"value": "t_uint256"
					},
					"t_string_storage": {
						"encoding": "bytes",
						"label": "string",
						"numberOfBytes": "32"
					},
					"t_uint256": {
						"encoding": "inplace",
						"label": "uint256",
						"numberOfBytes": "32"
					}
				}
			},
			"userdoc": {
				"kind": "user",
				"methods": {},
				"version": 1
			}
		}
	}
}