{
	"NOTES/notes.sol": {
		"notas": {
			"abi": [
				{
					"inputs": [],
					"stateMutability": "nonpayable",
					"type": "constructor"
				},
				{
					"anonymous": false,
					"inputs": [
						{
							"indexed": false,
							"internalType": "bytes32",
							"name": "",
							"type": "bytes32"
						}
					],
					"name": "evaluated_student",
					"type": "event"
				},
				{
					"anonymous": false,
					"inputs": [
						{
							"indexed": false,
							"internalType": "string",
							"name": "",
							"type": "string"
						}
					],
					"name": "revision",
					"type": "event"
				},
				{
					"inputs": [
						{
							"internalType": "string",
							"name": "_studentId",
							"type": "string"
						},
						{
							"internalType": "uint256",
							"name": "_note",
							"type": "uint256"
						}
					],
					"name": "evaluate",
					"outputs": [],
					"stateMutability": "nonpayable",
					"type": "function"
				},
				{
					"inputs": [],
					"name": "professor",
					"outputs": [
						{
							"internalType": "address",
							"name": "",
							"type": "address"
						}
					],
					"stateMutability": "view",
					"type": "function"
				}
			],
			"devdoc": {
				"kind": "dev",
				"methods": {},
				"version": 1
			},
			"evm": {
				"assembly": "    /* \"NOTES/notes.sol\":104:2356  contract notas {\r... */\n  mstore(0x40, 0x80)\n    /* \"NOTES/notes.sol\":221:284  constructor () public {\r... */\n  callvalue\n  dup1\n  iszero\n  tag_1\n  jumpi\n  0x00\n  dup1\n  revert\ntag_1:\n  pop\n    /* \"NOTES/notes.sol\":266:276  msg.sender */\n  caller\n    /* \"NOTES/notes.sol\":254:263  professor */\n  0x00\n  dup1\n    /* \"NOTES/notes.sol\":254:276  professor = msg.sender */\n  0x0100\n  exp\n  dup2\n  sload\n  dup2\n  0xffffffffffffffffffffffffffffffffffffffff\n  mul\n  not\n  and\n  swap1\n  dup4\n  0xffffffffffffffffffffffffffffffffffffffff\n  and\n  mul\n  or\n  swap1\n  sstore\n  pop\n    /* \"NOTES/notes.sol\":104:2356  contract notas {\r... */\n  dataSize(sub_0)\n  dup1\n  dataOffset(sub_0)\n  0x00\n  codecopy\n  0x00\n  return\nstop\n\nsub_0: assembly {\n        /* \"NOTES/notes.sol\":104:2356  contract notas {\r... */\n      mstore(0x40, 0x80)\n      callvalue\n      dup1\n      iszero\n      tag_1\n      jumpi\n      0x00\n      dup1\n      revert\n    tag_1:\n      pop\n      jumpi(tag_2, lt(calldatasize, 0x04))\n      shr(0xe0, calldataload(0x00))\n      dup1\n      0x5113940d\n      eq\n      tag_3\n      jumpi\n      dup1\n      0x7b81880c\n      eq\n      tag_4\n      jumpi\n    tag_2:\n      0x00\n      dup1\n      revert\n        /* \"NOTES/notes.sol\":163:187  address public professor */\n    tag_3:\n      tag_5\n      tag_6\n      jump\t// in\n    tag_5:\n      mload(0x40)\n      tag_7\n      swap2\n      swap1\n      tag_8\n      jump\t// in\n    tag_7:\n      mload(0x40)\n      dup1\n      swap2\n      sub\n      swap1\n      return\n        /* \"NOTES/notes.sol\":651:1071  function evaluate(string memory _studentId, uint _note) public professorUnique(msg.sender){\r... */\n    tag_4:\n      tag_9\n      0x04\n      dup1\n      calldatasize\n      sub\n      dup2\n      add\n      swap1\n      tag_10\n      swap2\n      swap1\n      tag_11\n      jump\t// in\n    tag_10:\n      tag_12\n      jump\t// in\n    tag_9:\n      stop\n        /* \"NOTES/notes.sol\":163:187  address public professor */\n    tag_6:\n      0x00\n      dup1\n      sload\n      swap1\n      0x0100\n      exp\n      swap1\n      div\n      0xffffffffffffffffffffffffffffffffffffffff\n      and\n      dup2\n      jump\t// out\n        /* \"NOTES/notes.sol\":651:1071  function evaluate(string memory _studentId, uint _note) public professorUnique(msg.sender){\r... */\n    tag_12:\n        /* \"NOTES/notes.sol\":730:740  msg.sender */\n      caller\n        /* \"NOTES/notes.sol\":1278:1287  professor */\n      0x00\n      dup1\n      sload\n      swap1\n      0x0100\n      exp\n      swap1\n      div\n      0xffffffffffffffffffffffffffffffffffffffff\n      and\n        /* \"NOTES/notes.sol\":1257:1287  _professorAddress == professor */\n      0xffffffffffffffffffffffffffffffffffffffff\n      and\n        /* \"NOTES/notes.sol\":1257:1274  _professorAddress */\n      dup2\n        /* \"NOTES/notes.sol\":1257:1287  _professorAddress == professor */\n      0xffffffffffffffffffffffffffffffffffffffff\n      and\n      eq\n        /* \"NOTES/notes.sol\":1249:1338  require(_professorAddress == professor, \"No tienes permisos para ejecutar esta funcion.\") */\n      tag_14\n      jumpi\n      mload(0x40)\n      0x08c379a000000000000000000000000000000000000000000000000000000000\n      dup2\n      mstore\n      0x04\n      add\n      tag_15\n      swap1\n      tag_16\n      jump\t// in\n    tag_15:\n      mload(0x40)\n      dup1\n      swap2\n      sub\n      swap1\n      revert\n    tag_14:\n        /* \"NOTES/notes.sol\":802:824  bytes32 hash_studentId */\n      0x00\n        /* \"NOTES/notes.sol\":854:864  _studentId */\n      dup4\n        /* \"NOTES/notes.sol\":837:865  abi.encodePacked(_studentId) */\n      add(0x20, mload(0x40))\n      tag_18\n      swap2\n      swap1\n      tag_19\n      jump\t// in\n    tag_18:\n      mload(0x40)\n      0x20\n      dup2\n      dup4\n      sub\n      sub\n      dup2\n      mstore\n      swap1\n      0x40\n      mstore\n        /* \"NOTES/notes.sol\":827:866  keccak256(abi.encodePacked(_studentId)) */\n      dup1\n      mload\n      swap1\n      0x20\n      add\n      keccak256\n        /* \"NOTES/notes.sol\":802:866  bytes32 hash_studentId = keccak256(abi.encodePacked(_studentId)) */\n      swap1\n      pop\n        /* \"NOTES/notes.sol\":978:983  _note */\n      dup3\n        /* \"NOTES/notes.sol\":954:959  Notes */\n      0x01\n        /* \"NOTES/notes.sol\":954:975  Notes[hash_studentId] */\n      0x00\n        /* \"NOTES/notes.sol\":960:974  hash_studentId */\n      dup4\n        /* \"NOTES/notes.sol\":954:975  Notes[hash_studentId] */\n      dup2\n      mstore\n      0x20\n      add\n      swap1\n      dup2\n      mstore\n      0x20\n      add\n      0x00\n      keccak256\n        /* \"NOTES/notes.sol\":954:983  Notes[hash_studentId] = _note */\n      dup2\n      swap1\n      sstore\n      pop\n        /* \"NOTES/notes.sol\":1030:1063  evaluated_student(hash_studentId) */\n      0x7c797c3c4c8b28d3d978931cf5e8ed89eca34e6b8cc1b4b6b1fce2a58c9e47ad\n        /* \"NOTES/notes.sol\":1048:1062  hash_studentId */\n      dup2\n        /* \"NOTES/notes.sol\":1030:1063  evaluated_student(hash_studentId) */\n      mload(0x40)\n      tag_20\n      swap2\n      swap1\n      tag_21\n      jump\t// in\n    tag_20:\n      mload(0x40)\n      dup1\n      swap2\n      sub\n      swap1\n      log1\n        /* \"NOTES/notes.sol\":1349:1350  _ */\n      pop\n        /* \"NOTES/notes.sol\":651:1071  function evaluate(string memory _studentId, uint _note) public professorUnique(msg.sender){\r... */\n      pop\n      pop\n      pop\n      jump\t// out\n        /* \"--CODEGEN--\":6:448   */\n    tag_23:\n      0x00\n        /* \"--CODEGEN--\":108:111   */\n      dup3\n        /* \"--CODEGEN--\":101:105   */\n      0x1f\n        /* \"--CODEGEN--\":93:99   */\n      dup4\n        /* \"--CODEGEN--\":89:106   */\n      add\n        /* \"--CODEGEN--\":85:112   */\n      slt\n        /* \"--CODEGEN--\":75:77   */\n      tag_25\n      jumpi\n        /* \"--CODEGEN--\":126:127   */\n      0x00\n        /* \"--CODEGEN--\":123:124   */\n      dup1\n        /* \"--CODEGEN--\":116:128   */\n      revert\n        /* \"--CODEGEN--\":75:77   */\n    tag_25:\n        /* \"--CODEGEN--\":163:169   */\n      dup2\n        /* \"--CODEGEN--\":150:170   */\n      calldataload\n        /* \"--CODEGEN--\":185:250   */\n      tag_26\n        /* \"--CODEGEN--\":200:249   */\n      tag_27\n        /* \"--CODEGEN--\":242:248   */\n      dup3\n        /* \"--CODEGEN--\":200:249   */\n      tag_28\n      jump\t// in\n    tag_27:\n        /* \"--CODEGEN--\":185:250   */\n      tag_29\n      jump\t// in\n    tag_26:\n        /* \"--CODEGEN--\":176:250   */\n      swap2\n      pop\n        /* \"--CODEGEN--\":270:276   */\n      dup1\n        /* \"--CODEGEN--\":263:268   */\n      dup3\n        /* \"--CODEGEN--\":256:277   */\n      mstore\n        /* \"--CODEGEN--\":306:310   */\n      0x20\n        /* \"--CODEGEN--\":298:304   */\n      dup4\n        /* \"--CODEGEN--\":294:311   */\n      add\n        /* \"--CODEGEN--\":339:343   */\n      0x20\n        /* \"--CODEGEN--\":332:337   */\n      dup4\n        /* \"--CODEGEN--\":328:344   */\n      add\n        /* \"--CODEGEN--\":374:377   */\n      dup6\n        /* \"--CODEGEN--\":365:371   */\n      dup4\n        /* \"--CODEGEN--\":360:363   */\n      dup4\n        /* \"--CODEGEN--\":356:372   */\n      add\n        /* \"--CODEGEN--\":353:378   */\n      gt\n        /* \"--CODEGEN--\":350:352   */\n      iszero\n      tag_30\n      jumpi\n        /* \"--CODEGEN--\":391:392   */\n      0x00\n        /* \"--CODEGEN--\":388:389   */\n      dup1\n        /* \"--CODEGEN--\":381:393   */\n      revert\n        /* \"--CODEGEN--\":350:352   */\n    tag_30:\n        /* \"--CODEGEN--\":401:442   */\n      tag_31\n        /* \"--CODEGEN--\":435:441   */\n      dup4\n        /* \"--CODEGEN--\":430:433   */\n      dup3\n        /* \"--CODEGEN--\":425:428   */\n      dup5\n        /* \"--CODEGEN--\":401:442   */\n      tag_32\n      jump\t// in\n    tag_31:\n        /* \"--CODEGEN--\":68:448   */\n      pop\n      pop\n      pop\n      swap3\n      swap2\n      pop\n      pop\n      jump\t// out\n        /* \"--CODEGEN--\":456:586   */\n    tag_33:\n      0x00\n        /* \"--CODEGEN--\":536:542   */\n      dup2\n        /* \"--CODEGEN--\":523:543   */\n      calldataload\n        /* \"--CODEGEN--\":514:543   */\n      swap1\n      pop\n        /* \"--CODEGEN--\":548:581   */\n      tag_35\n        /* \"--CODEGEN--\":575:580   */\n      dup2\n        /* \"--CODEGEN--\":548:581   */\n      tag_36\n      jump\t// in\n    tag_35:\n        /* \"--CODEGEN--\":508:586   */\n      swap3\n      swap2\n      pop\n      pop\n      jump\t// out\n        /* \"--CODEGEN--\":593:1065   */\n    tag_11:\n      0x00\n      dup1\n        /* \"--CODEGEN--\":724:726   */\n      0x40\n        /* \"--CODEGEN--\":712:721   */\n      dup4\n        /* \"--CODEGEN--\":703:710   */\n      dup6\n        /* \"--CODEGEN--\":699:722   */\n      sub\n        /* \"--CODEGEN--\":695:727   */\n      slt\n        /* \"--CODEGEN--\":692:694   */\n      iszero\n      tag_38\n      jumpi\n        /* \"--CODEGEN--\":740:741   */\n      0x00\n        /* \"--CODEGEN--\":737:738   */\n      dup1\n        /* \"--CODEGEN--\":730:742   */\n      revert\n        /* \"--CODEGEN--\":692:694   */\n    tag_38:\n        /* \"--CODEGEN--\":803:804   */\n      0x00\n        /* \"--CODEGEN--\":792:801   */\n      dup4\n        /* \"--CODEGEN--\":788:805   */\n      add\n        /* \"--CODEGEN--\":775:806   */\n      calldataload\n        /* \"--CODEGEN--\":826:844   */\n      0xffffffffffffffff\n        /* \"--CODEGEN--\":818:824   */\n      dup2\n        /* \"--CODEGEN--\":815:845   */\n      gt\n        /* \"--CODEGEN--\":812:814   */\n      iszero\n      tag_39\n      jumpi\n        /* \"--CODEGEN--\":858:859   */\n      0x00\n        /* \"--CODEGEN--\":855:856   */\n      dup1\n        /* \"--CODEGEN--\":848:860   */\n      revert\n        /* \"--CODEGEN--\":812:814   */\n    tag_39:\n        /* \"--CODEGEN--\":878:941   */\n      tag_40\n        /* \"--CODEGEN--\":933:940   */\n      dup6\n        /* \"--CODEGEN--\":924:930   */\n      dup3\n        /* \"--CODEGEN--\":913:922   */\n      dup7\n        /* \"--CODEGEN--\":909:931   */\n      add\n        /* \"--CODEGEN--\":878:941   */\n      tag_23\n      jump\t// in\n    tag_40:\n        /* \"--CODEGEN--\":868:941   */\n      swap3\n      pop\n        /* \"--CODEGEN--\":754:947   */\n      pop\n        /* \"--CODEGEN--\":978:980   */\n      0x20\n        /* \"--CODEGEN--\":996:1049   */\n      tag_41\n        /* \"--CODEGEN--\":1041:1048   */\n      dup6\n        /* \"--CODEGEN--\":1032:1038   */\n      dup3\n        /* \"--CODEGEN--\":1021:1030   */\n      dup7\n        /* \"--CODEGEN--\":1017:1039   */\n      add\n        /* \"--CODEGEN--\":996:1049   */\n      tag_33\n      jump\t// in\n    tag_41:\n        /* \"--CODEGEN--\":986:1049   */\n      swap2\n      pop\n        /* \"--CODEGEN--\":957:1055   */\n      pop\n        /* \"--CODEGEN--\":686:1065   */\n      swap3\n      pop\n      swap3\n      swap1\n      pop\n      jump\t// out\n        /* \"--CODEGEN--\":1072:1185   */\n    tag_42:\n        /* \"--CODEGEN--\":1155:1179   */\n      tag_44\n        /* \"--CODEGEN--\":1173:1178   */\n      dup2\n        /* \"--CODEGEN--\":1155:1179   */\n      tag_45\n      jump\t// in\n    tag_44:\n        /* \"--CODEGEN--\":1150:1153   */\n      dup3\n        /* \"--CODEGEN--\":1143:1180   */\n      mstore\n        /* \"--CODEGEN--\":1137:1185   */\n      pop\n      pop\n      jump\t// out\n        /* \"--CODEGEN--\":1192:1305   */\n    tag_46:\n        /* \"--CODEGEN--\":1275:1299   */\n      tag_48\n        /* \"--CODEGEN--\":1293:1298   */\n      dup2\n        /* \"--CODEGEN--\":1275:1299   */\n      tag_49\n      jump\t// in\n    tag_48:\n        /* \"--CODEGEN--\":1270:1273   */\n      dup3\n        /* \"--CODEGEN--\":1263:1300   */\n      mstore\n        /* \"--CODEGEN--\":1257:1305   */\n      pop\n      pop\n      jump\t// out\n        /* \"--CODEGEN--\":1312:1672   */\n    tag_50:\n      0x00\n        /* \"--CODEGEN--\":1442:1481   */\n      tag_52\n        /* \"--CODEGEN--\":1475:1480   */\n      dup3\n        /* \"--CODEGEN--\":1442:1481   */\n      tag_53\n      jump\t// in\n    tag_52:\n        /* \"--CODEGEN--\":1493:1582   */\n      tag_54\n        /* \"--CODEGEN--\":1575:1581   */\n      dup2\n        /* \"--CODEGEN--\":1570:1573   */\n      dup6\n        /* \"--CODEGEN--\":1493:1582   */\n      tag_55\n      jump\t// in\n    tag_54:\n        /* \"--CODEGEN--\":1486:1582   */\n      swap4\n      pop\n        /* \"--CODEGEN--\":1587:1639   */\n      tag_56\n        /* \"--CODEGEN--\":1632:1638   */\n      dup2\n        /* \"--CODEGEN--\":1627:1630   */\n      dup6\n        /* \"--CODEGEN--\":1620:1624   */\n      0x20\n        /* \"--CODEGEN--\":1613:1618   */\n      dup7\n        /* \"--CODEGEN--\":1609:1625   */\n      add\n        /* \"--CODEGEN--\":1587:1639   */\n      tag_57\n      jump\t// in\n    tag_56:\n        /* \"--CODEGEN--\":1660:1666   */\n      dup1\n        /* \"--CODEGEN--\":1655:1658   */\n      dup5\n        /* \"--CODEGEN--\":1651:1667   */\n      add\n        /* \"--CODEGEN--\":1644:1667   */\n      swap2\n      pop\n        /* \"--CODEGEN--\":1422:1672   */\n      pop\n      swap3\n      swap2\n      pop\n      pop\n      jump\t// out\n        /* \"--CODEGEN--\":1680:2063   */\n    tag_58:\n      0x00\n        /* \"--CODEGEN--\":1840:1907   */\n      tag_60\n        /* \"--CODEGEN--\":1904:1906   */\n      0x2e\n        /* \"--CODEGEN--\":1899:1902   */\n      dup4\n        /* \"--CODEGEN--\":1840:1907   */\n      tag_61\n      jump\t// in\n    tag_60:\n        /* \"--CODEGEN--\":1833:1907   */\n      swap2\n      pop\n        /* \"--CODEGEN--\":1940:1974   */\n      0x4e6f207469656e6573207065726d69736f73207061726120656a656375746172\n        /* \"--CODEGEN--\":1936:1937   */\n      0x00\n        /* \"--CODEGEN--\":1931:1934   */\n      dup4\n        /* \"--CODEGEN--\":1927:1938   */\n      add\n        /* \"--CODEGEN--\":1920:1975   */\n      mstore\n        /* \"--CODEGEN--\":2009:2025   */\n      0x20657374612066756e63696f6e2e000000000000000000000000000000000000\n        /* \"--CODEGEN--\":2004:2006   */\n      0x20\n        /* \"--CODEGEN--\":1999:2002   */\n      dup4\n        /* \"--CODEGEN--\":1995:2007   */\n      add\n        /* \"--CODEGEN--\":1988:2026   */\n      mstore\n        /* \"--CODEGEN--\":2054:2056   */\n      0x40\n        /* \"--CODEGEN--\":2049:2052   */\n      dup3\n        /* \"--CODEGEN--\":2045:2057   */\n      add\n        /* \"--CODEGEN--\":2038:2057   */\n      swap1\n      pop\n        /* \"--CODEGEN--\":1826:2063   */\n      swap2\n      swap1\n      pop\n      jump\t// out\n        /* \"--CODEGEN--\":2071:2346   */\n    tag_19:\n      0x00\n        /* \"--CODEGEN--\":2226:2321   */\n      tag_63\n        /* \"--CODEGEN--\":2317:2320   */\n      dup3\n        /* \"--CODEGEN--\":2308:2314   */\n      dup5\n        /* \"--CODEGEN--\":2226:2321   */\n      tag_50\n      jump\t// in\n    tag_63:\n        /* \"--CODEGEN--\":2219:2321   */\n      swap2\n      pop\n        /* \"--CODEGEN--\":2338:2341   */\n      dup2\n        /* \"--CODEGEN--\":2331:2341   */\n      swap1\n      pop\n        /* \"--CODEGEN--\":2207:2346   */\n      swap3\n      swap2\n      pop\n      pop\n      jump\t// out\n        /* \"--CODEGEN--\":2353:2575   */\n    tag_8:\n      0x00\n        /* \"--CODEGEN--\":2480:2482   */\n      0x20\n        /* \"--CODEGEN--\":2469:2478   */\n      dup3\n        /* \"--CODEGEN--\":2465:2483   */\n      add\n        /* \"--CODEGEN--\":2457:2483   */\n      swap1\n      pop\n        /* \"--CODEGEN--\":2494:2565   */\n      tag_65\n        /* \"--CODEGEN--\":2562:2563   */\n      0x00\n        /* \"--CODEGEN--\":2551:2560   */\n      dup4\n        /* \"--CODEGEN--\":2547:2564   */\n      add\n        /* \"--CODEGEN--\":2538:2544   */\n      dup5\n        /* \"--CODEGEN--\":2494:2565   */\n      tag_42\n      jump\t// in\n    tag_65:\n        /* \"--CODEGEN--\":2451:2575   */\n      swap3\n      swap2\n      pop\n      pop\n      jump\t// out\n        /* \"--CODEGEN--\":2582:2804   */\n    tag_21:\n      0x00\n        /* \"--CODEGEN--\":2709:2711   */\n      0x20\n        /* \"--CODEGEN--\":2698:2707   */\n      dup3\n        /* \"--CODEGEN--\":2694:2712   */\n      add\n        /* \"--CODEGEN--\":2686:2712   */\n      swap1\n      pop\n        /* \"--CODEGEN--\":2723:2794   */\n      tag_67\n        /* \"--CODEGEN--\":2791:2792   */\n      0x00\n        /* \"--CODEGEN--\":2780:2789   */\n      dup4\n        /* \"--CODEGEN--\":2776:2793   */\n      add\n        /* \"--CODEGEN--\":2767:2773   */\n      dup5\n        /* \"--CODEGEN--\":2723:2794   */\n      tag_46\n      jump\t// in\n    tag_67:\n        /* \"--CODEGEN--\":2680:2804   */\n      swap3\n      swap2\n      pop\n      pop\n      jump\t// out\n        /* \"--CODEGEN--\":2811:3227   */\n    tag_16:\n      0x00\n        /* \"--CODEGEN--\":3011:3013   */\n      0x20\n        /* \"--CODEGEN--\":3000:3009   */\n      dup3\n        /* \"--CODEGEN--\":2996:3014   */\n      add\n        /* \"--CODEGEN--\":2988:3014   */\n      swap1\n      pop\n        /* \"--CODEGEN--\":3061:3070   */\n      dup2\n        /* \"--CODEGEN--\":3055:3059   */\n      dup2\n        /* \"--CODEGEN--\":3051:3071   */\n      sub\n        /* \"--CODEGEN--\":3047:3048   */\n      0x00\n        /* \"--CODEGEN--\":3036:3045   */\n      dup4\n        /* \"--CODEGEN--\":3032:3049   */\n      add\n        /* \"--CODEGEN--\":3025:3072   */\n      mstore\n        /* \"--CODEGEN--\":3086:3217   */\n      tag_69\n        /* \"--CODEGEN--\":3212:3216   */\n      dup2\n        /* \"--CODEGEN--\":3086:3217   */\n      tag_58\n      jump\t// in\n    tag_69:\n        /* \"--CODEGEN--\":3078:3217   */\n      swap1\n      pop\n        /* \"--CODEGEN--\":2982:3227   */\n      swap2\n      swap1\n      pop\n      jump\t// out\n        /* \"--CODEGEN--\":3234:3490   */\n    tag_29:\n      0x00\n        /* \"--CODEGEN--\":3296:3298   */\n      0x40\n        /* \"--CODEGEN--\":3290:3299   */\n      mload\n        /* \"--CODEGEN--\":3280:3299   */\n      swap1\n      pop\n        /* \"--CODEGEN--\":3334:3338   */\n      dup2\n        /* \"--CODEGEN--\":3326:3332   */\n      dup2\n        /* \"--CODEGEN--\":3322:3339   */\n      add\n        /* \"--CODEGEN--\":3433:3439   */\n      dup2\n        /* \"--CODEGEN--\":3421:3431   */\n      dup2\n        /* \"--CODEGEN--\":3418:3440   */\n      lt\n        /* \"--CODEGEN--\":3397:3415   */\n      0xffffffffffffffff\n        /* \"--CODEGEN--\":3385:3395   */\n      dup3\n        /* \"--CODEGEN--\":3382:3416   */\n      gt\n        /* \"--CODEGEN--\":3379:3441   */\n      or\n        /* \"--CODEGEN--\":3376:3378   */\n      iszero\n      tag_71\n      jumpi\n        /* \"--CODEGEN--\":3454:3455   */\n      0x00\n        /* \"--CODEGEN--\":3451:3452   */\n      dup1\n        /* \"--CODEGEN--\":3444:3456   */\n      revert\n        /* \"--CODEGEN--\":3376:3378   */\n    tag_71:\n        /* \"--CODEGEN--\":3474:3484   */\n      dup1\n        /* \"--CODEGEN--\":3470:3472   */\n      0x40\n        /* \"--CODEGEN--\":3463:3485   */\n      mstore\n        /* \"--CODEGEN--\":3274:3490   */\n      pop\n      swap2\n      swap1\n      pop\n      jump\t// out\n        /* \"--CODEGEN--\":3497:3819   */\n    tag_28:\n      0x00\n        /* \"--CODEGEN--\":3641:3659   */\n      0xffffffffffffffff\n        /* \"--CODEGEN--\":3633:3639   */\n      dup3\n        /* \"--CODEGEN--\":3630:3660   */\n      gt\n        /* \"--CODEGEN--\":3627:3629   */\n      iszero\n      tag_73\n      jumpi\n        /* \"--CODEGEN--\":3673:3674   */\n      0x00\n        /* \"--CODEGEN--\":3670:3671   */\n      dup1\n        /* \"--CODEGEN--\":3663:3675   */\n      revert\n        /* \"--CODEGEN--\":3627:3629   */\n    tag_73:\n        /* \"--CODEGEN--\":3740:3744   */\n      0x1f\n        /* \"--CODEGEN--\":3736:3745   */\n      not\n        /* \"--CODEGEN--\":3729:3733   */\n      0x1f\n        /* \"--CODEGEN--\":3721:3727   */\n      dup4\n        /* \"--CODEGEN--\":3717:3734   */\n      add\n        /* \"--CODEGEN--\":3713:3746   */\n      and\n        /* \"--CODEGEN--\":3705:3746   */\n      swap1\n      pop\n        /* \"--CODEGEN--\":3804:3808   */\n      0x20\n        /* \"--CODEGEN--\":3798:3802   */\n      dup2\n        /* \"--CODEGEN--\":3794:3809   */\n      add\n        /* \"--CODEGEN--\":3786:3809   */\n      swap1\n      pop\n        /* \"--CODEGEN--\":3564:3819   */\n      swap2\n      swap1\n      pop\n      jump\t// out\n        /* \"--CODEGEN--\":3826:3948   */\n    tag_53:\n      0x00\n        /* \"--CODEGEN--\":3920:3925   */\n      dup2\n        /* \"--CODEGEN--\":3914:3926   */\n      mload\n        /* \"--CODEGEN--\":3904:3926   */\n      swap1\n      pop\n        /* \"--CODEGEN--\":3885:3948   */\n      swap2\n      swap1\n      pop\n      jump\t// out\n        /* \"--CODEGEN--\":3956:4119   */\n    tag_61:\n      0x00\n        /* \"--CODEGEN--\":4071:4077   */\n      dup3\n        /* \"--CODEGEN--\":4066:4069   */\n      dup3\n        /* \"--CODEGEN--\":4059:4078   */\n      mstore\n        /* \"--CODEGEN--\":4108:4112   */\n      0x20\n        /* \"--CODEGEN--\":4103:4106   */\n      dup3\n        /* \"--CODEGEN--\":4099:4113   */\n      add\n        /* \"--CODEGEN--\":4084:4113   */\n      swap1\n      pop\n        /* \"--CODEGEN--\":4052:4119   */\n      swap3\n      swap2\n      pop\n      pop\n      jump\t// out\n        /* \"--CODEGEN--\":4128:4273   */\n    tag_55:\n      0x00\n        /* \"--CODEGEN--\":4264:4267   */\n      dup2\n        /* \"--CODEGEN--\":4249:4267   */\n      swap1\n      pop\n        /* \"--CODEGEN--\":4242:4273   */\n      swap3\n      swap2\n      pop\n      pop\n      jump\t// out\n        /* \"--CODEGEN--\":4281:4372   */\n    tag_45:\n      0x00\n        /* \"--CODEGEN--\":4343:4367   */\n      tag_78\n        /* \"--CODEGEN--\":4361:4366   */\n      dup3\n        /* \"--CODEGEN--\":4343:4367   */\n      tag_79\n      jump\t// in\n    tag_78:\n        /* \"--CODEGEN--\":4332:4367   */\n      swap1\n      pop\n        /* \"--CODEGEN--\":4326:4372   */\n      swap2\n      swap1\n      pop\n      jump\t// out\n        /* \"--CODEGEN--\":4379:4451   */\n    tag_49:\n      0x00\n        /* \"--CODEGEN--\":4441:4446   */\n      dup2\n        /* \"--CODEGEN--\":4430:4446   */\n      swap1\n      pop\n        /* \"--CODEGEN--\":4424:4451   */\n      swap2\n      swap1\n      pop\n      jump\t// out\n        /* \"--CODEGEN--\":4458:4579   */\n    tag_79:\n      0x00\n        /* \"--CODEGEN--\":4531:4573   */\n      0xffffffffffffffffffffffffffffffffffffffff\n        /* \"--CODEGEN--\":4524:4529   */\n      dup3\n        /* \"--CODEGEN--\":4520:4574   */\n      and\n        /* \"--CODEGEN--\":4509:4574   */\n      swap1\n      pop\n        /* \"--CODEGEN--\":4503:4579   */\n      swap2\n      swap1\n      pop\n      jump\t// out\n        /* \"--CODEGEN--\":4586:4658   */\n    tag_82:\n      0x00\n        /* \"--CODEGEN--\":4648:4653   */\n      dup2\n        /* \"--CODEGEN--\":4637:4653   */\n      swap1\n      pop\n        /* \"--CODEGEN--\":4631:4658   */\n      swap2\n      swap1\n      pop\n      jump\t// out\n        /* \"--CODEGEN--\":4666:4811   */\n    tag_32:\n        /* \"--CODEGEN--\":4747:4753   */\n      dup3\n        /* \"--CODEGEN--\":4742:4745   */\n      dup2\n        /* \"--CODEGEN--\":4737:4740   */\n      dup4\n        /* \"--CODEGEN--\":4724:4754   */\n      calldatacopy\n        /* \"--CODEGEN--\":4803:4804   */\n      0x00\n        /* \"--CODEGEN--\":4794:4800   */\n      dup4\n        /* \"--CODEGEN--\":4789:4792   */\n      dup4\n        /* \"--CODEGEN--\":4785:4801   */\n      add\n        /* \"--CODEGEN--\":4778:4805   */\n      mstore\n        /* \"--CODEGEN--\":4717:4811   */\n      pop\n      pop\n      pop\n      jump\t// out\n        /* \"--CODEGEN--\":4820:5088   */\n    tag_57:\n        /* \"--CODEGEN--\":4885:4886   */\n      0x00\n        /* \"--CODEGEN--\":4892:4993   */\n    tag_86:\n        /* \"--CODEGEN--\":4906:4912   */\n      dup4\n        /* \"--CODEGEN--\":4903:4904   */\n      dup2\n        /* \"--CODEGEN--\":4900:4913   */\n      lt\n        /* \"--CODEGEN--\":4892:4993   */\n      iszero\n      tag_88\n      jumpi\n        /* \"--CODEGEN--\":4982:4983   */\n      dup1\n        /* \"--CODEGEN--\":4977:4980   */\n      dup3\n        /* \"--CODEGEN--\":4973:4984   */\n      add\n        /* \"--CODEGEN--\":4967:4985   */\n      mload\n        /* \"--CODEGEN--\":4963:4964   */\n      dup2\n        /* \"--CODEGEN--\":4958:4961   */\n      dup5\n        /* \"--CODEGEN--\":4954:4965   */\n      add\n        /* \"--CODEGEN--\":4947:4986   */\n      mstore\n        /* \"--CODEGEN--\":4928:4930   */\n      0x20\n        /* \"--CODEGEN--\":4925:4926   */\n      dup2\n        /* \"--CODEGEN--\":4921:4931   */\n      add\n        /* \"--CODEGEN--\":4916:4931   */\n      swap1\n      pop\n        /* \"--CODEGEN--\":4892:4993   */\n      jump(tag_86)\n    tag_88:\n        /* \"--CODEGEN--\":5008:5014   */\n      dup4\n        /* \"--CODEGEN--\":5005:5006   */\n      dup2\n        /* \"--CODEGEN--\":5002:5015   */\n      gt\n        /* \"--CODEGEN--\":4999:5001   */\n      iszero\n      tag_89\n      jumpi\n        /* \"--CODEGEN--\":5073:5074   */\n      0x00\n        /* \"--CODEGEN--\":5064:5070   */\n      dup5\n        /* \"--CODEGEN--\":5059:5062   */\n      dup5\n        /* \"--CODEGEN--\":5055:5071   */\n      add\n        /* \"--CODEGEN--\":5048:5075   */\n      mstore\n        /* \"--CODEGEN--\":4999:5001   */\n    tag_89:\n        /* \"--CODEGEN--\":4869:5088   */\n      pop\n      pop\n      pop\n      pop\n      jump\t// out\n        /* \"--CODEGEN--\":5096:5213   */\n    tag_36:\n        /* \"--CODEGEN--\":5165:5189   */\n      tag_91\n        /* \"--CODEGEN--\":5183:5188   */\n      dup2\n        /* \"--CODEGEN--\":5165:5189   */\n      tag_82\n      jump\t// in\n    tag_91:\n        /* \"--CODEGEN--\":5158:5163   */\n      dup2\n        /* \"--CODEGEN--\":5155:5190   */\n      eq\n        /* \"--CODEGEN--\":5145:5147   */\n      tag_92\n      jumpi\n        /* \"--CODEGEN--\":5204:5205   */\n      0x00\n        /* \"--CODEGEN--\":5201:5202   */\n      dup1\n        /* \"--CODEGEN--\":5194:5206   */\n      revert\n        /* \"--CODEGEN--\":5145:5147   */\n    tag_92:\n        /* \"--CODEGEN--\":5139:5213   */\n      pop\n      jump\t// out\n\n    auxdata: 0xa26469706673582212205bcea97f094a3338c98ba06a714c56501e8a52dab732da04c43579b752c4279664736f6c634300060c0033\n}\n",
				"bytecode": {
					"linkReferences": {},
					"object": "608060405234801561001057600080fd5b50336000806101000a81548173ffffffffffffffffffffffffffffffffffffffff021916908373ffffffffffffffffffffffffffffffffffffffff1602179055506104dc806100606000396000f3fe608060405234801561001057600080fd5b50600436106100365760003560e01c80635113940d1461003b5780637b81880c14610059575b600080fd5b610043610075565b6040516100509190610331565b60405180910390f35b610073600480360381019061006e9190610211565b610099565b005b60008054906101000a900473ffffffffffffffffffffffffffffffffffffffff1681565b3360008054906101000a900473ffffffffffffffffffffffffffffffffffffffff1673ffffffffffffffffffffffffffffffffffffffff168173ffffffffffffffffffffffffffffffffffffffff1614610128576040517f08c379a000000000000000000000000000000000000000000000000000000000815260040161011f90610367565b60405180910390fd5b60008360405160200161013b919061031a565b6040516020818303038152906040528051906020012090508260016000838152602001908152602001600020819055507f7c797c3c4c8b28d3d978931cf5e8ed89eca34e6b8cc1b4b6b1fce2a58c9e47ad8160405161019a919061034c565b60405180910390a150505050565b600082601f8301126101b957600080fd5b81356101cc6101c7826103b4565b610387565b915080825260208301602083018583830111156101e857600080fd5b6101f383828461044d565b50505092915050565b60008135905061020b8161048f565b92915050565b6000806040838503121561022457600080fd5b600083013567ffffffffffffffff81111561023e57600080fd5b61024a858286016101a8565b925050602061025b858286016101fc565b9150509250929050565b61026e81610407565b82525050565b61027d81610419565b82525050565b600061028e826103e0565b61029881856103fc565b93506102a881856020860161045c565b80840191505092915050565b60006102c1602e836103eb565b91507f4e6f207469656e6573207065726d69736f73207061726120656a65637574617260008301527f20657374612066756e63696f6e2e0000000000000000000000000000000000006020830152604082019050919050565b60006103268284610283565b915081905092915050565b60006020820190506103466000830184610265565b92915050565b60006020820190506103616000830184610274565b92915050565b60006020820190508181036000830152610380816102b4565b9050919050565b6000604051905081810181811067ffffffffffffffff821117156103aa57600080fd5b8060405250919050565b600067ffffffffffffffff8211156103cb57600080fd5b601f19601f8301169050602081019050919050565b600081519050919050565b600082825260208201905092915050565b600081905092915050565b600061041282610423565b9050919050565b6000819050919050565b600073ffffffffffffffffffffffffffffffffffffffff82169050919050565b6000819050919050565b82818337600083830152505050565b60005b8381101561047a57808201518184015260208101905061045f565b83811115610489576000848401525b50505050565b61049881610443565b81146104a357600080fd5b5056fea26469706673582212205bcea97f094a3338c98ba06a714c56501e8a52dab732da04c43579b752c4279664736f6c634300060c0033",
					"opcodes": "PUSH1 0x80 PUSH1 0x40 MSTORE CALLVALUE DUP1 ISZERO PUSH2 0x10 JUMPI PUSH1 0x0 DUP1 REVERT JUMPDEST POP CALLER PUSH1 0x0 DUP1 PUSH2 0x100 EXP DUP2 SLOAD DUP2 PUSH20 0xFFFFFFFFFFFFFFFFFFFFFFFFFFFFFFFFFFFFFFFF MUL NOT AND SWAP1 DUP4 PUSH20 0xFFFFFFFFFFFFFFFFFFFFFFFFFFFFFFFFFFFFFFFF AND MUL OR SWAP1 SSTORE POP PUSH2 0x4DC DUP1 PUSH2 0x60 PUSH1 0x0 CODECOPY PUSH1 0x0 RETURN INVALID PUSH1 0x80 PUSH1 0x40 MSTORE CALLVALUE DUP1 ISZERO PUSH2 0x10 JUMPI PUSH1 0x0 DUP1 REVERT JUMPDEST POP PUSH1 0x4 CALLDATASIZE LT PUSH2 0x36 JUMPI PUSH1 0x0 CALLDATALOAD PUSH1 0xE0 SHR DUP1 PUSH4 0x5113940D EQ PUSH2 0x3B JUMPI DUP1 PUSH4 0x7B81880C EQ PUSH2 0x59 JUMPI JUMPDEST PUSH1 0x0 DUP1 REVERT JUMPDEST PUSH2 0x43 PUSH2 0x75 JUMP JUMPDEST PUSH1 0x40 MLOAD PUSH2 0x50 SWAP2 SWAP1 PUSH2 0x331 JUMP JUMPDEST PUSH1 0x40 MLOAD DUP1 SWAP2 SUB SWAP1 RETURN JUMPDEST PUSH2 0x73 PUSH1 0x4 DUP1 CALLDATASIZE SUB DUP2 ADD SWAP1 PUSH2 0x6E SWAP2 SWAP1 PUSH2 0x211 JUMP JUMPDEST PUSH2 0x99 JUMP JUMPDEST STOP JUMPDEST PUSH1 0x0 DUP1 SLOAD SWAP1 PUSH2 0x100 EXP SWAP1 DIV PUSH20 0xFFFFFFFFFFFFFFFFFFFFFFFFFFFFFFFFFFFFFFFF AND DUP2 JUMP JUMPDEST CALLER PUSH1 0x0 DUP1 SLOAD SWAP1 PUSH2 0x100 EXP SWAP1 DIV PUSH20 0xFFFFFFFFFFFFFFFFFFFFFFFFFFFFFFFFFFFFFFFF AND PUSH20 0xFFFFFFFFFFFFFFFFFFFFFFFFFFFFFFFFFFFFFFFF AND DUP2 PUSH20 0xFFFFFFFFFFFFFFFFFFFFFFFFFFFFFFFFFFFFFFFF AND EQ PUSH2 0x128 JUMPI PUSH1 0x40 MLOAD PUSH32 0x8C379A000000000000000000000000000000000000000000000000000000000 DUP2 MSTORE PUSH1 0x4 ADD PUSH2 0x11F SWAP1 PUSH2 0x367 JUMP JUMPDEST PUSH1 0x40 MLOAD DUP1 SWAP2 SUB SWAP1 REVERT JUMPDEST PUSH1 0x0 DUP4 PUSH1 0x40 MLOAD PUSH1 0x20 ADD PUSH2 0x13B SWAP2 SWAP1 PUSH2 0x31A JUMP JUMPDEST PUSH1 0x40 MLOAD PUSH1 0x20 DUP2 DUP4 SUB SUB DUP2 MSTORE SWAP1 PUSH1 0x40 MSTORE DUP1 MLOAD SWAP1 PUSH1 0x20 ADD KECCAK256 SWAP1 POP DUP3 PUSH1 0x1 PUSH1 0x0 DUP4 DUP2 MSTORE PUSH1 0x20 ADD SWAP1 DUP2 MSTORE PUSH1 0x20 ADD PUSH1 0x0 KECCAK256 DUP2 SWAP1 SSTORE POP PUSH32 0x7C797C3C4C8B28D3D978931CF5E8ED89ECA34E6B8CC1B4B6B1FCE2A58C9E47AD DUP2 PUSH1 0x40 MLOAD PUSH2 0x19A SWAP2 SWAP1 PUSH2 0x34C JUMP JUMPDEST PUSH1 0x40 MLOAD DUP1 SWAP2 SUB SWAP1 LOG1 POP POP POP POP JUMP JUMPDEST PUSH1 0x0 DUP3 PUSH1 0x1F DUP4 ADD SLT PUSH2 0x1B9 JUMPI PUSH1 0x0 DUP1 REVERT JUMPDEST DUP2 CALLDATALOAD PUSH2 0x1CC PUSH2 0x1C7 DUP3 PUSH2 0x3B4 JUMP JUMPDEST PUSH2 0x387 JUMP JUMPDEST SWAP2 POP DUP1 DUP3 MSTORE PUSH1 0x20 DUP4 ADD PUSH1 0x20 DUP4 ADD DUP6 DUP4 DUP4 ADD GT ISZERO PUSH2 0x1E8 JUMPI PUSH1 0x0 DUP1 REVERT JUMPDEST PUSH2 0x1F3 DUP4 DUP3 DUP5 PUSH2 0x44D JUMP JUMPDEST POP POP POP SWAP3 SWAP2 POP POP JUMP JUMPDEST PUSH1 0x0 DUP2 CALLDATALOAD SWAP1 POP PUSH2 0x20B DUP2 PUSH2 0x48F JUMP JUMPDEST SWAP3 SWAP2 POP POP JUMP JUMPDEST PUSH1 0x0 DUP1 PUSH1 0x40 DUP4 DUP6 SUB SLT ISZERO PUSH2 0x224 JUMPI PUSH1 0x0 DUP1 REVERT JUMPDEST PUSH1 0x0 DUP4 ADD CALLDATALOAD PUSH8 0xFFFFFFFFFFFFFFFF DUP2 GT ISZERO PUSH2 0x23E JUMPI PUSH1 0x0 DUP1 REVERT JUMPDEST PUSH2 0x24A DUP6 DUP3 DUP7 ADD PUSH2 0x1A8 JUMP JUMPDEST SWAP3 POP POP PUSH1 0x20 PUSH2 0x25B DUP6 DUP3 DUP7 ADD PUSH2 0x1FC JUMP JUMPDEST SWAP2 POP POP SWAP3 POP SWAP3 SWAP1 POP JUMP JUMPDEST PUSH2 0x26E DUP2 PUSH2 0x407 JUMP JUMPDEST DUP3 MSTORE POP POP JUMP JUMPDEST PUSH2 0x27D DUP2 PUSH2 0x419 JUMP JUMPDEST DUP3 MSTORE POP POP JUMP JUMPDEST PUSH1 0x0 PUSH2 0x28E DUP3 PUSH2 0x3E0 JUMP JUMPDEST PUSH2 0x298 DUP2 DUP6 PUSH2 0x3FC JUMP JUMPDEST SWAP4 POP PUSH2 0x2A8 DUP2 DUP6 PUSH1 0x20 DUP7 ADD PUSH2 0x45C JUMP JUMPDEST DUP1 DUP5 ADD SWAP2 POP POP SWAP3 SWAP2 POP POP JUMP JUMPDEST PUSH1 0x0 PUSH2 0x2C1 PUSH1 0x2E DUP4 PUSH2 0x3EB JUMP JUMPDEST SWAP2 POP PUSH32 0x4E6F207469656E6573207065726D69736F73207061726120656A656375746172 PUSH1 0x0 DUP4 ADD MSTORE PUSH32 0x20657374612066756E63696F6E2E000000000000000000000000000000000000 PUSH1 0x20 DUP4 ADD MSTORE PUSH1 0x40 DUP3 ADD SWAP1 POP SWAP2 SWAP1 POP JUMP JUMPDEST PUSH1 0x0 PUSH2 0x326 DUP3 DUP5 PUSH2 0x283 JUMP JUMPDEST SWAP2 POP DUP2 SWAP1 POP SWAP3 SWAP2 POP POP JUMP JUMPDEST PUSH1 0x0 PUSH1 0x20 DUP3 ADD SWAP1 POP PUSH2 0x346 PUSH1 0x0 DUP4 ADD DUP5 PUSH2 0x265 JUMP JUMPDEST SWAP3 SWAP2 POP POP JUMP JUMPDEST PUSH1 0x0 PUSH1 0x20 DUP3 ADD SWAP1 POP PUSH2 0x361 PUSH1 0x0 DUP4 ADD DUP5 PUSH2 0x274 JUMP JUMPDEST SWAP3 SWAP2 POP POP JUMP JUMPDEST PUSH1 0x0 PUSH1 0x20 DUP3 ADD SWAP1 POP DUP2 DUP2 SUB PUSH1 0x0 DUP4 ADD MSTORE PUSH2 0x380 DUP2 PUSH2 0x2B4 JUMP JUMPDEST SWAP1 POP SWAP2 SWAP1 POP JUMP JUMPDEST PUSH1 0x0 PUSH1 0x40 MLOAD SWAP1 POP DUP2 DUP2 ADD DUP2 DUP2 LT PUSH8 0xFFFFFFFFFFFFFFFF DUP3 GT OR ISZERO PUSH2 0x3AA JUMPI PUSH1 0x0 DUP1 REVERT JUMPDEST DUP1 PUSH1 0x40 MSTORE POP SWAP2 SWAP1 POP JUMP JUMPDEST PUSH1 0x0 PUSH8 0xFFFFFFFFFFFFFFFF DUP3 GT ISZERO PUSH2 0x3CB JUMPI PUSH1 0x0 DUP1 REVERT JUMPDEST PUSH1 0x1F NOT PUSH1 0x1F DUP4 ADD AND SWAP1 POP PUSH1 0x20 DUP2 ADD SWAP1 POP SWAP2 SWAP1 POP JUMP JUMPDEST PUSH1 0x0 DUP2 MLOAD SWAP1 POP SWAP2 SWAP1 POP JUMP JUMPDEST PUSH1 0x0 DUP3 DUP3 MSTORE PUSH1 0x20 DUP3 ADD SWAP1 POP SWAP3 SWAP2 POP POP JUMP JUMPDEST PUSH1 0x0 DUP2 SWAP1 POP SWAP3 SWAP2 POP POP JUMP JUMPDEST PUSH1 0x0 PUSH2 0x412 DUP3 PUSH2 0x423 JUMP JUMPDEST SWAP1 POP SWAP2 SWAP1 POP JUMP JUMPDEST PUSH1 0x0 DUP2 SWAP1 POP SWAP2 SWAP1 POP JUMP JUMPDEST PUSH1 0x0 PUSH20 0xFFFFFFFFFFFFFFFFFFFFFFFFFFFFFFFFFFFFFFFF DUP3 AND SWAP1 POP SWAP2 SWAP1 POP JUMP JUMPDEST PUSH1 0x0 DUP2 SWAP1 POP SWAP2 SWAP1 POP JUMP JUMPDEST DUP3 DUP2 DUP4 CALLDATACOPY PUSH1 0x0 DUP4 DUP4 ADD MSTORE POP POP POP JUMP JUMPDEST PUSH1 0x0 JUMPDEST DUP4 DUP2 LT ISZERO PUSH2 0x47A JUMPI DUP1 DUP3 ADD MLOAD DUP2 DUP5 ADD MSTORE PUSH1 0x20 DUP2 ADD SWAP1 POP PUSH2 0x45F JUMP JUMPDEST DUP4 DUP2 GT ISZERO PUSH2 0x489 JUMPI PUSH1 0x0 DUP5 DUP5 ADD MSTORE JUMPDEST POP POP POP POP JUMP JUMPDEST PUSH2 0x498 DUP2 PUSH2 0x443 JUMP JUMPDEST DUP2 EQ PUSH2 0x4A3 JUMPI PUSH1 0x0 DUP1 REVERT JUMPDEST POP JUMP INVALID LOG2 PUSH5 0x6970667358 0x22 SLT KECCAK256 JUMPDEST 0xCE 0xA9 PUSH32 0x94A3338C98BA06A714C56501E8A52DAB732DA04C43579B752C4279664736F6C PUSH4 0x4300060C STOP CALLER "
				},
				"gasEstimates": {
					"creation": {
						"codeDepositCost": "248800",
						"executionCost": "21153",
						"totalCost": "269953"
					},
					"external": {
						"evaluate(string,uint256)": "infinite",
						"professor()": "1189"
					}
				},
				"methodIdentifiers": {
					"evaluate(string,uint256)": "7b81880c",
					"professor()": "5113940d"
				}
			},
			"storageLayout": {
				"storage": [
					{
						"astId": 4,
						"contract": "NOTES/notes.sol:notas",
						"label": "professor",
						"offset": 0,
						"slot": "0",
						"type": "t_address"
					},
					{
						"astId": 17,
						"contract": "NOTES/notes.sol:notas",
						"label": "Notes",
						"offset": 0,
						"slot": "1",
						"type": "t_mapping(t_bytes32,t_uint256)"
					},
					{
						"astId": 20,
						"contract": "NOTES/notes.sol:notas",
						"label": "revisions",
						"offset": 0,
						"slot": "2",
						"type": "t_array(t_string_storage)dyn_storage"
					}
				],
				"types": {
					"t_address": {
						"encoding": "inplace",
						"label": "address",
						"numberOfBytes": "20"
					},
					"t_array(t_string_storage)dyn_storage": {
						"base": "t_string_storage",
						"encoding": "dynamic_array",
						"label": "string[]",
						"numberOfBytes": "32"
					},
					"t_bytes32": {
						"encoding": "inplace",
						"label": "bytes32",
						"numberOfBytes": "32"
					},
					"t_mapping(t_bytes32,t_uint256)": {
						"encoding": "mapping",
						"key": "t_bytes32",
						"label": "mapping(bytes32 => uint256)",
						"numberOfBytes": "32",
						"value": "t_uint256"
					},
					"t_string_storage": {
						"encoding": "bytes",
						"label": "string",
						"numberOfBytes": "32"
					},
					"t_uint256": {
						"encoding": "inplace",
						"label": "uint256",
						"numberOfBytes": "32"
					}
				}
			},
			"userdoc": {
				"kind": "user",
				"methods": {},
				"version": 1
			}
		}
	}
}